1 05/12/22 08:02:30:508 Inbound:, Outbound:, Bidirectional:***
2 05/12/22 08:02:30:525 Received FIX message
Message dump: 
8=FIX.4.0|9=72|35=A|49=UNXQW|56=NYFIXHUB|34=1|52=20051222-13:02:30|57=MILL|98=0|108=30|10=012|
3 05/12/22 08:02:30:530 Sent FIX Message
Message dump: 
8=FIX.4.0|9=0073|35=A|49=NYFIXHUB|56=UNXQW|57=ADMIN|34=1|52=20051222-13:02:30|98=0|108=30|10=168|
4 05/12/22 08:02:30:533 Sent FIX Message
Message dump: 
8=FIX.4.0|9=0113|35=U=|49=NYFIXHUB|56=UNXQW|57=ADMIN|34=2|52=20051222-13:02:30|7100=1|7101=1|7105=CAPREGION|7103=NYFIXHUB|7104=25|10=213|
5 05/12/22 08:03:00:109 Sent FIX Message
Message dump: 
8=FIX.4.0|9=0061|35=0|49=NYFIXHUB|56=UNXQW|57=ADMIN|34=3|52=20051222-13:03:00|10=123|
6 05/12/22 08:03:00:634 Received FIX message
Message dump: 
8=FIX.4.0|9=60|35=0|49=UNXQW|56=NYFIXHUB|34=2|52=20051222-13:03:00|57=MILL|10=222|
7 05/12/22 08:03:30:096 Sent FIX Message
Message dump: 
8=FIX.4.0|9=0061|35=0|49=NYFIXHUB|56=UNXQW|57=ADMIN|34=4|52=20051222-13:03:30|10=127|
8 05/12/22 08:03:30:633 Received FIX message
Message dump: 
8=FIX.4.0|9=60|35=0|49=UNXQW|56=NYFIXHUB|34=3|52=20051222-13:03:30|57=MILL|10=226|
9 05/12/22 08:04:00:073 Sent FIX Message
Message dump: 
8=FIX.4.0|9=0061|35=0|49=NYFIXHUB|56=UNXQW|57=ADMIN|34=5|52=20051222-13:04:00|10=126|
10 05/12/22 08:04:00:633 Received FIX message
Message dump: 
8=FIX.4.0|9=60|35=0|49=UNXQW|56=NYFIXHUB|34=4|52=20051222-13:04:00|57=MILL|10=225|
11 05/12/22 08:04:30:104 Sent FIX Message
Message dump: 
8=FIX.4.0|9=0061|35=0|49=NYFIXHUB|56=UNXQW|57=ADMIN|34=6|52=20051222-13:04:30|10=130|
12 05/12/22 08:04:30:633 Received FIX message
Message dump: 
8=FIX.4.0|9=60|35=0|49=UNXQW|56=NYFIXHUB|34=5|52=20051222-13:04:30|57=MILL|10=229|
13 05/12/22 08:05:00:037 Sent FIX Message
Message dump: 
8=FIX.4.0|9=0061|35=0|49=NYFIXHUB|56=UNXQW|57=ADMIN|34=7|52=20051222-13:05:00|10=129|
14 05/12/22 08:05:00:632 Received FIX message
Message dump: 
8=FIX.4.0|9=60|35=0|49=UNXQW|56=NYFIXHUB|34=6|52=20051222-13:05:00|57=MILL|10=228|
15 05/12/22 08:05:30:075 Sent FIX Message
Message dump: 
8=FIX.4.0|9=0061|35=0|49=NYFIXHUB|56=UNXQW|57=ADMIN|34=8|52=20051222-13:05:30|10=133|
16 05/12/22 08:05:30:631 Received FIX message
Message dump: 
8=FIX.4.0|9=60|35=0|49=UNXQW|56=NYFIXHUB|34=7|52=20051222-13:05:30|57=MILL|10=232|
17 05/12/22 08:06:00:107 Sent FIX Message
Message dump: 
8=FIX.4.0|9=0061|35=0|49=NYFIXHUB|56=UNXQW|57=ADMIN|34=9|52=20051222-13:06:00|10=132|
18 05/12/22 08:06:00:631 Received FIX message
Message dump: 
8=FIX.4.0|9=60|35=0|49=UNXQW|56=NYFIXHUB|34=8|52=20051222-13:06:00|57=MILL|10=231|
19 05/12/22 08:06:30:072 Sent FIX Message
Message dump: 
8=FIX.4.0|9=0062|35=0|49=NYFIXHUB|56=UNXQW|57=ADMIN|34=10|52=20051222-13:06:30|10=176|
20 05/12/22 08:06:30:630 Received FIX message
Message dump: 
8=FIX.4.0|9=60|35=0|49=UNXQW|56=NYFIXHUB|34=9|52=20051222-13:06:30|57=MILL|10=235|
21 05/12/22 08:07:00:044 Sent FIX Message
Message dump: 
8=FIX.4.0|9=0062|35=0|49=NYFIXHUB|56=UNXQW|57=ADMIN|34=11|52=20051222-13:07:00|10=175|
22 05/12/22 08:07:00:630 Received FIX message
Message dump: 
8=FIX.4.0|9=61|35=0|49=UNXQW|56=NYFIXHUB|34=10|52=20051222-13:07:00|57=MILL|10=018|
23 05/12/22 08:07:30:037 Sent FIX Message
Message dump: 
8=FIX.4.0|9=0062|35=0|49=NYFIXHUB|56=UNXQW|57=ADMIN|34=12|52=20051222-13:07:30|10=179|
24 05/12/22 08:07:30:630 Received FIX message
Message dump: 
8=FIX.4.0|9=61|35=0|49=UNXQW|56=NYFIXHUB|34=11|52=20051222-13:07:30|57=MILL|10=022|
25 05/12/22 08:08:00:108 Sent FIX Message
Message dump: 
8=FIX.4.0|9=0062|35=0|49=NYFIXHUB|56=UNXQW|57=ADMIN|34=13|52=20051222-13:08:00|10=178|
26 05/12/22 08:08:00:629 Received FIX message
Message dump: 
8=FIX.4.0|9=61|35=0|49=UNXQW|56=NYFIXHUB|34=12|52=20051222-13:08:00|57=MILL|10=021|
27 05/12/22 08:08:30:049 Sent FIX Message
Message dump: 
8=FIX.4.0|9=0062|35=0|49=NYFIXHUB|56=UNXQW|57=ADMIN|34=14|52=20051222-13:08:30|10=182|
28 05/12/22 08:08:30:629 Received FIX message
Message dump: 
8=FIX.4.0|9=61|35=0|49=UNXQW|56=NYFIXHUB|34=13|52=20051222-13:08:30|57=MILL|10=025|
29 05/12/22 08:09:00:056 Sent FIX Message
Message dump: 
8=FIX.4.0|9=0062|35=0|49=NYFIXHUB|56=UNXQW|57=ADMIN|34=15|52=20051222-13:09:00|10=181|
30 05/12/22 08:09:00:628 Received FIX message
Message dump: 
8=FIX.4.0|9=61|35=0|49=UNXQW|56=NYFIXHUB|34=14|52=20051222-13:09:00|57=MILL|10=024|
31 05/12/22 08:09:30:029 Sent FIX Message
Message dump: 
8=FIX.4.0|9=0062|35=0|49=NYFIXHUB|56=UNXQW|57=ADMIN|34=16|52=20051222-13:09:30|10=185|
32 05/12/22 08:09:30:628 Received FIX message
Message dump: 
8=FIX.4.0|9=61|35=0|49=UNXQW|56=NYFIXHUB|34=15|52=20051222-13:09:30|57=MILL|10=028|
33 05/12/22 08:10:00:081 Sent FIX Message
Message dump: 
8=FIX.4.0|9=0062|35=0|49=NYFIXHUB|56=UNXQW|57=ADMIN|34=17|52=20051222-13:10:00|10=175|
34 05/12/22 08:10:00:627 Received FIX message
Message dump: 
8=FIX.4.0|9=61|35=0|49=UNXQW|56=NYFIXHUB|34=16|52=20051222-13:10:00|57=MILL|10=018|
35 05/12/22 08:10:30:011 Sent FIX Message
Message dump: 
8=FIX.4.0|9=0062|35=0|49=NYFIXHUB|56=UNXQW|57=ADMIN|34=18|52=20051222-13:10:30|10=179|
36 05/12/22 08:10:30:626 Received FIX message
Message dump: 
8=FIX.4.0|9=61|35=0|49=UNXQW|56=NYFIXHUB|34=17|52=20051222-13:10:30|57=MILL|10=022|
37 05/12/22 08:11:00:050 Sent FIX Message
Message dump: 
8=FIX.4.0|9=0062|35=0|49=NYFIXHUB|56=UNXQW|57=ADMIN|34=19|52=20051222-13:11:00|10=178|
38 05/12/22 08:11:00:626 Received FIX message
Message dump: 
8=FIX.4.0|9=61|35=0|49=UNXQW|56=NYFIXHUB|34=18|52=20051222-13:11:00|57=MILL|10=021|
39 05/12/22 08:11:30:111 Sent FIX Message
Message dump: 
8=FIX.4.0|9=0062|35=0|49=NYFIXHUB|56=UNXQW|57=ADMIN|34=20|52=20051222-13:11:30|10=173|
40 05/12/22 08:11:30:626 Received FIX message
Message dump: 
8=FIX.4.0|9=61|35=0|49=UNXQW|56=NYFIXHUB|34=19|52=20051222-13:11:30|57=MILL|10=025|
41 05/12/22 08:12:00:072 Sent FIX Message
Message dump: 
8=FIX.4.0|9=0062|35=0|49=NYFIXHUB|56=UNXQW|57=ADMIN|34=21|52=20051222-13:12:00|10=172|
42 05/12/22 08:12:00:625 Received FIX message
Message dump: 
8=FIX.4.0|9=61|35=0|49=UNXQW|56=NYFIXHUB|34=20|52=20051222-13:12:00|57=MILL|10=015|
43 05/12/22 08:12:30:046 Sent FIX Message
Message dump: 
8=FIX.4.0|9=0062|35=0|49=NYFIXHUB|56=UNXQW|57=ADMIN|34=22|52=20051222-13:12:30|10=176|
44 05/12/22 08:12:30:624 Received FIX message
Message dump: 
8=FIX.4.0|9=61|35=0|49=UNXQW|56=NYFIXHUB|34=21|52=20051222-13:12:30|57=MILL|10=019|
45 05/12/22 08:13:00:046 Sent FIX Message
Message dump: 
8=FIX.4.0|9=0062|35=0|49=NYFIXHUB|56=UNXQW|57=ADMIN|34=23|52=20051222-13:13:00|10=175|
46 05/12/22 08:13:00:641 Received FIX message
Message dump: 
8=FIX.4.0|9=61|35=0|49=UNXQW|56=NYFIXHUB|34=22|52=20051222-13:13:00|57=MILL|10=018|
47 05/12/22 08:13:30:095 Sent FIX Message
Message dump: 
8=FIX.4.0|9=0062|35=0|49=NYFIXHUB|56=UNXQW|57=ADMIN|34=24|52=20051222-13:13:30|10=179|
48 05/12/22 08:13:30:624 Received FIX message
Message dump: 
8=FIX.4.0|9=61|35=0|49=UNXQW|56=NYFIXHUB|34=23|52=20051222-13:13:30|57=MILL|10=022|
49 05/12/22 08:14:00:045 Sent FIX Message
Message dump: 
8=FIX.4.0|9=0062|35=0|49=NYFIXHUB|56=UNXQW|57=ADMIN|34=25|52=20051222-13:14:00|10=178|
50 05/12/22 08:14:00:623 Received FIX message
Message dump: 
8=FIX.4.0|9=61|35=0|49=UNXQW|56=NYFIXHUB|34=24|52=20051222-13:14:00|57=MILL|10=021|
51 05/12/22 08:14:30:102 Sent FIX Message
Message dump: 
8=FIX.4.0|9=0062|35=0|49=NYFIXHUB|56=UNXQW|57=ADMIN|34=26|52=20051222-13:14:30|10=182|
52 05/12/22 08:14:30:623 Received FIX message
Message dump: 
8=FIX.4.0|9=61|35=0|49=UNXQW|56=NYFIXHUB|34=25|52=20051222-13:14:30|57=MILL|10=025|
53 05/12/22 08:15:00:051 Sent FIX Message
Message dump: 
8=FIX.4.0|9=0062|35=0|49=NYFIXHUB|56=UNXQW|57=ADMIN|34=27|52=20051222-13:15:00|10=181|
54 05/12/22 08:15:00:622 Received FIX message
Message dump: 
8=FIX.4.0|9=61|35=0|49=UNXQW|56=NYFIXHUB|34=26|52=20051222-13:15:00|57=MILL|10=024|
55 05/12/22 08:15:30:090 Sent FIX Message
Message dump: 
8=FIX.4.0|9=0062|35=0|49=NYFIXHUB|56=UNXQW|57=ADMIN|34=28|52=20051222-13:15:30|10=185|
56 05/12/22 08:15:30:622 Received FIX message
Message dump: 
8=FIX.4.0|9=61|35=0|49=UNXQW|56=NYFIXHUB|34=27|52=20051222-13:15:30|57=MILL|10=028|
57 05/12/22 08:16:00:019 Sent FIX Message
Message dump: 
8=FIX.4.0|9=0062|35=0|49=NYFIXHUB|56=UNXQW|57=ADMIN|34=29|52=20051222-13:16:00|10=184|
58 05/12/22 08:16:00:621 Received FIX message
Message dump: 
8=FIX.4.0|9=61|35=0|49=UNXQW|56=NYFIXHUB|34=28|52=20051222-13:16:00|57=MILL|10=027|
59 05/12/22 08:16:30:056 Sent FIX Message
Message dump: 
8=FIX.4.0|9=0062|35=0|49=NYFIXHUB|56=UNXQW|57=ADMIN|34=30|52=20051222-13:16:30|10=179|
60 05/12/22 08:16:30:621 Received FIX message
Message dump: 
8=FIX.4.0|9=61|35=0|49=UNXQW|56=NYFIXHUB|34=29|52=20051222-13:16:30|57=MILL|10=031|
61 05/12/22 08:17:00:076 Sent FIX Message
Message dump: 
8=FIX.4.0|9=0062|35=0|49=NYFIXHUB|56=UNXQW|57=ADMIN|34=31|52=20051222-13:17:00|10=178|
62 05/12/22 08:17:00:619 Received FIX message
Message dump: 
8=FIX.4.0|9=61|35=0|49=UNXQW|56=NYFIXHUB|34=30|52=20051222-13:17:00|57=MILL|10=021|
63 05/12/22 08:17:30:032 Sent FIX Message
Message dump: 
8=FIX.4.0|9=0062|35=0|49=NYFIXHUB|56=UNXQW|57=ADMIN|34=32|52=20051222-13:17:30|10=182|
64 05/12/22 08:17:30:619 Received FIX message
Message dump: 
8=FIX.4.0|9=61|35=0|49=UNXQW|56=NYFIXHUB|34=31|52=20051222-13:17:30|57=MILL|10=025|
65 05/12/22 08:18:00:066 Sent FIX Message
Message dump: 
8=FIX.4.0|9=0062|35=0|49=NYFIXHUB|56=UNXQW|57=ADMIN|34=33|52=20051222-13:18:00|10=181|
66 05/12/22 08:18:00:618 Received FIX message
Message dump: 
8=FIX.4.0|9=61|35=0|49=UNXQW|56=NYFIXHUB|34=32|52=20051222-13:18:00|57=MILL|10=024|
67 05/12/22 08:18:30:072 Sent FIX Message
Message dump: 
8=FIX.4.0|9=0062|35=0|49=NYFIXHUB|56=UNXQW|57=ADMIN|34=34|52=20051222-13:18:30|10=185|
68 05/12/22 08:18:30:618 Received FIX message
Message dump: 
8=FIX.4.0|9=61|35=0|49=UNXQW|56=NYFIXHUB|34=33|52=20051222-13:18:30|57=MILL|10=028|
69 05/12/22 08:19:00:014 Sent FIX Message
Message dump: 
8=FIX.4.0|9=0062|35=0|49=NYFIXHUB|56=UNXQW|57=ADMIN|34=35|52=20051222-13:19:00|10=184|
70 05/12/22 08:19:00:618 Received FIX message
Message dump: 
8=FIX.4.0|9=61|35=0|49=UNXQW|56=NYFIXHUB|34=34|52=20051222-13:19:00|57=MILL|10=027|
71 05/12/22 08:19:30:043 Sent FIX Message
Message dump: 
8=FIX.4.0|9=0062|35=0|49=NYFIXHUB|56=UNXQW|57=ADMIN|34=36|52=20051222-13:19:30|10=188|
72 05/12/22 08:19:30:618 Received FIX message
Message dump: 
8=FIX.4.0|9=61|35=0|49=UNXQW|56=NYFIXHUB|34=35|52=20051222-13:19:30|57=MILL|10=031|
73 05/12/22 08:20:00:112 Sent FIX Message
Message dump: 
8=FIX.4.0|9=0062|35=0|49=NYFIXHUB|56=UNXQW|57=ADMIN|34=37|52=20051222-13:20:00|10=178|
74 05/12/22 08:20:00:616 Received FIX message
Message dump: 
8=FIX.4.0|9=61|35=0|49=UNXQW|56=NYFIXHUB|34=36|52=20051222-13:20:00|57=MILL|10=021|
75 05/12/22 08:20:30:040 Sent FIX Message
Message dump: 
8=FIX.4.0|9=0062|35=0|49=NYFIXHUB|56=UNXQW|57=ADMIN|34=38|52=20051222-13:20:30|10=182|
76 05/12/22 08:20:30:616 Received FIX message
Message dump: 
8=FIX.4.0|9=61|35=0|49=UNXQW|56=NYFIXHUB|34=37|52=20051222-13:20:30|57=MILL|10=025|
77 05/12/22 08:21:00:072 Sent FIX Message
Message dump: 
8=FIX.4.0|9=0062|35=0|49=NYFIXHUB|56=UNXQW|57=ADMIN|34=39|52=20051222-13:21:00|10=181|
78 05/12/22 08:21:00:615 Received FIX message
Message dump: 
8=FIX.4.0|9=61|35=0|49=UNXQW|56=NYFIXHUB|34=38|52=20051222-13:21:00|57=MILL|10=024|
79 05/12/22 08:21:30:024 Sent FIX Message
Message dump: 
8=FIX.4.0|9=0062|35=0|49=NYFIXHUB|56=UNXQW|57=ADMIN|34=40|52=20051222-13:21:30|10=176|
80 05/12/22 08:21:30:615 Received FIX message
Message dump: 
8=FIX.4.0|9=61|35=0|49=UNXQW|56=NYFIXHUB|34=39|52=20051222-13:21:30|57=MILL|10=028|
81 05/12/22 08:22:00:085 Sent FIX Message
Message dump: 
8=FIX.4.0|9=0062|35=0|49=NYFIXHUB|56=UNXQW|57=ADMIN|34=41|52=20051222-13:22:00|10=175|
82 05/12/22 08:22:00:615 Received FIX message
Message dump: 
8=FIX.4.0|9=61|35=0|49=UNXQW|56=NYFIXHUB|34=40|52=20051222-13:22:00|57=MILL|10=018|
83 05/12/22 08:22:30:033 Sent FIX Message
Message dump: 
8=FIX.4.0|9=0062|35=0|49=NYFIXHUB|56=UNXQW|57=ADMIN|34=42|52=20051222-13:22:30|10=179|
84 05/12/22 08:22:30:616 Received FIX message
Message dump: 
8=FIX.4.0|9=61|35=0|49=UNXQW|56=NYFIXHUB|34=41|52=20051222-13:22:30|57=MILL|10=022|
85 05/12/22 08:23:00:097 Sent FIX Message
Message dump: 
8=FIX.4.0|9=0062|35=0|49=NYFIXHUB|56=UNXQW|57=ADMIN|34=43|52=20051222-13:23:00|10=178|
86 05/12/22 08:23:00:622 Received FIX message
Message dump: 
8=FIX.4.0|9=61|35=0|49=UNXQW|56=NYFIXHUB|34=42|52=20051222-13:23:00|57=MILL|10=021|
87 05/12/22 08:23:30:105 Sent FIX Message
Message dump: 
8=FIX.4.0|9=0062|35=0|49=NYFIXHUB|56=UNXQW|57=ADMIN|34=44|52=20051222-13:23:30|10=182|
88 05/12/22 08:23:30:613 Received FIX message
Message dump: 
8=FIX.4.0|9=61|35=0|49=UNXQW|56=NYFIXHUB|34=43|52=20051222-13:23:30|57=MILL|10=025|
89 05/12/22 08:24:00:020 Sent FIX Message
Message dump: 
8=FIX.4.0|9=0062|35=0|49=NYFIXHUB|56=UNXQW|57=ADMIN|34=45|52=20051222-13:24:00|10=181|
90 05/12/22 08:24:00:613 Received FIX message
Message dump: 
8=FIX.4.0|9=61|35=0|49=UNXQW|56=NYFIXHUB|34=44|52=20051222-13:24:00|57=MILL|10=024|
91 05/12/22 08:24:30:074 Sent FIX Message
Message dump: 
8=FIX.4.0|9=0062|35=0|49=NYFIXHUB|56=UNXQW|57=ADMIN|34=46|52=20051222-13:24:30|10=185|
92 05/12/22 08:24:30:611 Received FIX message
Message dump: 
8=FIX.4.0|9=61|35=0|49=UNXQW|56=NYFIXHUB|34=45|52=20051222-13:24:30|57=MILL|10=028|
93 05/12/22 08:25:00:107 Sent FIX Message
Message dump: 
8=FIX.4.0|9=0062|35=0|49=NYFIXHUB|56=UNXQW|57=ADMIN|34=47|52=20051222-13:25:00|10=184|
94 05/12/22 08:25:00:612 Received FIX message
Message dump: 
8=FIX.4.0|9=61|35=0|49=UNXQW|56=NYFIXHUB|34=46|52=20051222-13:25:00|57=MILL|10=027|
95 05/12/22 08:25:30:048 Sent FIX Message
Message dump: 
8=FIX.4.0|9=0062|35=0|49=NYFIXHUB|56=UNXQW|57=ADMIN|34=48|52=20051222-13:25:30|10=188|
96 05/12/22 08:25:30:612 Received FIX message
Message dump: 
8=FIX.4.0|9=61|35=0|49=UNXQW|56=NYFIXHUB|34=47|52=20051222-13:25:30|57=MILL|10=031|
97 05/12/22 08:26:00:045 Sent FIX Message
Message dump: 
8=FIX.4.0|9=0062|35=0|49=NYFIXHUB|56=UNXQW|57=ADMIN|34=49|52=20051222-13:26:00|10=187|
98 05/12/22 08:26:00:610 Received FIX message
Message dump: 
8=FIX.4.0|9=61|35=0|49=UNXQW|56=NYFIXHUB|34=48|52=20051222-13:26:00|57=MILL|10=030|
99 05/12/22 08:26:30:032 Sent FIX Message
Message dump: 
8=FIX.4.0|9=0062|35=0|49=NYFIXHUB|56=UNXQW|57=ADMIN|34=50|52=20051222-13:26:30|10=182|
100 05/12/22 08:26:30:609 Received FIX message
Message dump: 
8=FIX.4.0|9=61|35=0|49=UNXQW|56=NYFIXHUB|34=49|52=20051222-13:26:30|57=MILL|10=034|
101 05/12/22 08:27:00:064 Sent FIX Message
Message dump: 
8=FIX.4.0|9=0062|35=0|49=NYFIXHUB|56=UNXQW|57=ADMIN|34=51|52=20051222-13:27:00|10=181|
102 05/12/22 08:27:00:609 Received FIX message
Message dump: 
8=FIX.4.0|9=61|35=0|49=UNXQW|56=NYFIXHUB|34=50|52=20051222-13:27:00|57=MILL|10=024|
103 05/12/22 08:27:30:014 Sent FIX Message
Message dump: 
8=FIX.4.0|9=0062|35=0|49=NYFIXHUB|56=UNXQW|57=ADMIN|34=52|52=20051222-13:27:30|10=185|
104 05/12/22 08:27:30:609 Received FIX message
Message dump: 
8=FIX.4.0|9=61|35=0|49=UNXQW|56=NYFIXHUB|34=51|52=20051222-13:27:30|57=MILL|10=028|
105 05/12/22 08:28:00:055 Sent FIX Message
Message dump: 
8=FIX.4.0|9=0062|35=0|49=NYFIXHUB|56=UNXQW|57=ADMIN|34=53|52=20051222-13:28:00|10=184|
106 05/12/22 08:28:00:608 Received FIX message
Message dump: 
8=FIX.4.0|9=61|35=0|49=UNXQW|56=NYFIXHUB|34=52|52=20051222-13:28:00|57=MILL|10=027|
107 05/12/22 08:28:30:077 Sent FIX Message
Message dump: 
8=FIX.4.0|9=0062|35=0|49=NYFIXHUB|56=UNXQW|57=ADMIN|34=54|52=20051222-13:28:30|10=188|
108 05/12/22 08:28:30:607 Received FIX message
Message dump: 
8=FIX.4.0|9=61|35=0|49=UNXQW|56=NYFIXHUB|34=53|52=20051222-13:28:30|57=MILL|10=031|
109 05/12/22 08:29:00:042 Sent FIX Message
Message dump: 
8=FIX.4.0|9=0062|35=0|49=NYFIXHUB|56=UNXQW|57=ADMIN|34=55|52=20051222-13:29:00|10=187|
110 05/12/22 08:29:00:607 Received FIX message
Message dump: 
8=FIX.4.0|9=61|35=0|49=UNXQW|56=NYFIXHUB|34=54|52=20051222-13:29:00|57=MILL|10=030|
111 05/12/22 08:29:30:060 Sent FIX Message
Message dump: 
8=FIX.4.0|9=0062|35=0|49=NYFIXHUB|56=UNXQW|57=ADMIN|34=56|52=20051222-13:29:30|10=191|
112 05/12/22 08:29:30:607 Received FIX message
Message dump: 
8=FIX.4.0|9=61|35=0|49=UNXQW|56=NYFIXHUB|34=55|52=20051222-13:29:30|57=MILL|10=034|
113 05/12/22 08:30:00:117 Sent FIX Message
Message dump: 
8=FIX.4.0|9=0062|35=0|49=NYFIXHUB|56=UNXQW|57=ADMIN|34=57|52=20051222-13:30:00|10=181|
114 05/12/22 08:30:00:607 Received FIX message
Message dump: 
8=FIX.4.0|9=61|35=0|49=UNXQW|56=NYFIXHUB|34=56|52=20051222-13:30:00|57=MILL|10=024|
115 05/12/22 08:30:30:072 Sent FIX Message
Message dump: 
8=FIX.4.0|9=0062|35=0|49=NYFIXHUB|56=UNXQW|57=ADMIN|34=58|52=20051222-13:30:30|10=185|
116 05/12/22 08:30:30:605 Received FIX message
Message dump: 
8=FIX.4.0|9=61|35=0|49=UNXQW|56=NYFIXHUB|34=57|52=20051222-13:30:30|57=MILL|10=028|
117 05/12/22 08:31:00:056 Sent FIX Message
Message dump: 
8=FIX.4.0|9=0062|35=0|49=NYFIXHUB|56=UNXQW|57=ADMIN|34=59|52=20051222-13:31:00|10=184|
118 05/12/22 08:31:00:605 Received FIX message
Message dump: 
8=FIX.4.0|9=61|35=0|49=UNXQW|56=NYFIXHUB|34=58|52=20051222-13:31:00|57=MILL|10=027|
119 05/12/22 08:31:30:099 Sent FIX Message
Message dump: 
8=FIX.4.0|9=0062|35=0|49=NYFIXHUB|56=UNXQW|57=ADMIN|34=60|52=20051222-13:31:30|10=179|
120 05/12/22 08:31:30:605 Received FIX message
Message dump: 
8=FIX.4.0|9=61|35=0|49=UNXQW|56=NYFIXHUB|34=59|52=20051222-13:31:30|57=MILL|10=031|
121 05/12/22 08:32:00:090 Sent FIX Message
Message dump: 
8=FIX.4.0|9=0062|35=0|49=NYFIXHUB|56=UNXQW|57=ADMIN|34=61|52=20051222-13:32:00|10=178|
122 05/12/22 08:32:00:604 Received FIX message
Message dump: 
8=FIX.4.0|9=61|35=0|49=UNXQW|56=NYFIXHUB|34=60|52=20051222-13:32:00|57=MILL|10=021|
123 05/12/22 08:32:30:057 Sent FIX Message
Message dump: 
8=FIX.4.0|9=0062|35=0|49=NYFIXHUB|56=UNXQW|57=ADMIN|34=62|52=20051222-13:32:30|10=182|
124 05/12/22 08:32:30:604 Received FIX message
Message dump: 
8=FIX.4.0|9=61|35=0|49=UNXQW|56=NYFIXHUB|34=61|52=20051222-13:32:30|57=MILL|10=025|
125 05/12/22 08:33:00:033 Sent FIX Message
Message dump: 
8=FIX.4.0|9=0062|35=0|49=NYFIXHUB|56=UNXQW|57=ADMIN|34=63|52=20051222-13:33:00|10=181|
126 05/12/22 08:33:00:603 Received FIX message
Message dump: 
8=FIX.4.0|9=61|35=0|49=UNXQW|56=NYFIXHUB|34=62|52=20051222-13:33:00|57=MILL|10=024|
127 05/12/22 08:33:30:025 Sent FIX Message
Message dump: 
8=FIX.4.0|9=0062|35=0|49=NYFIXHUB|56=UNXQW|57=ADMIN|34=64|52=20051222-13:33:30|10=185|
128 05/12/22 08:33:30:603 Received FIX message
Message dump: 
8=FIX.4.0|9=61|35=0|49=UNXQW|56=NYFIXHUB|34=63|52=20051222-13:33:30|57=MILL|10=028|
129 05/12/22 08:34:00:106 Sent FIX Message
Message dump: 
8=FIX.4.0|9=0062|35=0|49=NYFIXHUB|56=UNXQW|57=ADMIN|34=65|52=20051222-13:34:00|10=184|
130 05/12/22 08:34:00:620 Received FIX message
Message dump: 
8=FIX.4.0|9=61|35=0|49=UNXQW|56=NYFIXHUB|34=64|52=20051222-13:34:00|57=MILL|10=027|
131 05/12/22 08:34:30:051 Sent FIX Message
Message dump: 
8=FIX.4.0|9=0062|35=0|49=NYFIXHUB|56=UNXQW|57=ADMIN|34=66|52=20051222-13:34:30|10=188|
132 05/12/22 08:34:30:601 Received FIX message
Message dump: 
8=FIX.4.0|9=61|35=0|49=UNXQW|56=NYFIXHUB|34=65|52=20051222-13:34:30|57=MILL|10=031|
133 05/12/22 08:35:00:038 Sent FIX Message
Message dump: 
8=FIX.4.0|9=0062|35=0|49=NYFIXHUB|56=UNXQW|57=ADMIN|34=67|52=20051222-13:35:00|10=187|
134 05/12/22 08:35:00:600 Received FIX message
Message dump: 
8=FIX.4.0|9=61|35=0|49=UNXQW|56=NYFIXHUB|34=66|52=20051222-13:35:00|57=MILL|10=030|
135 05/12/22 08:35:30:021 Sent FIX Message
Message dump: 
8=FIX.4.0|9=0062|35=0|49=NYFIXHUB|56=UNXQW|57=ADMIN|34=68|52=20051222-13:35:30|10=191|
136 05/12/22 08:35:30:601 Received FIX message
Message dump: 
8=FIX.4.0|9=61|35=0|49=UNXQW|56=NYFIXHUB|34=67|52=20051222-13:35:30|57=MILL|10=034|
137 05/12/22 08:36:00:067 Sent FIX Message
Message dump: 
8=FIX.4.0|9=0062|35=0|49=NYFIXHUB|56=UNXQW|57=ADMIN|34=69|52=20051222-13:36:00|10=190|
138 05/12/22 08:36:00:600 Received FIX message
Message dump: 
8=FIX.4.0|9=61|35=0|49=UNXQW|56=NYFIXHUB|34=68|52=20051222-13:36:00|57=MILL|10=033|
139 05/12/22 08:36:30:015 Sent FIX Message
Message dump: 
8=FIX.4.0|9=0062|35=0|49=NYFIXHUB|56=UNXQW|57=ADMIN|34=70|52=20051222-13:36:30|10=185|
140 05/12/22 08:36:30:599 Received FIX message
Message dump: 
8=FIX.4.0|9=61|35=0|49=UNXQW|56=NYFIXHUB|34=69|52=20051222-13:36:30|57=MILL|10=037|
141 05/12/22 08:37:00:057 Sent FIX Message
Message dump: 
8=FIX.4.0|9=0062|35=0|49=NYFIXHUB|56=UNXQW|57=ADMIN|34=71|52=20051222-13:37:00|10=184|
142 05/12/22 08:37:00:598 Received FIX message
Message dump: 
8=FIX.4.0|9=61|35=0|49=UNXQW|56=NYFIXHUB|34=70|52=20051222-13:37:00|57=MILL|10=027|
143 05/12/22 08:37:30:097 Sent FIX Message
Message dump: 
8=FIX.4.0|9=0062|35=0|49=NYFIXHUB|56=UNXQW|57=ADMIN|34=72|52=20051222-13:37:30|10=188|
144 05/12/22 08:37:30:598 Received FIX message
Message dump: 
8=FIX.4.0|9=61|35=0|49=UNXQW|56=NYFIXHUB|34=71|52=20051222-13:37:30|57=MILL|10=031|
145 05/12/22 08:38:00:057 Sent FIX Message
Message dump: 
8=FIX.4.0|9=0062|35=0|49=NYFIXHUB|56=UNXQW|57=ADMIN|34=73|52=20051222-13:38:00|10=187|
146 05/12/22 08:38:00:598 Received FIX message
Message dump: 
8=FIX.4.0|9=61|35=0|49=UNXQW|56=NYFIXHUB|34=72|52=20051222-13:38:00|57=MILL|10=030|
147 05/12/22 08:38:30:042 Sent FIX Message
Message dump: 
8=FIX.4.0|9=0062|35=0|49=NYFIXHUB|56=UNXQW|57=ADMIN|34=74|52=20051222-13:38:30|10=191|
148 05/12/22 08:38:30:597 Received FIX message
Message dump: 
8=FIX.4.0|9=61|35=0|49=UNXQW|56=NYFIXHUB|34=73|52=20051222-13:38:30|57=MILL|10=034|
149 05/12/22 08:39:00:038 Sent FIX Message
Message dump: 
8=FIX.4.0|9=0062|35=0|49=NYFIXHUB|56=UNXQW|57=ADMIN|34=75|52=20051222-13:39:00|10=190|
150 05/12/22 08:39:00:596 Received FIX message
Message dump: 
8=FIX.4.0|9=61|35=0|49=UNXQW|56=NYFIXHUB|34=74|52=20051222-13:39:00|57=MILL|10=033|
151 05/12/22 08:39:30:052 Sent FIX Message
Message dump: 
8=FIX.4.0|9=0062|35=0|49=NYFIXHUB|56=UNXQW|57=ADMIN|34=76|52=20051222-13:39:30|10=194|
152 05/12/22 08:39:30:596 Received FIX message
Message dump: 
8=FIX.4.0|9=61|35=0|49=UNXQW|56=NYFIXHUB|34=75|52=20051222-13:39:30|57=MILL|10=037|
153 05/12/22 08:40:00:095 Sent FIX Message
Message dump: 
8=FIX.4.0|9=0062|35=0|49=NYFIXHUB|56=UNXQW|57=ADMIN|34=77|52=20051222-13:40:00|10=184|
154 05/12/22 08:40:00:596 Received FIX message
Message dump: 
8=FIX.4.0|9=61|35=0|49=UNXQW|56=NYFIXHUB|34=76|52=20051222-13:40:00|57=MILL|10=027|
155 05/12/22 08:40:30:027 Sent FIX Message
Message dump: 
8=FIX.4.0|9=0062|35=0|49=NYFIXHUB|56=UNXQW|57=ADMIN|34=78|52=20051222-13:40:30|10=188|
156 05/12/22 08:40:30:595 Received FIX message
Message dump: 
8=FIX.4.0|9=61|35=0|49=UNXQW|56=NYFIXHUB|34=77|52=20051222-13:40:30|57=MILL|10=031|
157 05/12/22 08:41:00:029 Sent FIX Message
Message dump: 
8=FIX.4.0|9=0062|35=0|49=NYFIXHUB|56=UNXQW|57=ADMIN|34=79|52=20051222-13:41:00|10=187|
158 05/12/22 08:41:00:595 Received FIX message
Message dump: 
8=FIX.4.0|9=61|35=0|49=UNXQW|56=NYFIXHUB|34=78|52=20051222-13:41:00|57=MILL|10=030|
159 05/12/22 08:41:30:027 Sent FIX Message
Message dump: 
8=FIX.4.0|9=0062|35=0|49=NYFIXHUB|56=UNXQW|57=ADMIN|34=80|52=20051222-13:41:30|10=182|
160 05/12/22 08:41:30:594 Received FIX message
Message dump: 
8=FIX.4.0|9=61|35=0|49=UNXQW|56=NYFIXHUB|34=79|52=20051222-13:41:30|57=MILL|10=034|
161 05/12/22 08:42:00:062 Sent FIX Message
Message dump: 
8=FIX.4.0|9=0062|35=0|49=NYFIXHUB|56=UNXQW|57=ADMIN|34=81|52=20051222-13:42:00|10=181|
162 05/12/22 08:42:00:593 Received FIX message
Message dump: 
8=FIX.4.0|9=61|35=0|49=UNXQW|56=NYFIXHUB|34=80|52=20051222-13:42:00|57=MILL|10=024|
163 05/12/22 08:42:30:013 Sent FIX Message
Message dump: 
8=FIX.4.0|9=0062|35=0|49=NYFIXHUB|56=UNXQW|57=ADMIN|34=82|52=20051222-13:42:30|10=185|
164 05/12/22 08:42:30:593 Received FIX message
Message dump: 
8=FIX.4.0|9=61|35=0|49=UNXQW|56=NYFIXHUB|34=81|52=20051222-13:42:30|57=MILL|10=028|
165 05/12/22 08:43:00:018 Sent FIX Message
Message dump: 
8=FIX.4.0|9=0062|35=0|49=NYFIXHUB|56=UNXQW|57=ADMIN|34=83|52=20051222-13:43:00|10=184|
166 05/12/22 08:43:00:592 Received FIX message
Message dump: 
8=FIX.4.0|9=61|35=0|49=UNXQW|56=NYFIXHUB|34=82|52=20051222-13:43:00|57=MILL|10=027|
167 05/12/22 08:43:30:098 Sent FIX Message
Message dump: 
8=FIX.4.0|9=0062|35=0|49=NYFIXHUB|56=UNXQW|57=ADMIN|34=84|52=20051222-13:43:30|10=188|
168 05/12/22 08:43:30:592 Received FIX message
Message dump: 
8=FIX.4.0|9=61|35=0|49=UNXQW|56=NYFIXHUB|34=83|52=20051222-13:43:30|57=MILL|10=031|
169 05/12/22 08:44:00:039 Sent FIX Message
Message dump: 
8=FIX.4.0|9=0062|35=0|49=NYFIXHUB|56=UNXQW|57=ADMIN|34=85|52=20051222-13:44:00|10=187|
170 05/12/22 08:44:00:592 Received FIX message
Message dump: 
8=FIX.4.0|9=61|35=0|49=UNXQW|56=NYFIXHUB|34=84|52=20051222-13:44:00|57=MILL|10=030|
171 05/12/22 08:44:30:082 Sent FIX Message
Message dump: 
8=FIX.4.0|9=0062|35=0|49=NYFIXHUB|56=UNXQW|57=ADMIN|34=86|52=20051222-13:44:30|10=191|
172 05/12/22 08:44:30:597 Received FIX message
Message dump: 
8=FIX.4.0|9=61|35=0|49=UNXQW|56=NYFIXHUB|34=85|52=20051222-13:44:30|57=MILL|10=034|
173 05/12/22 08:45:00:146 Sent FIX Message
Message dump: 
8=FIX.4.0|9=0062|35=0|49=NYFIXHUB|56=UNXQW|57=ADMIN|34=87|52=20051222-13:45:00|10=190|
174 05/12/22 08:45:00:147 Received FIX message
Message dump: 
8=FIX.4.0|9=179|35=D|49=UNXQW|56=NYFIXHUB|34=86|52=20051222-13:45:00|57=MILL|50=UNXQW|129=DOT|128=CAPREGION|11=0F8BD2F00100002|21=3|55=UPS|54=1|38=2340|40=1|59=0|1=237002|107=~BUR-2|100=N|6110=Y|10=216|
175 05/12/22 08:45:00:300 Received FIX message
Message dump: 
8=FIX.4.0|9=179|35=D|49=UNXQW|56=NYFIXHUB|34=87|52=20051222-13:45:00|57=MILL|50=UNXQW|129=DOT|128=CAPREGION|11=0F8BD3100100003|21=3|55=EVN|54=2|38=2363|40=1|59=0|1=237008|107=~BUR-3|100=N|6110=Y|10=196|
176 05/12/22 08:45:00:323 Received FIX message
Message dump: 
8=FIX.4.0|9=177|35=D|49=UNXQW|56=NYFIXHUB|34=88|52=20051222-13:45:00|57=MILL|50=UNXQW|129=DOT|128=CAPREGION|11=0F8BF1F00100004|21=3|55=RSP|54=1|38=30|40=1|59=0|1=245801|107=~BUR-4|100=N|6110=Y|10=122|
177 05/12/22 08:45:00:323 Sent FIX Message
Message dump: 
8=FIX.4.0|9=0264|35=8|49=NYFIXHUB|56=UNXQW|50=OR3|57=UNXQW|34=88|52=20051222-13:45:00|115=CAPREGION|116=DOT|128=UNXQW|1=237002|6=0.00000|11=0F8BD2F00100002|14=0|17=190667321|31=0.00000|32=0|37=14772749|38=2340|39=0|40=1|54=1|55=UPS|59=0|60=20051222-13:45:00|63=0|107=~TG-1924|20=0|10=182|
178 05/12/22 08:45:00:524 Sent FIX Message
Message dump: 
8=FIX.4.0|9=0265|35=8|49=NYFIXHUB|56=UNXQW|50=OR27|57=UNXQW|34=89|52=20051222-13:45:00|115=CAPREGION|116=DOT|128=UNXQW|1=237008|6=0.00000|11=0F8BD3100100003|14=0|17=190667322|31=0.00000|32=0|37=14798663|38=2363|39=0|40=1|54=2|55=EVN|59=0|60=20051222-13:45:00|63=0|107=~TF-4481|20=0|10=220|
179 05/12/22 08:45:00:529 Sent FIX Message
Message dump: 
8=FIX.4.0|9=0263|35=8|49=NYFIXHUB|56=UNXQW|50=OR47|57=UNXQW|34=90|52=20051222-13:45:00|115=CAPREGION|116=DOT|128=UNXQW|1=245801|6=0.00000|11=0F8BF1F00100004|14=0|17=190667323|31=0.00000|32=0|37=14806451|38=30|39=0|40=1|54=1|55=RSP|59=0|60=20051222-13:45:00|63=0|107=~TG-4925|20=0|10=128|
180 05/12/22 08:45:00:931 Sent FIX Message
Message dump: 
8=FIX.4.0|9=0261|35=8|49=NYFIXHUB|56=UNXQW|50=OR47|57=UNXQW|34=91|52=20051222-13:45:00|115=CAPREGION|116=DOT|128=UNXQW|1=245801|6=0.00000|11=0F8BF1F00100004|14=0|17=190667324|31=0.00000|32=0|37=14806451|38=30|39=8|54=1|55=RSP|58=LINE 1A - 3  INCOMPATIBLE|63=0|107=~TG-4925|20=0|10=149|
181 05/12/22 08:45:30:043 Sent FIX Message
Message dump: 
8=FIX.4.0|9=0062|35=0|49=NYFIXHUB|56=UNXQW|57=ADMIN|34=92|52=20051222-13:45:30|10=189|
182 05/12/22 08:45:30:137 Received FIX message
Message dump: 
8=FIX.4.0|9=61|35=0|49=UNXQW|56=NYFIXHUB|34=89|52=20051222-13:45:30|57=MILL|10=039|
183 05/12/22 08:46:00:114 Sent FIX Message
Message dump: 
8=FIX.4.0|9=0062|35=0|49=NYFIXHUB|56=UNXQW|57=ADMIN|34=93|52=20051222-13:46:00|10=188|
184 05/12/22 08:46:00:147 Received FIX message
Message dump: 
8=FIX.4.0|9=61|35=0|49=UNXQW|56=NYFIXHUB|34=90|52=20051222-13:46:00|57=MILL|10=029|
185 05/12/22 08:46:30:015 Sent FIX Message
Message dump: 
8=FIX.4.0|9=0062|35=0|49=NYFIXHUB|56=UNXQW|57=ADMIN|34=94|52=20051222-13:46:30|10=192|
186 05/12/22 08:46:30:136 Received FIX message
Message dump: 
8=FIX.4.0|9=61|35=0|49=UNXQW|56=NYFIXHUB|34=91|52=20051222-13:46:30|57=MILL|10=033|
187 05/12/22 08:47:00:100 Sent FIX Message
Message dump: 
8=FIX.4.0|9=0062|35=0|49=NYFIXHUB|56=UNXQW|57=ADMIN|34=95|52=20051222-13:47:00|10=191|
188 05/12/22 08:47:00:135 Received FIX message
Message dump: 
8=FIX.4.0|9=61|35=0|49=UNXQW|56=NYFIXHUB|34=92|52=20051222-13:47:00|57=MILL|10=032|
189 05/12/22 08:47:30:033 Sent FIX Message
Message dump: 
8=FIX.4.0|9=0062|35=0|49=NYFIXHUB|56=UNXQW|57=ADMIN|34=96|52=20051222-13:47:30|10=195|
190 05/12/22 08:47:30:135 Received FIX message
Message dump: 
8=FIX.4.0|9=61|35=0|49=UNXQW|56=NYFIXHUB|34=93|52=20051222-13:47:30|57=MILL|10=036|
191 05/12/22 08:48:00:084 Sent FIX Message
Message dump: 
8=FIX.4.0|9=0062|35=0|49=NYFIXHUB|56=UNXQW|57=ADMIN|34=97|52=20051222-13:48:00|10=194|
192 05/12/22 08:48:00:134 Received FIX message
Message dump: 
8=FIX.4.0|9=61|35=0|49=UNXQW|56=NYFIXHUB|34=94|52=20051222-13:48:00|57=MILL|10=035|
193 05/12/22 08:48:30:013 Sent FIX Message
Message dump: 
8=FIX.4.0|9=0062|35=0|49=NYFIXHUB|56=UNXQW|57=ADMIN|34=98|52=20051222-13:48:30|10=198|
194 05/12/22 08:48:30:134 Received FIX message
Message dump: 
8=FIX.4.0|9=61|35=0|49=UNXQW|56=NYFIXHUB|34=95|52=20051222-13:48:30|57=MILL|10=039|
195 05/12/22 08:49:00:143 Sent FIX Message
Message dump: 
8=FIX.4.0|9=0062|35=0|49=NYFIXHUB|56=UNXQW|57=ADMIN|34=99|52=20051222-13:49:00|10=197|
196 05/12/22 08:49:00:143 Received FIX message
Message dump: 
8=FIX.4.0|9=61|35=0|49=UNXQW|56=NYFIXHUB|34=96|52=20051222-13:49:00|57=MILL|10=038|
197 05/12/22 08:49:30:107 Sent FIX Message
Message dump: 
8=FIX.4.0|9=0063|35=0|49=NYFIXHUB|56=UNXQW|57=ADMIN|34=100|52=20051222-13:49:30|10=232|
198 05/12/22 08:49:30:133 Received FIX message
Message dump: 
8=FIX.4.0|9=61|35=0|49=UNXQW|56=NYFIXHUB|34=97|52=20051222-13:49:30|57=MILL|10=042|
199 05/12/22 08:50:00:069 Sent FIX Message
Message dump: 
8=FIX.4.0|9=0063|35=0|49=NYFIXHUB|56=UNXQW|57=ADMIN|34=101|52=20051222-13:50:00|10=222|
200 05/12/22 08:50:00:133 Received FIX message
Message dump: 
8=FIX.4.0|9=61|35=0|49=UNXQW|56=NYFIXHUB|34=98|52=20051222-13:50:00|57=MILL|10=032|
201 05/12/22 08:50:30:084 Sent FIX Message
Message dump: 
8=FIX.4.0|9=0063|35=0|49=NYFIXHUB|56=UNXQW|57=ADMIN|34=102|52=20051222-13:50:30|10=226|
202 05/12/22 08:50:30:132 Received FIX message
Message dump: 
8=FIX.4.0|9=61|35=0|49=UNXQW|56=NYFIXHUB|34=99|52=20051222-13:50:30|57=MILL|10=036|
203 05/12/22 08:51:00:017 Sent FIX Message
Message dump: 
8=FIX.4.0|9=0063|35=0|49=NYFIXHUB|56=UNXQW|57=ADMIN|34=103|52=20051222-13:51:00|10=225|
204 05/12/22 08:51:00:132 Received FIX message
Message dump: 
8=FIX.4.0|9=62|35=0|49=UNXQW|56=NYFIXHUB|34=100|52=20051222-13:51:00|57=MILL|10=066|
205 05/12/22 08:51:30:062 Sent FIX Message
Message dump: 
8=FIX.4.0|9=0063|35=0|49=NYFIXHUB|56=UNXQW|57=ADMIN|34=104|52=20051222-13:51:30|10=229|
206 05/12/22 08:51:30:131 Received FIX message
Message dump: 
8=FIX.4.0|9=62|35=0|49=UNXQW|56=NYFIXHUB|34=101|52=20051222-13:51:30|57=MILL|10=070|
207 05/12/22 08:52:00:028 Sent FIX Message
Message dump: 
8=FIX.4.0|9=0063|35=0|49=NYFIXHUB|56=UNXQW|57=ADMIN|34=105|52=20051222-13:52:00|10=228|
208 05/12/22 08:52:00:131 Received FIX message
Message dump: 
8=FIX.4.0|9=62|35=0|49=UNXQW|56=NYFIXHUB|34=102|52=20051222-13:52:00|57=MILL|10=069|
209 05/12/22 08:52:30:051 Sent FIX Message
Message dump: 
8=FIX.4.0|9=0063|35=0|49=NYFIXHUB|56=UNXQW|57=ADMIN|34=106|52=20051222-13:52:30|10=232|
210 05/12/22 08:52:30:131 Received FIX message
Message dump: 
8=FIX.4.0|9=62|35=0|49=UNXQW|56=NYFIXHUB|34=103|52=20051222-13:52:30|57=MILL|10=073|
211 05/12/22 08:53:00:065 Sent FIX Message
Message dump: 
8=FIX.4.0|9=0063|35=0|49=NYFIXHUB|56=UNXQW|57=ADMIN|34=107|52=20051222-13:53:00|10=231|
212 05/12/22 08:53:00:129 Received FIX message
Message dump: 
8=FIX.4.0|9=62|35=0|49=UNXQW|56=NYFIXHUB|34=104|52=20051222-13:53:00|57=MILL|10=072|
213 05/12/22 08:53:30:093 Sent FIX Message
Message dump: 
8=FIX.4.0|9=0063|35=0|49=NYFIXHUB|56=UNXQW|57=ADMIN|34=108|52=20051222-13:53:30|10=235|
214 05/12/22 08:53:30:134 Received FIX message
Message dump: 
8=FIX.4.0|9=62|35=0|49=UNXQW|56=NYFIXHUB|34=105|52=20051222-13:53:30|57=MILL|10=076|
215 05/12/22 08:54:00:049 Sent FIX Message
Message dump: 
8=FIX.4.0|9=0063|35=0|49=NYFIXHUB|56=UNXQW|57=ADMIN|34=109|52=20051222-13:54:00|10=234|
216 05/12/22 08:54:00:128 Received FIX message
Message dump: 
8=FIX.4.0|9=62|35=0|49=UNXQW|56=NYFIXHUB|34=106|52=20051222-13:54:00|57=MILL|10=075|
217 05/12/22 08:54:30:090 Sent FIX Message
Message dump: 
8=FIX.4.0|9=0063|35=0|49=NYFIXHUB|56=UNXQW|57=ADMIN|34=110|52=20051222-13:54:30|10=229|
218 05/12/22 08:54:30:147 Received FIX message
Message dump: 
8=FIX.4.0|9=62|35=0|49=UNXQW|56=NYFIXHUB|34=107|52=20051222-13:54:30|57=MILL|10=079|
219 05/12/22 08:55:00:026 Sent FIX Message
Message dump: 
8=FIX.4.0|9=0063|35=0|49=NYFIXHUB|56=UNXQW|57=ADMIN|34=111|52=20051222-13:55:00|10=228|
220 05/12/22 08:55:00:128 Received FIX message
Message dump: 
8=FIX.4.0|9=62|35=0|49=UNXQW|56=NYFIXHUB|34=108|52=20051222-13:55:00|57=MILL|10=078|
221 05/12/22 08:55:30:062 Sent FIX Message
Message dump: 
8=FIX.4.0|9=0063|35=0|49=NYFIXHUB|56=UNXQW|57=ADMIN|34=112|52=20051222-13:55:30|10=232|
222 05/12/22 08:55:30:127 Received FIX message
Message dump: 
8=FIX.4.0|9=62|35=0|49=UNXQW|56=NYFIXHUB|34=109|52=20051222-13:55:30|57=MILL|10=082|
223 05/12/22 08:56:00:106 Sent FIX Message
Message dump: 
8=FIX.4.0|9=0063|35=0|49=NYFIXHUB|56=UNXQW|57=ADMIN|34=113|52=20051222-13:56:00|10=231|
224 05/12/22 08:56:00:126 Received FIX message
Message dump: 
8=FIX.4.0|9=62|35=0|49=UNXQW|56=NYFIXHUB|34=110|52=20051222-13:56:00|57=MILL|10=072|
225 05/12/22 08:56:30:045 Sent FIX Message
Message dump: 
8=FIX.4.0|9=0063|35=0|49=NYFIXHUB|56=UNXQW|57=ADMIN|34=114|52=20051222-13:56:30|10=235|
226 05/12/22 08:56:30:126 Received FIX message
Message dump: 
8=FIX.4.0|9=62|35=0|49=UNXQW|56=NYFIXHUB|34=111|52=20051222-13:56:30|57=MILL|10=076|
227 05/12/22 08:57:00:104 Sent FIX Message
Message dump: 
8=FIX.4.0|9=0063|35=0|49=NYFIXHUB|56=UNXQW|57=ADMIN|34=115|52=20051222-13:57:00|10=234|
228 05/12/22 08:57:00:126 Received FIX message
Message dump: 
8=FIX.4.0|9=62|35=0|49=UNXQW|56=NYFIXHUB|34=112|52=20051222-13:57:00|57=MILL|10=075|
229 05/12/22 08:57:30:038 Sent FIX Message
Message dump: 
8=FIX.4.0|9=0063|35=0|49=NYFIXHUB|56=UNXQW|57=ADMIN|34=116|52=20051222-13:57:30|10=238|
230 05/12/22 08:57:30:125 Received FIX message
Message dump: 
8=FIX.4.0|9=62|35=0|49=UNXQW|56=NYFIXHUB|34=113|52=20051222-13:57:30|57=MILL|10=079|
231 05/12/22 08:58:00:081 Sent FIX Message
Message dump: 
8=FIX.4.0|9=0063|35=0|49=NYFIXHUB|56=UNXQW|57=ADMIN|34=117|52=20051222-13:58:00|10=237|
232 05/12/22 08:58:00:125 Received FIX message
Message dump: 
8=FIX.4.0|9=62|35=0|49=UNXQW|56=NYFIXHUB|34=114|52=20051222-13:58:00|57=MILL|10=078|
233 05/12/22 08:58:30:016 Sent FIX Message
Message dump: 
8=FIX.4.0|9=0063|35=0|49=NYFIXHUB|56=UNXQW|57=ADMIN|34=118|52=20051222-13:58:30|10=241|
234 05/12/22 08:58:30:124 Received FIX message
Message dump: 
8=FIX.4.0|9=62|35=0|49=UNXQW|56=NYFIXHUB|34=115|52=20051222-13:58:30|57=MILL|10=082|
235 05/12/22 08:59:00:066 Sent FIX Message
Message dump: 
8=FIX.4.0|9=0063|35=0|49=NYFIXHUB|56=UNXQW|57=ADMIN|34=119|52=20051222-13:59:00|10=240|
236 05/12/22 08:59:00:123 Received FIX message
Message dump: 
8=FIX.4.0|9=62|35=0|49=UNXQW|56=NYFIXHUB|34=116|52=20051222-13:59:00|57=MILL|10=081|
237 05/12/22 08:59:30:097 Sent FIX Message
Message dump: 
8=FIX.4.0|9=0063|35=0|49=NYFIXHUB|56=UNXQW|57=ADMIN|34=120|52=20051222-13:59:30|10=235|
238 05/12/22 08:59:30:123 Received FIX message
Message dump: 
8=FIX.4.0|9=62|35=0|49=UNXQW|56=NYFIXHUB|34=117|52=20051222-13:59:30|57=MILL|10=085|
239 05/12/22 09:00:00:031 Sent FIX Message
Message dump: 
8=FIX.4.0|9=0063|35=0|49=NYFIXHUB|56=UNXQW|57=ADMIN|34=121|52=20051222-14:00:00|10=220|
240 05/12/22 09:00:00:122 Received FIX message
Message dump: 
8=FIX.4.0|9=62|35=0|49=UNXQW|56=NYFIXHUB|34=118|52=20051222-14:00:00|57=MILL|10=070|
241 05/12/22 09:00:06:479 Received FIX message
Message dump: 
8=FIX.4.0|9=196|35=D|49=UNXQW|56=NYFIXHUB|34=119|52=20051222-14:00:06|57=MILL|50=UNXQW2|129=DOT2|128=CAPREGION|11=0F8C1D500100005|21=3|55=CAT|54=2|38=8160|40=2|44=57.0000|1=306047|111=500|107=~BUR-5|100=N|6110=Y|10=211|
242 05/12/22 09:00:06:677 Sent FIX Message
Message dump: 
8=FIX.4.0|9=0281|35=8|49=NYFIXHUB|56=UNXQW|50=OR34|57=UNXQW2|34=122|52=20051222-14:00:06|115=CAPREGION|116=DOT2|128=UNXQW2|1=306047|6=0.00000|11=0F8C1D500100005|14=0|17=190667396|31=0.00000|32=0|37=14822144|38=8160|39=0|40=2|44=57.00000|54=2|55=CAT|59=0|60=20051222-14:00:06|63=0|107=~TG-5819|20=0|10=180|
243 05/12/22 09:00:36:030 Sent FIX Message
Message dump: 
8=FIX.4.0|9=0063|35=0|49=NYFIXHUB|56=UNXQW|57=ADMIN|34=123|52=20051222-14:00:36|10=231|
244 05/12/22 09:00:36:450 Received FIX message
Message dump: 
8=FIX.4.0|9=62|35=0|49=UNXQW|56=NYFIXHUB|34=120|52=20051222-14:00:36|57=MILL|10=072|
245 05/12/22 09:01:06:015 Sent FIX Message
Message dump: 
8=FIX.4.0|9=0063|35=0|49=NYFIXHUB|56=UNXQW|57=ADMIN|34=124|52=20051222-14:01:06|10=230|
246 05/12/22 09:01:06:449 Received FIX message
Message dump: 
8=FIX.4.0|9=62|35=0|49=UNXQW|56=NYFIXHUB|34=121|52=20051222-14:01:06|57=MILL|10=071|
247 05/12/22 09:01:36:055 Sent FIX Message
Message dump: 
8=FIX.4.0|9=0063|35=0|49=NYFIXHUB|56=UNXQW|57=ADMIN|34=125|52=20051222-14:01:36|10=234|
248 05/12/22 09:01:36:449 Received FIX message
Message dump: 
8=FIX.4.0|9=62|35=0|49=UNXQW|56=NYFIXHUB|34=122|52=20051222-14:01:36|57=MILL|10=075|
249 05/12/22 09:02:06:015 Sent FIX Message
Message dump: 
8=FIX.4.0|9=0063|35=0|49=NYFIXHUB|56=UNXQW|57=ADMIN|34=126|52=20051222-14:02:06|10=233|
250 05/12/22 09:02:06:449 Received FIX message
Message dump: 
8=FIX.4.0|9=62|35=0|49=UNXQW|56=NYFIXHUB|34=123|52=20051222-14:02:06|57=MILL|10=074|
251 05/12/22 09:02:36:020 Sent FIX Message
Message dump: 
8=FIX.4.0|9=0063|35=0|49=NYFIXHUB|56=UNXQW|57=ADMIN|34=127|52=20051222-14:02:36|10=237|
252 05/12/22 09:02:36:447 Received FIX message
Message dump: 
8=FIX.4.0|9=62|35=0|49=UNXQW|56=NYFIXHUB|34=124|52=20051222-14:02:36|57=MILL|10=078|
253 05/12/22 09:03:06:042 Sent FIX Message
Message dump: 
8=FIX.4.0|9=0063|35=0|49=NYFIXHUB|56=UNXQW|57=ADMIN|34=128|52=20051222-14:03:06|10=236|
254 05/12/22 09:03:06:447 Received FIX message
Message dump: 
8=FIX.4.0|9=62|35=0|49=UNXQW|56=NYFIXHUB|34=125|52=20051222-14:03:06|57=MILL|10=077|
255 05/12/22 09:03:36:079 Sent FIX Message
Message dump: 
8=FIX.4.0|9=0063|35=0|49=NYFIXHUB|56=UNXQW|57=ADMIN|34=129|52=20051222-14:03:36|10=240|
256 05/12/22 09:03:36:452 Received FIX message
Message dump: 
8=FIX.4.0|9=62|35=0|49=UNXQW|56=NYFIXHUB|34=126|52=20051222-14:03:36|57=MILL|10=081|
257 05/12/22 09:04:06:007 Sent FIX Message
Message dump: 
8=FIX.4.0|9=0063|35=0|49=NYFIXHUB|56=UNXQW|57=ADMIN|34=130|52=20051222-14:04:06|10=230|
258 05/12/22 09:04:06:446 Received FIX message
Message dump: 
8=FIX.4.0|9=62|35=0|49=UNXQW|56=NYFIXHUB|34=127|52=20051222-14:04:06|57=MILL|10=080|
259 05/12/22 09:04:36:051 Sent FIX Message
Message dump: 
8=FIX.4.0|9=0063|35=0|49=NYFIXHUB|56=UNXQW|57=ADMIN|34=131|52=20051222-14:04:36|10=234|
260 05/12/22 09:04:36:446 Received FIX message
Message dump: 
8=FIX.4.0|9=62|35=0|49=UNXQW|56=NYFIXHUB|34=128|52=20051222-14:04:36|57=MILL|10=084|
261 05/12/22 09:04:38:272 Received FIX message
Message dump: 
8=FIX.4.0|9=196|35=D|49=UNXQW|56=NYFIXHUB|34=129|52=20051222-14:04:38|57=MILL|50=UNXQW2|129=DOT2|128=CAPREGION|11=0F8C20700100006|21=3|55=FNM|54=1|38=4550|40=2|44=48.0000|1=306047|111=500|107=~BUR-6|100=N|6110=Y|10=213|
262 05/12/22 09:04:38:476 Sent FIX Message
Message dump: 
8=FIX.4.0|9=0281|35=8|49=NYFIXHUB|56=UNXQW|50=OR33|57=UNXQW2|34=132|52=20051222-14:04:38|115=CAPREGION|116=DOT2|128=UNXQW2|1=306047|6=0.00000|11=0F8C20700100006|14=0|17=190667415|31=0.00000|32=0|37=14826521|38=4550|39=0|40=2|44=48.00000|54=1|55=FNM|59=0|60=20051222-14:04:38|63=0|107=~TG-3661|20=0|10=177|
263 05/12/22 09:05:08:087 Sent FIX Message
Message dump: 
8=FIX.4.0|9=0063|35=0|49=NYFIXHUB|56=UNXQW|57=ADMIN|34=133|52=20051222-14:05:08|10=236|
264 05/12/22 09:05:08:226 Received FIX message
Message dump: 
8=FIX.4.0|9=62|35=0|49=UNXQW|56=NYFIXHUB|34=130|52=20051222-14:05:08|57=MILL|10=077|
265 05/12/22 09:05:38:084 Sent FIX Message
Message dump: 
8=FIX.4.0|9=0063|35=0|49=NYFIXHUB|56=UNXQW|57=ADMIN|34=134|52=20051222-14:05:38|10=240|
266 05/12/22 09:05:38:236 Received FIX message
Message dump: 
8=FIX.4.0|9=62|35=0|49=UNXQW|56=NYFIXHUB|34=131|52=20051222-14:05:38|57=MILL|10=081|
267 05/12/22 09:06:08:052 Sent FIX Message
Message dump: 
8=FIX.4.0|9=0063|35=0|49=NYFIXHUB|56=UNXQW|57=ADMIN|34=135|52=20051222-14:06:08|10=239|
268 05/12/22 09:06:08:225 Received FIX message
Message dump: 
8=FIX.4.0|9=62|35=0|49=UNXQW|56=NYFIXHUB|34=132|52=20051222-14:06:08|57=MILL|10=080|
269 05/12/22 09:06:38:013 Sent FIX Message
Message dump: 
8=FIX.4.0|9=0063|35=0|49=NYFIXHUB|56=UNXQW|57=ADMIN|34=136|52=20051222-14:06:38|10=243|
270 05/12/22 09:06:38:225 Received FIX message
Message dump: 
8=FIX.4.0|9=62|35=0|49=UNXQW|56=NYFIXHUB|34=133|52=20051222-14:06:38|57=MILL|10=084|
271 05/12/22 09:07:08:063 Sent FIX Message
Message dump: 
8=FIX.4.0|9=0063|35=0|49=NYFIXHUB|56=UNXQW|57=ADMIN|34=137|52=20051222-14:07:08|10=242|
272 05/12/22 09:07:08:224 Received FIX message
Message dump: 
8=FIX.4.0|9=62|35=0|49=UNXQW|56=NYFIXHUB|34=134|52=20051222-14:07:08|57=MILL|10=083|
273 05/12/22 09:07:38:103 Sent FIX Message
Message dump: 
8=FIX.4.0|9=0063|35=0|49=NYFIXHUB|56=UNXQW|57=ADMIN|34=138|52=20051222-14:07:38|10=246|
274 05/12/22 09:07:38:235 Received FIX message
Message dump: 
8=FIX.4.0|9=62|35=0|49=UNXQW|56=NYFIXHUB|34=135|52=20051222-14:07:38|57=MILL|10=087|
275 05/12/22 09:08:08:049 Sent FIX Message
Message dump: 
8=FIX.4.0|9=0063|35=0|49=NYFIXHUB|56=UNXQW|57=ADMIN|34=139|52=20051222-14:08:08|10=245|
276 05/12/22 09:08:08:224 Received FIX message
Message dump: 
8=FIX.4.0|9=62|35=0|49=UNXQW|56=NYFIXHUB|34=136|52=20051222-14:08:08|57=MILL|10=086|
277 05/12/22 09:08:38:080 Sent FIX Message
Message dump: 
8=FIX.4.0|9=0063|35=0|49=NYFIXHUB|56=UNXQW|57=ADMIN|34=140|52=20051222-14:08:38|10=240|
278 05/12/22 09:08:38:230 Received FIX message
Message dump: 
8=FIX.4.0|9=62|35=0|49=UNXQW|56=NYFIXHUB|34=137|52=20051222-14:08:38|57=MILL|10=090|
279 05/12/22 09:09:08:029 Sent FIX Message
Message dump: 
8=FIX.4.0|9=0063|35=0|49=NYFIXHUB|56=UNXQW|57=ADMIN|34=141|52=20051222-14:09:08|10=239|
280 05/12/22 09:09:08:222 Received FIX message
Message dump: 
8=FIX.4.0|9=62|35=0|49=UNXQW|56=NYFIXHUB|34=138|52=20051222-14:09:08|57=MILL|10=089|
281 05/12/22 09:09:38:067 Sent FIX Message
Message dump: 
8=FIX.4.0|9=0063|35=0|49=NYFIXHUB|56=UNXQW|57=ADMIN|34=142|52=20051222-14:09:38|10=243|
282 05/12/22 09:09:38:222 Received FIX message
Message dump: 
8=FIX.4.0|9=62|35=0|49=UNXQW|56=NYFIXHUB|34=139|52=20051222-14:09:38|57=MILL|10=093|
283 05/12/22 09:10:08:107 Sent FIX Message
Message dump: 
8=FIX.4.0|9=0063|35=0|49=NYFIXHUB|56=UNXQW|57=ADMIN|34=143|52=20051222-14:10:08|10=233|
284 05/12/22 09:10:08:221 Received FIX message
Message dump: 
8=FIX.4.0|9=62|35=0|49=UNXQW|56=NYFIXHUB|34=140|52=20051222-14:10:08|57=MILL|10=074|
285 05/12/22 09:10:38:045 Sent FIX Message
Message dump: 
8=FIX.4.0|9=0063|35=0|49=NYFIXHUB|56=UNXQW|57=ADMIN|34=144|52=20051222-14:10:38|10=237|
286 05/12/22 09:10:38:283 Received FIX message
Message dump: 
8=FIX.4.0|9=62|35=0|49=UNXQW|56=NYFIXHUB|34=141|52=20051222-14:10:38|57=MILL|10=078|
287 05/12/22 09:11:08:101 Sent FIX Message
Message dump: 
8=FIX.4.0|9=0063|35=0|49=NYFIXHUB|56=UNXQW|57=ADMIN|34=145|52=20051222-14:11:08|10=236|
288 05/12/22 09:11:08:221 Received FIX message
Message dump: 
8=FIX.4.0|9=62|35=0|49=UNXQW|56=NYFIXHUB|34=142|52=20051222-14:11:08|57=MILL|10=077|
289 05/12/22 09:11:38:058 Sent FIX Message
Message dump: 
8=FIX.4.0|9=0063|35=0|49=NYFIXHUB|56=UNXQW|57=ADMIN|34=146|52=20051222-14:11:38|10=240|
290 05/12/22 09:11:38:220 Received FIX message
Message dump: 
8=FIX.4.0|9=62|35=0|49=UNXQW|56=NYFIXHUB|34=143|52=20051222-14:11:38|57=MILL|10=081|
291 05/12/22 09:12:08:010 Sent FIX Message
Message dump: 
8=FIX.4.0|9=0063|35=0|49=NYFIXHUB|56=UNXQW|57=ADMIN|34=147|52=20051222-14:12:08|10=239|
292 05/12/22 09:12:08:219 Received FIX message
Message dump: 
8=FIX.4.0|9=62|35=0|49=UNXQW|56=NYFIXHUB|34=144|52=20051222-14:12:08|57=MILL|10=080|
293 05/12/22 09:12:38:047 Sent FIX Message
Message dump: 
8=FIX.4.0|9=0063|35=0|49=NYFIXHUB|56=UNXQW|57=ADMIN|34=148|52=20051222-14:12:38|10=243|
294 05/12/22 09:12:38:223 Received FIX message
Message dump: 
8=FIX.4.0|9=62|35=0|49=UNXQW|56=NYFIXHUB|34=145|52=20051222-14:12:38|57=MILL|10=084|
295 05/12/22 09:13:08:047 Sent FIX Message
Message dump: 
8=FIX.4.0|9=0063|35=0|49=NYFIXHUB|56=UNXQW|57=ADMIN|34=149|52=20051222-14:13:08|10=242|
296 05/12/22 09:13:08:218 Received FIX message
Message dump: 
8=FIX.4.0|9=62|35=0|49=UNXQW|56=NYFIXHUB|34=146|52=20051222-14:13:08|57=MILL|10=083|
297 05/12/22 09:13:38:028 Sent FIX Message
Message dump: 
8=FIX.4.0|9=0063|35=0|49=NYFIXHUB|56=UNXQW|57=ADMIN|34=150|52=20051222-14:13:38|10=237|
298 05/12/22 09:13:38:218 Received FIX message
Message dump: 
8=FIX.4.0|9=62|35=0|49=UNXQW|56=NYFIXHUB|34=147|52=20051222-14:13:38|57=MILL|10=087|
299 05/12/22 09:14:08:081 Sent FIX Message
Message dump: 
8=FIX.4.0|9=0063|35=0|49=NYFIXHUB|56=UNXQW|57=ADMIN|34=151|52=20051222-14:14:08|10=236|
300 05/12/22 09:14:08:218 Received FIX message
Message dump: 
8=FIX.4.0|9=62|35=0|49=UNXQW|56=NYFIXHUB|34=148|52=20051222-14:14:08|57=MILL|10=086|
301 05/12/22 09:14:38:081 Sent FIX Message
Message dump: 
8=FIX.4.0|9=0063|35=0|49=NYFIXHUB|56=UNXQW|57=ADMIN|34=152|52=20051222-14:14:38|10=240|
302 05/12/22 09:14:38:217 Received FIX message
Message dump: 
8=FIX.4.0|9=62|35=0|49=UNXQW|56=NYFIXHUB|34=149|52=20051222-14:14:38|57=MILL|10=090|
303 05/12/22 09:15:08:050 Sent FIX Message
Message dump: 
8=FIX.4.0|9=0063|35=0|49=NYFIXHUB|56=UNXQW|57=ADMIN|34=153|52=20051222-14:15:08|10=239|
304 05/12/22 09:15:08:216 Received FIX message
Message dump: 
8=FIX.4.0|9=62|35=0|49=UNXQW|56=NYFIXHUB|34=150|52=20051222-14:15:08|57=MILL|10=080|
305 05/12/22 09:15:38:059 Sent FIX Message
Message dump: 
8=FIX.4.0|9=0063|35=0|49=NYFIXHUB|56=UNXQW|57=ADMIN|34=154|52=20051222-14:15:38|10=243|
306 05/12/22 09:15:38:216 Received FIX message
Message dump: 
8=FIX.4.0|9=62|35=0|49=UNXQW|56=NYFIXHUB|34=151|52=20051222-14:15:38|57=MILL|10=084|
307 05/12/22 09:16:08:049 Sent FIX Message
Message dump: 
8=FIX.4.0|9=0063|35=0|49=NYFIXHUB|56=UNXQW|57=ADMIN|34=155|52=20051222-14:16:08|10=242|
308 05/12/22 09:16:08:216 Received FIX message
Message dump: 
8=FIX.4.0|9=62|35=0|49=UNXQW|56=NYFIXHUB|34=152|52=20051222-14:16:08|57=MILL|10=083|
309 05/12/22 09:16:38:027 Sent FIX Message
Message dump: 
8=FIX.4.0|9=0063|35=0|49=NYFIXHUB|56=UNXQW|57=ADMIN|34=156|52=20051222-14:16:38|10=246|
310 05/12/22 09:16:38:215 Received FIX message
Message dump: 
8=FIX.4.0|9=62|35=0|49=UNXQW|56=NYFIXHUB|34=153|52=20051222-14:16:38|57=MILL|10=087|
311 05/12/22 09:17:08:066 Sent FIX Message
Message dump: 
8=FIX.4.0|9=0063|35=0|49=NYFIXHUB|56=UNXQW|57=ADMIN|34=157|52=20051222-14:17:08|10=245|
312 05/12/22 09:17:08:214 Received FIX message
Message dump: 
8=FIX.4.0|9=62|35=0|49=UNXQW|56=NYFIXHUB|34=154|52=20051222-14:17:08|57=MILL|10=086|
313 05/12/22 09:17:38:045 Sent FIX Message
Message dump: 
8=FIX.4.0|9=0063|35=0|49=NYFIXHUB|56=UNXQW|57=ADMIN|34=158|52=20051222-14:17:38|10=249|
314 05/12/22 09:17:38:214 Received FIX message
Message dump: 
8=FIX.4.0|9=62|35=0|49=UNXQW|56=NYFIXHUB|34=155|52=20051222-14:17:38|57=MILL|10=090|
315 05/12/22 09:18:08:054 Sent FIX Message
Message dump: 
8=FIX.4.0|9=0063|35=0|49=NYFIXHUB|56=UNXQW|57=ADMIN|34=159|52=20051222-14:18:08|10=248|
316 05/12/22 09:18:08:214 Received FIX message
Message dump: 
8=FIX.4.0|9=62|35=0|49=UNXQW|56=NYFIXHUB|34=156|52=20051222-14:18:08|57=MILL|10=089|
317 05/12/22 09:18:38:043 Sent FIX Message
Message dump: 
8=FIX.4.0|9=0063|35=0|49=NYFIXHUB|56=UNXQW|57=ADMIN|34=160|52=20051222-14:18:38|10=243|
318 05/12/22 09:18:38:213 Received FIX message
Message dump: 
8=FIX.4.0|9=62|35=0|49=UNXQW|56=NYFIXHUB|34=157|52=20051222-14:18:38|57=MILL|10=093|
319 05/12/22 09:19:08:042 Sent FIX Message
Message dump: 
8=FIX.4.0|9=0063|35=0|49=NYFIXHUB|56=UNXQW|57=ADMIN|34=161|52=20051222-14:19:08|10=242|
320 05/12/22 09:19:08:224 Received FIX message
Message dump: 
8=FIX.4.0|9=62|35=0|49=UNXQW|56=NYFIXHUB|34=158|52=20051222-14:19:08|57=MILL|10=092|
321 05/12/22 09:19:38:033 Sent FIX Message
Message dump: 
8=FIX.4.0|9=0063|35=0|49=NYFIXHUB|56=UNXQW|57=ADMIN|34=162|52=20051222-14:19:38|10=246|
322 05/12/22 09:19:38:211 Received FIX message
Message dump: 
8=FIX.4.0|9=62|35=0|49=UNXQW|56=NYFIXHUB|34=159|52=20051222-14:19:38|57=MILL|10=096|
323 05/12/22 09:20:08:080 Sent FIX Message
Message dump: 
8=FIX.4.0|9=0063|35=0|49=NYFIXHUB|56=UNXQW|57=ADMIN|34=163|52=20051222-14:20:08|10=236|
324 05/12/22 09:20:08:211 Received FIX message
Message dump: 
8=FIX.4.0|9=62|35=0|49=UNXQW|56=NYFIXHUB|34=160|52=20051222-14:20:08|57=MILL|10=077|
325 05/12/22 09:20:13:178 Received FIX message
Message dump: 
8=FIX.4.0|9=195|35=D|49=UNXQW|56=NYFIXHUB|34=161|52=20051222-14:20:13|57=MILL|50=UNXQW2|129=DOT2|128=CAPREGION|11=0F8C33500100007|21=3|55=LU|54=2|38=14100|40=2|44=2.7500|1=306047|111=500|107=~BUR-7|100=N|6110=Y|10=134|
326 05/12/22 09:20:13:378 Sent FIX Message
Message dump: 
8=FIX.4.0|9=0280|35=8|49=NYFIXHUB|56=UNXQW|50=OR28|57=UNXQW2|34=164|52=20051222-14:20:13|115=CAPREGION|116=DOT2|128=UNXQW2|1=306047|6=0.00000|11=0F8C33500100007|14=0|17=190667499|31=0.00000|32=0|37=14828548|38=14100|39=0|40=2|44=2.75000|54=2|55=LU|59=0|60=20051222-14:20:13|63=0|107=~TG-5270|20=0|10=122|
327 05/12/22 09:20:43:029 Sent FIX Message
Message dump: 
8=FIX.4.0|9=0063|35=0|49=NYFIXHUB|56=UNXQW|57=ADMIN|34=165|52=20051222-14:20:43|10=237|
328 05/12/22 09:20:43:147 Received FIX message
Message dump: 
8=FIX.4.0|9=196|35=D|49=UNXQW|56=NYFIXHUB|34=162|52=20051222-14:20:43|57=MILL|50=UNXQW2|129=DOT2|128=CAPREGION|11=0F8C34000100008|21=3|55=MER|54=1|38=3400|40=2|44=69.0000|1=306047|111=500|107=~BUR-8|100=N|6110=Y|10=205|
329 05/12/22 09:20:43:346 Sent FIX Message
Message dump: 
8=FIX.4.0|9=0281|35=8|49=NYFIXHUB|56=UNXQW|50=OR21|57=UNXQW2|34=166|52=20051222-14:20:43|115=CAPREGION|116=DOT2|128=UNXQW2|1=306047|6=0.00000|11=0F8C34000100008|14=0|17=190667500|31=0.00000|32=0|37=14805317|38=3400|39=0|40=2|44=69.00000|54=1|55=MER|59=0|60=20051222-14:20:43|63=0|107=~TG-4758|20=0|10=171|
330 05/12/22 09:21:13:085 Sent FIX Message
Message dump: 
8=FIX.4.0|9=0063|35=0|49=NYFIXHUB|56=UNXQW|57=ADMIN|34=167|52=20051222-14:21:13|10=237|
331 05/12/22 09:21:13:117 Received FIX message
Message dump: 
8=FIX.4.0|9=62|35=0|49=UNXQW|56=NYFIXHUB|34=163|52=20051222-14:21:13|57=MILL|10=077|
332 05/12/22 09:21:43:094 Sent FIX Message
Message dump: 
8=FIX.4.0|9=0063|35=0|49=NYFIXHUB|56=UNXQW|57=ADMIN|34=168|52=20051222-14:21:43|10=241|
333 05/12/22 09:21:43:116 Received FIX message
Message dump: 
8=FIX.4.0|9=62|35=0|49=UNXQW|56=NYFIXHUB|34=164|52=20051222-14:21:43|57=MILL|10=081|
334 05/12/22 09:21:43:411 Received FIX message
Message dump: 
8=FIX.4.0|9=196|35=D|49=UNXQW|56=NYFIXHUB|34=165|52=20051222-14:21:43|57=MILL|50=UNXQW2|129=DOT2|128=CAPREGION|11=0F8C35400100009|21=3|55=TMX|54=2|38=3000|40=2|44=24.0000|1=306047|111=500|107=~BUR-9|100=N|6110=Y|10=225|
335 05/12/22 09:21:43:614 Sent FIX Message
Message dump: 
8=FIX.4.0|9=0280|35=8|49=NYFIXHUB|56=UNXQW|50=OR6|57=UNXQW2|34=169|52=20051222-14:21:43|115=CAPREGION|116=DOT2|128=UNXQW2|1=306047|6=0.00000|11=0F8C35400100009|14=0|17=190667505|31=0.00000|32=0|37=14820151|38=3000|39=0|40=2|44=24.00000|54=2|55=TMX|59=0|60=20051222-14:21:43|63=0|107=~TG-6524|20=0|10=136|
336 05/12/22 09:22:13:051 Sent FIX Message
Message dump: 
8=FIX.4.0|9=0063|35=0|49=NYFIXHUB|56=UNXQW|57=ADMIN|34=170|52=20051222-14:22:13|10=232|
337 05/12/22 09:22:13:382 Received FIX message
Message dump: 
8=FIX.4.0|9=62|35=0|49=UNXQW|56=NYFIXHUB|34=166|52=20051222-14:22:13|57=MILL|10=081|
338 05/12/22 09:22:43:074 Sent FIX Message
Message dump: 
8=FIX.4.0|9=0063|35=0|49=NYFIXHUB|56=UNXQW|57=ADMIN|34=171|52=20051222-14:22:43|10=236|
339 05/12/22 09:22:43:381 Received FIX message
Message dump: 
8=FIX.4.0|9=62|35=0|49=UNXQW|56=NYFIXHUB|34=167|52=20051222-14:22:43|57=MILL|10=085|
340 05/12/22 09:23:13:021 Sent FIX Message
Message dump: 
8=FIX.4.0|9=0063|35=0|49=NYFIXHUB|56=UNXQW|57=ADMIN|34=172|52=20051222-14:23:13|10=235|
341 05/12/22 09:23:13:380 Received FIX message
Message dump: 
8=FIX.4.0|9=62|35=0|49=UNXQW|56=NYFIXHUB|34=168|52=20051222-14:23:13|57=MILL|10=084|
342 05/12/22 09:23:43:053 Sent FIX Message
Message dump: 
8=FIX.4.0|9=0063|35=0|49=NYFIXHUB|56=UNXQW|57=ADMIN|34=173|52=20051222-14:23:43|10=239|
343 05/12/22 09:23:43:380 Received FIX message
Message dump: 
8=FIX.4.0|9=62|35=0|49=UNXQW|56=NYFIXHUB|34=169|52=20051222-14:23:43|57=MILL|10=088|
344 05/12/22 09:24:13:097 Sent FIX Message
Message dump: 
8=FIX.4.0|9=0063|35=0|49=NYFIXHUB|56=UNXQW|57=ADMIN|34=174|52=20051222-14:24:13|10=238|
345 05/12/22 09:24:13:379 Received FIX message
Message dump: 
8=FIX.4.0|9=62|35=0|49=UNXQW|56=NYFIXHUB|34=170|52=20051222-14:24:13|57=MILL|10=078|
346 05/12/22 09:24:43:033 Sent FIX Message
Message dump: 
8=FIX.4.0|9=0063|35=0|49=NYFIXHUB|56=UNXQW|57=ADMIN|34=175|52=20051222-14:24:43|10=242|
347 05/12/22 09:24:43:391 Received FIX message
Message dump: 
8=FIX.4.0|9=62|35=0|49=UNXQW|56=NYFIXHUB|34=171|52=20051222-14:24:43|57=MILL|10=082|
348 05/12/22 09:25:13:068 Sent FIX Message
Message dump: 
8=FIX.4.0|9=0063|35=0|49=NYFIXHUB|56=UNXQW|57=ADMIN|34=176|52=20051222-14:25:13|10=241|
349 05/12/22 09:25:13:383 Received FIX message
Message dump: 
8=FIX.4.0|9=62|35=0|49=UNXQW|56=NYFIXHUB|34=172|52=20051222-14:25:13|57=MILL|10=081|
350 05/12/22 09:25:43:106 Sent FIX Message
Message dump: 
8=FIX.4.0|9=0063|35=0|49=NYFIXHUB|56=UNXQW|57=ADMIN|34=177|52=20051222-14:25:43|10=245|
351 05/12/22 09:25:43:378 Received FIX message
Message dump: 
8=FIX.4.0|9=62|35=0|49=UNXQW|56=NYFIXHUB|34=173|52=20051222-14:25:43|57=MILL|10=085|
352 05/12/22 09:26:13:045 Sent FIX Message
Message dump: 
8=FIX.4.0|9=0063|35=0|49=NYFIXHUB|56=UNXQW|57=ADMIN|34=178|52=20051222-14:26:13|10=244|
353 05/12/22 09:26:13:377 Received FIX message
Message dump: 
8=FIX.4.0|9=62|35=0|49=UNXQW|56=NYFIXHUB|34=174|52=20051222-14:26:13|57=MILL|10=084|
354 05/12/22 09:26:43:104 Sent FIX Message
Message dump: 
8=FIX.4.0|9=0063|35=0|49=NYFIXHUB|56=UNXQW|57=ADMIN|34=179|52=20051222-14:26:43|10=248|
355 05/12/22 09:26:43:376 Received FIX message
Message dump: 
8=FIX.4.0|9=62|35=0|49=UNXQW|56=NYFIXHUB|34=175|52=20051222-14:26:43|57=MILL|10=088|
356 05/12/22 09:27:13:060 Sent FIX Message
Message dump: 
8=FIX.4.0|9=0063|35=0|49=NYFIXHUB|56=UNXQW|57=ADMIN|34=180|52=20051222-14:27:13|10=238|
357 05/12/22 09:27:13:376 Received FIX message
Message dump: 
8=FIX.4.0|9=62|35=0|49=UNXQW|56=NYFIXHUB|34=176|52=20051222-14:27:13|57=MILL|10=087|
358 05/12/22 09:27:39:741 Received FIX message
Message dump: 
8=FIX.4.0|9=177|35=D|49=UNXQW|56=NYFIXHUB|34=177|52=20051222-14:27:39|57=MILL|50=UNXQW|129=DOT|128=CAPREGION|11=0F8C3B20010000A|21=3|55=BP|54=1|38=2|40=1|59=0|1=237000|107=~BUR-10|100=N|6110=Y|10=063|
359 05/12/22 09:27:39:939 Sent FIX Message
Message dump: 
8=FIX.4.0|9=0261|35=8|49=NYFIXHUB|56=UNXQW|50=OR5|57=UNXQW|34=181|52=20051222-14:27:39|115=CAPREGION|116=DOT|128=UNXQW|1=237000|6=0.00000|11=0F8C3B20010000A|14=0|17=190667545|31=0.00000|32=0|37=14768936|38=2|39=0|40=1|54=1|55=BP|59=0|60=20051222-14:27:39|63=0|107=~TG-7319|20=0|10=004|
360 05/12/22 09:27:49:483 Received FIX message
Message dump: 
8=FIX.4.0|9=198|35=D|49=UNXQW|56=NYFIXHUB|34=178|52=20051222-14:27:49|57=MILL|50=UNXQW2|129=DOT2|128=CAPREGION|11=0F8C3B70010000B|21=3|55=XOM|54=1|38=15000|40=2|44=58.0000|1=306047|111=500|107=~BUR-11|100=N|6110=Y|10=105|
361 05/12/22 09:27:49:689 Sent FIX Message
Message dump: 
8=FIX.4.0|9=0281|35=8|49=NYFIXHUB|56=UNXQW|50=OR3|57=UNXQW2|34=182|52=20051222-14:27:49|115=CAPREGION|116=DOT2|128=UNXQW2|1=306047|6=0.00000|11=0F8C3B70010000B|14=0|17=190667546|31=0.00000|32=0|37=14772866|38=15000|39=0|40=2|44=58.00000|54=1|55=XOM|59=0|60=20051222-14:27:49|63=0|107=~TG-1978|20=0|10=006|
362 05/12/22 09:28:19:048 Sent FIX Message
Message dump: 
8=FIX.4.0|9=0063|35=0|49=NYFIXHUB|56=UNXQW|57=ADMIN|34=183|52=20051222-14:28:19|10=248|
363 05/12/22 09:28:19:453 Received FIX message
Message dump: 
8=FIX.4.0|9=62|35=0|49=UNXQW|56=NYFIXHUB|34=179|52=20051222-14:28:19|57=MILL|10=097|
364 05/12/22 09:28:49:087 Sent FIX Message
Message dump: 
8=FIX.4.0|9=0063|35=0|49=NYFIXHUB|56=UNXQW|57=ADMIN|34=184|52=20051222-14:28:49|10=252|
365 05/12/22 09:28:49:452 Received FIX message
Message dump: 
8=FIX.4.0|9=62|35=0|49=UNXQW|56=NYFIXHUB|34=180|52=20051222-14:28:49|57=MILL|10=092|
366 05/12/22 09:29:19:016 Sent FIX Message
Message dump: 
8=FIX.4.0|9=0063|35=0|49=NYFIXHUB|56=UNXQW|57=ADMIN|34=185|52=20051222-14:29:19|10=251|
367 05/12/22 09:29:19:461 Received FIX message
Message dump: 
8=FIX.4.0|9=62|35=0|49=UNXQW|56=NYFIXHUB|34=181|52=20051222-14:29:19|57=MILL|10=091|
368 05/12/22 09:29:49:059 Sent FIX Message
Message dump: 
8=FIX.4.0|9=0063|35=0|49=NYFIXHUB|56=UNXQW|57=ADMIN|34=186|52=20051222-14:29:49|10=255|
369 05/12/22 09:29:49:452 Received FIX message
Message dump: 
8=FIX.4.0|9=62|35=0|49=UNXQW|56=NYFIXHUB|34=182|52=20051222-14:29:49|57=MILL|10=095|
370 05/12/22 09:30:01:792 Received FIX message
Message dump: 
8=FIX.4.0|9=180|35=D|49=UNXQW|56=NYFIXHUB|34=183|52=20051222-14:30:01|57=MILL|50=UNXQW|129=DOT|128=CAPREGION|11=0F8BD890010000C|21=3|55=TYC|54=2|38=570|40=1|59=0|1=205033|107=~BUR-12|100=N|6110=Y|10=000|
371 05/12/22 09:30:01:956 Received FIX message
Message dump: 
8=FIX.4.0|9=180|35=D|49=UNXQW|56=NYFIXHUB|34=184|52=20051222-14:30:01|57=MILL|50=UNXQW|129=DOT|128=CAPREGION|11=0F8BD8B0010000D|21=3|55=NWS|54=1|38=400|40=1|59=0|1=205033|107=~BUR-13|100=N|6110=Y|10=011|
372 05/12/22 09:30:01:956 Received FIX message
Message dump: 
8=FIX.4.0|9=180|35=D|49=UNXQW|56=NYFIXHUB|34=185|52=20051222-14:30:01|57=MILL|50=UNXQW|129=DOT|128=CAPREGION|11=0F8BD930010000E|21=3|55=IRF|54=2|38=800|40=1|59=0|1=233701|107=~BUR-14|100=N|6110=Y|10=241|
373 05/12/22 09:30:01:957 Received FIX message
Message dump: 
8=FIX.4.0|9=180|35=D|49=UNXQW|56=NYFIXHUB|34=186|52=20051222-14:30:01|57=MILL|50=UNXQW|129=DOT|128=CAPREGION|11=0F8BD950010000F|21=3|55=EMR|54=2|38=475|40=1|59=0|1=240501|107=~BUR-15|100=N|6110=Y|10=253|
374 05/12/22 09:30:01:957 Received FIX message
Message dump: 
8=FIX.4.0|9=180|35=D|49=UNXQW|56=NYFIXHUB|34=187|52=20051222-14:30:01|57=MILL|50=UNXQW|129=DOT|128=CAPREGION|11=0F8BD9700100010|21=3|55=AXP|54=2|38=300|40=1|59=0|1=240501|107=~BUR-16|100=N|6110=Y|10=228|
375 05/12/22 09:30:01:958 Received FIX message
Message dump: 
8=FIX.4.0|9=180|35=D|49=UNXQW|56=NYFIXHUB|34=188|52=20051222-14:30:01|57=MILL|50=UNXQW|129=DOT|128=CAPREGION|11=0F8BD9900100011|21=3|55=KMB|54=2|38=200|40=1|59=0|1=240501|107=~BUR-17|100=N|6110=Y|10=217|
376 05/12/22 09:30:01:958 Received FIX message
Message dump: 
8=FIX.4.0|9=179|35=D|49=UNXQW|56=NYFIXHUB|34=189|52=20051222-14:30:01|57=MILL|50=UNXQW|129=DOT|128=CAPREGION|11=0F8BD9D00100012|21=3|55=VZ|54=2|38=225|40=1|59=0|1=240501|107=~BUR-18|100=N|6110=Y|10=204|
377 05/12/22 09:30:01:959 Received FIX message
Message dump: 
8=FIX.4.0|9=180|35=D|49=UNXQW|56=NYFIXHUB|34=190|52=20051222-14:30:01|57=MILL|50=UNXQW|129=DOT|128=CAPREGION|11=0F8BDA200100013|21=3|55=LLL|54=1|38=200|40=1|59=0|1=240501|107=~BUR-19|100=N|6110=Y|10=224|
378 05/12/22 09:30:01:980 Received FIX message
Message dump: 
8=FIX.4.0|9=180|35=D|49=UNXQW|56=NYFIXHUB|34=191|52=20051222-14:30:01|57=MILL|50=UNXQW|129=DOT|128=CAPREGION|11=0F8BDAA00100014|21=3|55=PFE|54=2|38=200|40=1|59=0|1=233701|107=~BUR-20|100=N|6110=Y|10=229|
379 05/12/22 09:30:02:042 Received FIX message
Message dump: 
8=FIX.4.0|9=180|35=D|49=UNXQW|56=NYFIXHUB|34=192|52=20051222-14:30:01|57=MILL|50=UNXQW|129=DOT|128=CAPREGION|11=0F8BDB000100015|21=3|55=DOW|54=1|38=200|40=1|59=0|1=240501|107=~BUR-21|100=N|6110=Y|10=226|
380 05/12/22 09:30:02:042 Received FIX message
Message dump: 
8=FIX.4.0|9=180|35=D|49=UNXQW|56=NYFIXHUB|34=193|52=20051222-14:30:01|57=MILL|50=UNXQW|129=DOT|128=CAPREGION|11=0F8BDB200100016|21=3|55=GDW|54=2|38=200|40=1|59=0|1=240501|107=~BUR-22|100=N|6110=Y|10=224|
381 05/12/22 09:30:02:043 Received FIX message
Message dump: 
8=FIX.4.0|9=180|35=D|49=UNXQW|56=NYFIXHUB|34=194|52=20051222-14:30:01|57=MILL|50=UNXQW|129=DOT|128=CAPREGION|11=0F8BDB400100017|21=3|55=MOT|54=1|38=500|40=1|59=0|1=205033|107=~BUR-23|100=N|6110=Y|10=246|
382 05/12/22 09:30:02:044 Received FIX message
Message dump: 
8=FIX.4.0|9=180|35=D|49=UNXQW|56=NYFIXHUB|34=195|52=20051222-14:30:01|57=MILL|50=UNXQW|129=DOT|128=CAPREGION|11=0F8BDBA00100018|21=3|55=JPM|54=2|38=250|40=1|59=0|1=233701|107=~BUR-24|100=N|6110=Y|10=003|
383 05/12/22 09:30:02:044 Received FIX message
Message dump: 
8=FIX.4.0|9=179|35=D|49=UNXQW|56=NYFIXHUB|34=196|52=20051222-14:30:01|57=MILL|50=UNXQW|129=DOT|128=CAPREGION|11=0F8BDBC00100019|21=3|55=FO|54=2|38=375|40=1|59=0|1=240501|107=~BUR-25|100=N|6110=Y|10=194|
384 05/12/22 09:30:02:084 Sent FIX Message
Message dump: 
8=FIX.4.0|9=0265|35=8|49=NYFIXHUB|56=UNXQW|50=OR31|57=UNXQW|34=187|52=20051222-14:30:02|115=CAPREGION|116=DOT|128=UNXQW|1=205033|6=0.00000|11=0F8BD890010000C|14=0|17=190667581|31=0.00000|32=0|37=14785346|38=570|39=0|40=1|54=2|55=TYC|59=0|60=20051222-14:30:01|63=0|107=~TG-2371|20=0|10=232|
385 05/12/22 09:30:02:089 Sent FIX Message
Message dump: 
8=FIX.4.0|9=0265|35=8|49=NYFIXHUB|56=UNXQW|50=OR27|57=UNXQW|34=188|52=20051222-14:30:02|115=CAPREGION|116=DOT|128=UNXQW|1=240501|6=0.00000|11=0F8BD950010000F|14=0|17=190667585|31=0.00000|32=0|37=14798740|38=475|39=0|40=1|54=2|55=EMR|59=0|60=20051222-14:30:01|63=0|107=~TG-7121|20=0|10=233|
386 05/12/22 09:30:02:094 Sent FIX Message
Message dump: 
8=FIX.4.0|9=0264|35=8|49=NYFIXHUB|56=UNXQW|50=OR3|57=UNXQW|34=189|52=20051222-14:30:02|115=CAPREGION|116=DOT|128=UNXQW|1=205033|6=0.00000|11=0F8BD8B0010000D|14=0|17=190667582|31=0.00000|32=0|37=14772879|38=400|39=0|40=1|54=1|55=NWS|59=0|60=20051222-14:30:01|63=0|107=~TG-1985|20=0|10=211|
387 05/12/22 09:30:02:101 Sent FIX Message
Message dump: 
8=FIX.4.0|9=0265|35=8|49=NYFIXHUB|56=UNXQW|50=OR46|57=UNXQW|34=190|52=20051222-14:30:02|115=CAPREGION|116=DOT|128=UNXQW|1=240501|6=0.00000|11=0F8BD9900100011|14=0|17=190667583|31=0.00000|32=0|37=14826092|38=200|39=0|40=1|54=2|55=KMB|59=0|60=20051222-14:30:01|63=0|107=~TG-3892|20=0|10=188|
388 05/12/22 09:30:02:106 Sent FIX Message
Message dump: 
8=FIX.4.0|9=0265|35=8|49=NYFIXHUB|56=UNXQW|50=OR35|57=UNXQW|34=191|52=20051222-14:30:02|115=CAPREGION|116=DOT|128=UNXQW|1=240501|6=0.00000|11=0F8BD9700100010|14=0|17=190667586|31=0.00000|32=0|37=14791927|38=300|39=0|40=1|54=2|55=AXP|59=0|60=20051222-14:30:01|63=0|107=~TG-7716|20=0|10=210|
389 05/12/22 09:30:02:111 Sent FIX Message
Message dump: 
8=FIX.4.0|9=0265|35=8|49=NYFIXHUB|56=UNXQW|50=OR10|57=UNXQW|34=192|52=20051222-14:30:02|115=CAPREGION|116=DOT|128=UNXQW|1=240501|6=0.00000|11=0F8BDA200100013|14=0|17=190667584|31=0.00000|32=0|37=14832123|38=200|39=0|40=1|54=1|55=LLL|59=0|60=20051222-14:30:01|63=0|107=~TG-8562|20=0|10=185|
390 05/12/22 09:30:02:116 Sent FIX Message
Message dump: 
8=FIX.4.0|9=0265|35=8|49=NYFIXHUB|56=UNXQW|50=OR23|57=UNXQW|34=193|52=20051222-14:30:02|115=CAPREGION|116=DOT|128=UNXQW|1=233701|6=0.00000|11=0F8BDAA00100014|14=0|17=190667587|31=0.00000|32=0|37=14829105|38=200|39=0|40=1|54=2|55=PFE|59=0|60=20051222-14:30:01|63=0|107=~TG-8607|20=0|10=211|
391 05/12/22 09:30:02:120 Sent FIX Message
Message dump: 
8=FIX.4.0|9=0265|35=8|49=NYFIXHUB|56=UNXQW|50=OR13|57=UNXQW|34=194|52=20051222-14:30:02|115=CAPREGION|116=DOT|128=UNXQW|1=233701|6=0.00000|11=0F8BD930010000E|14=0|17=190667588|31=0.00000|32=0|37=14776889|38=800|39=0|40=1|54=2|55=IRF|59=0|60=20051222-14:30:02|63=0|107=~TG-8903|20=0|10=238|
392 05/12/22 09:30:02:132 Received FIX message
Message dump: 
8=FIX.4.0|9=180|35=D|49=UNXQW|56=NYFIXHUB|34=197|52=20051222-14:30:01|57=MILL|50=UNXQW|129=DOT|128=CAPREGION|11=0F8BDBE0010001A|21=3|55=PEG|54=2|38=290|40=1|59=0|1=240501|107=~BUR-26|100=N|6110=Y|10=009|
393 05/12/22 09:30:02:133 Received FIX message
Message dump: 
8=FIX.4.0|9=180|35=D|49=UNXQW|56=NYFIXHUB|34=198|52=20051222-14:30:01|57=MILL|50=UNXQW|129=DOT|128=CAPREGION|11=0F8BDC00010001B|21=3|55=BDX|54=2|38=250|40=1|59=0|1=240501|107=~BUR-27|100=N|6110=Y|10=246|
394 05/12/22 09:30:02:133 Received FIX message
Message dump: 
8=FIX.4.0|9=180|35=D|49=UNXQW|56=NYFIXHUB|34=199|52=20051222-14:30:01|57=MILL|50=UNXQW|129=DOT|128=CAPREGION|11=0F8BDC20010001C|21=3|55=USB|54=2|38=425|40=1|59=0|1=240501|107=~BUR-28|100=N|6110=Y|10=011|
395 05/12/22 09:30:02:134 Received FIX message
Message dump: 
8=FIX.4.0|9=180|35=D|49=UNXQW|56=NYFIXHUB|34=200|52=20051222-14:30:01|57=MILL|50=UNXQW|129=DOT|128=CAPREGION|11=0F8BDC40010001D|21=3|55=ROH|54=2|38=250|40=1|59=0|1=240501|107=~BUR-29|100=N|6110=Y|10=249|
396 05/12/22 09:30:02:134 Received FIX message
Message dump: 
8=FIX.4.0|9=180|35=D|49=UNXQW|56=NYFIXHUB|34=201|52=20051222-14:30:01|57=MILL|50=UNXQW|129=DOT|128=CAPREGION|11=0F8BDC60010001E|21=3|55=FPL|54=2|38=250|40=1|59=0|1=240501|107=~BUR-30|100=N|6110=Y|10=238|
397 05/12/22 09:30:02:168 Sent FIX Message
Message dump: 
8=FIX.4.0|9=0263|35=8|49=NYFIXHUB|56=UNXQW|50=OR6|57=UNXQW|34=195|52=20051222-14:30:02|115=CAPREGION|116=DOT|128=UNXQW|1=240501|6=0.00000|11=0F8BD9D00100012|14=0|17=190667592|31=0.00000|32=0|37=14820165|38=225|39=0|40=1|54=2|55=VZ|59=0|60=20051222-14:30:02|63=0|107=~TG-6532|20=0|10=106|
398 05/12/22 09:30:02:172 Sent FIX Message
Message dump: 
8=FIX.4.0|9=0264|35=8|49=NYFIXHUB|56=UNXQW|50=OR48|57=UNXQW|34=196|52=20051222-14:30:02|115=CAPREGION|116=DOT|128=UNXQW|1=240501|6=0.00000|11=0F8BDBC00100019|14=0|17=190667595|31=0.00000|32=0|37=14831093|38=375|39=0|40=1|54=2|55=FO|59=0|60=20051222-14:30:02|63=0|107=~TG-7494|20=0|10=169|
399 05/12/22 09:30:02:175 Sent FIX Message
Message dump: 
8=FIX.4.0|9=0264|35=8|49=NYFIXHUB|56=UNXQW|50=OR8|57=UNXQW|34=197|52=20051222-14:30:02|115=CAPREGION|116=DOT|128=UNXQW|1=240501|6=0.00000|11=0F8BDB000100015|14=0|17=190667593|31=0.00000|32=0|37=14832516|38=200|39=0|40=1|54=1|55=DOW|59=0|60=20051222-14:30:02|63=0|107=~TG-6259|20=0|10=163|
400 05/12/22 09:30:02:180 Sent FIX Message
Message dump: 
8=FIX.4.0|9=0265|35=8|49=NYFIXHUB|56=UNXQW|50=OR29|57=UNXQW|34=198|52=20051222-14:30:02|115=CAPREGION|116=DOT|128=UNXQW|1=233701|6=0.00000|11=0F8BDBA00100018|14=0|17=190667594|31=0.00000|32=0|37=14788383|38=250|39=0|40=1|54=2|55=JPM|59=0|60=20051222-14:30:02|63=0|107=~TG-2994|20=0|10=002|
401 05/12/22 09:30:02:184 Sent FIX Message
Message dump: 
8=FIX.4.0|9=0265|35=8|49=NYFIXHUB|56=UNXQW|50=OR33|57=UNXQW|34=199|52=20051222-14:30:02|115=CAPREGION|116=DOT|128=UNXQW|1=205033|6=0.00000|11=0F8BDB400100017|14=0|17=190667596|31=0.00000|32=0|37=14826563|38=500|39=0|40=1|54=1|55=MOT|59=0|60=20051222-14:30:02|63=0|107=~TG-3680|20=0|10=231|
402 05/12/22 09:30:02:266 Sent FIX Message
Message dump: 
8=FIX.4.0|9=0265|35=8|49=NYFIXHUB|56=UNXQW|50=OR19|57=UNXQW|34=200|52=20051222-14:30:02|115=CAPREGION|116=DOT|128=UNXQW|1=240501|6=0.00000|11=0F8BDC00010001B|14=0|17=190667602|31=0.00000|32=0|37=14827094|38=250|39=0|40=1|54=2|55=BDX|59=0|60=20051222-14:30:02|63=0|107=~TG-4195|20=0|10=200|
403 05/12/22 09:30:02:270 Sent FIX Message
Message dump: 
8=FIX.4.0|9=0265|35=8|49=NYFIXHUB|56=UNXQW|50=OR41|57=UNXQW|34=201|52=20051222-14:30:02|115=CAPREGION|116=DOT|128=UNXQW|1=240501|6=0.00000|11=0F8BDC60010001E|14=0|17=190667604|31=0.00000|32=0|37=14823142|38=250|39=0|40=1|54=2|55=FPL|59=0|60=20051222-14:30:02|63=0|107=~TG-7824|20=0|10=203|
404 05/12/22 09:30:02:276 Sent FIX Message
Message dump: 
8=FIX.4.0|9=0265|35=8|49=NYFIXHUB|56=UNXQW|50=OR43|57=UNXQW|34=202|52=20051222-14:30:02|115=CAPREGION|116=DOT|128=UNXQW|1=240501|6=0.00000|11=0F8BDC40010001D|14=0|17=190667603|31=0.00000|32=0|37=14822651|38=250|39=0|40=1|54=2|55=ROH|59=0|60=20051222-14:30:02|63=0|107=~TG-4374|20=0|10=210|
405 05/12/22 09:30:02:281 Received FIX message
Message dump: 
8=FIX.4.0|9=179|35=D|49=UNXQW|56=NYFIXHUB|34=202|52=20051222-14:30:01|57=MILL|50=UNXQW|129=DOT|128=CAPREGION|11=0F8BDC80010001F|21=3|55=DD|54=2|38=225|40=1|59=0|1=240501|107=~BUR-31|100=N|6110=Y|10=163|
406 05/12/22 09:30:02:286 Sent FIX Message
Message dump: 
8=FIX.4.0|9=0265|35=8|49=NYFIXHUB|56=UNXQW|50=OR36|57=UNXQW|34=203|52=20051222-14:30:02|115=CAPREGION|116=DOT|128=UNXQW|1=240501|6=0.00000|11=0F8BDB200100016|14=0|17=190667601|31=0.00000|32=0|37=14825585|38=200|39=0|40=1|54=2|55=GDW|59=0|60=20051222-14:30:02|63=0|107=~TG-3095|20=0|10=190|
407 05/12/22 09:30:02:289 Received FIX message
Message dump: 
8=FIX.4.0|9=180|35=D|49=UNXQW|56=NYFIXHUB|34=203|52=20051222-14:30:02|57=MILL|50=UNXQW|129=DOT|128=CAPREGION|11=0F8BDD800100020|21=3|55=VOD|54=1|38=375|40=1|59=0|1=240501|107=~BUR-32|100=N|6110=Y|10=240|
408 05/12/22 09:30:02:289 Received FIX message
Message dump: 
8=FIX.4.0|9=180|35=D|49=UNXQW|56=NYFIXHUB|34=204|52=20051222-14:30:02|57=MILL|50=UNXQW|129=DOT|128=CAPREGION|11=0F8BDDC00100021|21=3|55=ACN|54=1|38=225|40=1|59=0|1=240501|107=~BUR-33|100=N|6110=Y|10=225|
409 05/12/22 09:30:02:290 Received FIX message
Message dump: 
8=FIX.4.0|9=180|35=D|49=UNXQW|56=NYFIXHUB|34=205|52=20051222-14:30:02|57=MILL|50=UNXQW|129=DOT|128=CAPREGION|11=0F8BDE000100022|21=3|55=PFE|54=2|38=200|40=1|59=0|1=240501|107=~BUR-34|100=N|6110=Y|10=213|
410 05/12/22 09:30:02:290 Received FIX message
Message dump: 
8=FIX.4.0|9=180|35=D|49=UNXQW|56=NYFIXHUB|34=206|52=20051222-14:30:02|57=MILL|50=UNXQW|129=DOT|128=CAPREGION|11=0F8BDF600100023|21=3|55=LLY|54=2|38=200|40=1|59=0|1=233701|107=~BUR-35|100=N|6110=Y|10=249|
411 05/12/22 09:30:02:297 Sent FIX Message
Message dump: 
8=FIX.4.0|9=0265|35=8|49=NYFIXHUB|56=UNXQW|50=OR27|57=UNXQW|34=204|52=20051222-14:30:02|115=CAPREGION|116=DOT|128=UNXQW|1=240501|6=0.00000|11=0F8BDC20010001C|14=0|17=190667606|31=0.00000|32=0|37=14798741|38=425|39=0|40=1|54=2|55=USB|59=0|60=20051222-14:30:02|63=0|107=~TG-7122|20=0|10=225|
412 05/12/22 09:30:02:398 Sent FIX Message
Message dump: 
8=FIX.4.0|9=0265|35=8|49=NYFIXHUB|56=UNXQW|50=OR40|57=UNXQW|34=205|52=20051222-14:30:02|115=CAPREGION|116=DOT|128=UNXQW|1=240501|6=0.00000|11=0F8BDBE0010001A|14=0|17=190667607|31=0.00000|32=0|37=14790366|38=290|39=0|40=1|54=2|55=PEG|59=0|60=20051222-14:30:02|63=0|107=~TG-0884|20=0|10=227|
413 05/12/22 09:30:02:428 Received FIX message
Message dump: 
8=FIX.4.0|9=180|35=D|49=UNXQW|56=NYFIXHUB|34=207|52=20051222-14:30:02|57=MILL|50=UNXQW|129=DOT|128=CAPREGION|11=0F8BE0F00100024|21=3|55=MOT|54=1|38=700|40=1|59=0|1=240001|107=~BUR-36|100=N|6110=Y|10=241|
414 05/12/22 09:30:02:432 Received FIX message
Message dump: 
8=FIX.4.0|9=180|35=D|49=UNXQW|56=NYFIXHUB|34=208|52=20051222-14:30:02|57=MILL|50=UNXQW|129=DOT|128=CAPREGION|11=0F8BE1300100025|21=3|55=JNJ|54=1|38=200|40=1|59=0|1=240001|107=~BUR-37|100=N|6110=Y|10=207|
415 05/12/22 09:30:02:433 Sent FIX Message
Message dump: 
8=FIX.4.0|9=0265|35=8|49=NYFIXHUB|56=UNXQW|50=OR42|57=UNXQW|34=206|52=20051222-14:30:02|115=CAPREGION|116=DOT|128=UNXQW|1=240501|6=0.00000|11=0F8BDD800100020|14=0|17=190667611|31=0.00000|32=0|37=14804417|38=375|39=0|40=1|54=1|55=VOD|59=0|60=20051222-14:30:02|63=0|107=~TG-8406|20=0|10=205|
416 05/12/22 09:30:02:438 Sent FIX Message
Message dump: 
8=FIX.4.0|9=0264|35=8|49=NYFIXHUB|56=UNXQW|50=OR9|57=UNXQW|34=207|52=20051222-14:30:02|115=CAPREGION|116=DOT|128=UNXQW|1=233701|6=0.00000|11=0F8BDF600100023|14=0|17=190667613|31=0.00000|32=0|37=14777835|38=200|39=0|40=1|54=2|55=LLY|59=0|60=20051222-14:30:02|63=0|107=~TG-4567|20=0|10=182|
417 05/12/22 09:30:02:443 Sent FIX Message
Message dump: 
8=FIX.4.0|9=0265|35=8|49=NYFIXHUB|56=UNXQW|50=OR32|57=UNXQW|34=208|52=20051222-14:30:02|115=CAPREGION|116=DOT|128=UNXQW|1=240501|6=0.00000|11=0F8BDDC00100021|14=0|17=190667612|31=0.00000|32=0|37=14821727|38=225|39=0|40=1|54=1|55=ACN|59=0|60=20051222-14:30:02|63=0|107=~TG-5372|20=0|10=192|
418 05/12/22 09:30:02:451 Sent FIX Message
Message dump: 
8=FIX.4.0|9=0265|35=8|49=NYFIXHUB|56=UNXQW|50=OR23|57=UNXQW|34=209|52=20051222-14:30:02|115=CAPREGION|116=DOT|128=UNXQW|1=240501|6=0.00000|11=0F8BDE000100022|14=0|17=190667614|31=0.00000|32=0|37=14829109|38=200|39=0|40=1|54=2|55=PFE|59=0|60=20051222-14:30:02|63=0|107=~TG-8611|20=0|10=182|
419 05/12/22 09:30:02:458 Sent FIX Message
Message dump: 
8=FIX.4.0|9=0264|35=8|49=NYFIXHUB|56=UNXQW|50=OR44|57=UNXQW|34=210|52=20051222-14:30:02|115=CAPREGION|116=DOT|128=UNXQW|1=240501|6=0.00000|11=0F8BDC80010001F|14=0|17=190667616|31=0.00000|32=0|37=14820870|38=225|39=0|40=1|54=2|55=DD|59=0|60=20051222-14:30:02|63=0|107=~TG-8733|20=0|10=128|
420 05/12/22 09:30:02:464 Received FIX message
Message dump: 
8=FIX.4.0|9=180|35=D|49=UNXQW|56=NYFIXHUB|34=209|52=20051222-14:30:02|57=MILL|50=UNXQW|129=DOT|128=CAPREGION|11=0F8BE1500100026|21=3|55=ACS|54=1|38=200|40=1|59=0|1=240001|107=~BUR-38|100=N|6110=Y|10=201|
421 05/12/22 09:30:02:585 Sent FIX Message
Message dump: 
8=FIX.4.0|9=0264|35=8|49=NYFIXHUB|56=UNXQW|50=OR8|57=UNXQW|34=211|52=20051222-14:30:02|115=CAPREGION|116=DOT|128=UNXQW|1=240001|6=0.00000|11=0F8BE1300100025|14=0|17=190667618|31=0.00000|32=0|37=14832517|38=200|39=0|40=1|54=1|55=JNJ|59=0|60=20051222-14:30:02|63=0|107=~TG-6260|20=0|10=116|
422 05/12/22 09:30:02:593 Sent FIX Message
Message dump: 
8=FIX.4.0|9=0265|35=8|49=NYFIXHUB|56=UNXQW|50=OR33|57=UNXQW|34=212|52=20051222-14:30:02|115=CAPREGION|116=DOT|128=UNXQW|1=240001|6=0.00000|11=0F8BE0F00100024|14=0|17=190667619|31=0.00000|32=0|37=14826565|38=700|39=0|40=1|54=1|55=MOT|59=0|60=20051222-14:30:02|63=0|107=~TG-3682|20=0|10=212|
423 05/12/22 09:30:02:608 Sent FIX Message
Message dump: 
8=FIX.4.0|9=0265|35=8|49=NYFIXHUB|56=UNXQW|50=OR12|57=UNXQW|34=213|52=20051222-14:30:02|115=CAPREGION|116=DOT|128=UNXQW|1=240001|6=0.00000|11=0F8BE1500100026|14=0|17=190667620|31=0.00000|32=0|37=14776403|38=200|39=0|40=1|54=1|55=ACS|59=0|60=20051222-14:30:02|63=0|107=~TG-9001|20=0|10=144|
424 05/12/22 09:30:02:649 Received FIX message
Message dump: 
8=FIX.4.0|9=179|35=D|49=UNXQW|56=NYFIXHUB|34=210|52=20051222-14:30:02|57=MILL|50=UNXQW|129=DOT|128=CAPREGION|11=0F8BE2100100027|21=3|55=KO|54=2|38=350|40=1|59=0|1=222501|107=~BUR-39|100=N|6110=Y|10=151|
425 05/12/22 09:30:02:650 Received FIX message
Message dump: 
8=FIX.4.0|9=181|35=D|49=UNXQW|56=NYFIXHUB|34=211|52=20051222-14:30:02|57=MILL|50=UNXQW|129=DOT|128=CAPREGION|11=0F8BE2300100028|21=3|55=HPQ|54=1|38=1700|40=1|59=0|1=240001|107=~BUR-40|100=N|6110=Y|10=005|
426 05/12/22 09:30:02:650 Received FIX message
Message dump: 
8=FIX.4.0|9=179|35=D|49=UNXQW|56=NYFIXHUB|34=212|52=20051222-14:30:02|57=MILL|50=UNXQW|129=DOT|128=CAPREGION|11=0F8BE2700100029|21=3|55=KO|54=2|38=350|40=1|59=0|1=222501|107=~BUR-41|100=N|6110=Y|10=154|
427 05/12/22 09:30:02:863 Received FIX message
Message dump: 
8=FIX.4.0|9=180|35=D|49=UNXQW|56=NYFIXHUB|34=213|52=20051222-14:30:02|57=MILL|50=UNXQW|129=DOT|128=CAPREGION|11=0F8BE2B0010002A|21=3|55=SLB|54=1|38=250|40=1|59=0|1=240001|107=~BUR-42|100=N|6110=Y|10=231|
428 05/12/22 09:30:02:869 Received FIX message
Message dump: 
8=FIX.4.0|9=178|35=D|49=UNXQW|56=NYFIXHUB|34=214|52=20051222-14:30:02|57=MILL|50=UNXQW|129=DOT|128=CAPREGION|11=0F8BE2D0010002B|21=3|55=S|54=1|38=200|40=1|59=0|1=222501|107=~BUR-43|100=N|6110=Y|10=101|
429 05/12/22 09:30:02:869 Sent FIX Message
Message dump: 
8=FIX.4.0|9=0266|35=8|49=NYFIXHUB|56=UNXQW|50=OR43|57=UNXQW|34=214|52=20051222-14:30:02|115=CAPREGION|116=DOT|128=UNXQW|1=240001|6=0.00000|11=0F8BE2300100028|14=0|17=190667626|31=0.00000|32=0|37=14822652|38=1700|39=0|40=1|54=1|55=HPQ|59=0|60=20051222-14:30:02|63=0|107=~TG-4375|20=0|10=236|
430 05/12/22 09:30:02:875 Received FIX message
Message dump: 
8=FIX.4.0|9=180|35=D|49=UNXQW|56=NYFIXHUB|34=215|52=20051222-14:30:02|57=MILL|50=UNXQW|129=DOT|128=CAPREGION|11=0F8BE310010002C|21=3|55=UNM|54=2|38=280|40=1|59=0|1=222501|107=~BUR-44|100=N|6110=Y|10=245|
431 05/12/22 09:30:02:875 Sent FIX Message
Message dump: 
8=FIX.4.0|9=0264|35=8|49=NYFIXHUB|56=UNXQW|50=OR25|57=UNXQW|34=215|52=20051222-14:30:02|115=CAPREGION|116=DOT|128=UNXQW|1=222501|6=0.00000|11=0F8BE2100100027|14=0|17=190667627|31=0.00000|32=0|37=14785937|38=350|39=0|40=1|54=2|55=KO|59=0|60=20051222-14:30:02|63=0|107=~TG-8320|20=0|10=120|
432 05/12/22 09:30:02:881 Sent FIX Message
Message dump: 
8=FIX.4.0|9=0264|35=8|49=NYFIXHUB|56=UNXQW|50=OR25|57=UNXQW|34=216|52=20051222-14:30:02|115=CAPREGION|116=DOT|128=UNXQW|1=222501|6=0.00000|11=0F8BE2700100029|14=0|17=190667628|31=0.00000|32=0|37=14785938|38=350|39=0|40=1|54=2|55=KO|59=0|60=20051222-14:30:02|63=0|107=~TG-8321|20=0|10=132|
433 05/12/22 09:30:02:918 Received FIX message
Message dump: 
8=FIX.4.0|9=181|35=D|49=UNXQW|56=NYFIXHUB|34=216|52=20051222-14:30:02|57=MILL|50=UNXQW|129=DOT|128=CAPREGION|11=0F8BE330010002D|21=3|55=ITT|54=2|38=3300|40=1|59=0|1=240001|107=~BUR-45|100=N|6110=Y|10=035|
434 05/12/22 09:30:02:920 Received FIX message
Message dump: 
8=FIX.4.0|9=180|35=D|49=UNXQW|56=NYFIXHUB|34=217|52=20051222-14:30:02|57=MILL|50=UNXQW|129=DOT|128=CAPREGION|11=0F8BE390010002E|21=3|55=PFE|54=2|38=300|40=1|59=0|1=240001|107=~BUR-46|100=N|6110=Y|10=226|
435 05/12/22 09:30:02:920 Received FIX message
Message dump: 
8=FIX.4.0|9=180|35=D|49=UNXQW|56=NYFIXHUB|34=218|52=20051222-14:30:02|57=MILL|50=UNXQW|129=DOT|128=CAPREGION|11=0F8BE3B0010002F|21=3|55=ITW|54=1|38=200|40=1|59=0|1=240001|107=~BUR-47|100=N|6110=Y|10=005|
436 05/12/22 09:30:03:025 Sent FIX Message
Message dump: 
8=FIX.4.0|9=0265|35=8|49=NYFIXHUB|56=UNXQW|50=OR40|57=UNXQW|34=217|52=20051222-14:30:03|115=CAPREGION|116=DOT|128=UNXQW|1=240001|6=0.00000|11=0F8BE2B0010002A|14=0|17=190667633|31=0.00000|32=0|37=14790367|38=250|39=0|40=1|54=1|55=SLB|59=0|60=20051222-14:30:02|63=0|107=~TG-0885|20=0|10=210|
437 05/12/22 09:30:03:030 Sent FIX Message
Message dump: 
8=FIX.4.0|9=0263|35=8|49=NYFIXHUB|56=UNXQW|50=OR42|57=UNXQW|34=218|52=20051222-14:30:03|115=CAPREGION|116=DOT|128=UNXQW|1=222501|6=0.00000|11=0F8BE2D0010002B|14=0|17=190667634|31=0.00000|32=0|37=14804418|38=200|39=0|40=1|54=1|55=S|59=0|60=20051222-14:30:02|63=0|107=~TG-8407|20=0|10=064|
438 05/12/22 09:30:03:041 Sent FIX Message
Message dump: 
8=FIX.4.0|9=0266|35=8|49=NYFIXHUB|56=UNXQW|50=OR46|57=UNXQW|34=219|52=20051222-14:30:03|115=CAPREGION|116=DOT|128=UNXQW|1=240001|6=0.00000|11=0F8BE330010002D|14=0|17=190667637|31=0.00000|32=0|37=14826098|38=3300|39=0|40=1|54=2|55=ITT|59=0|60=20051222-14:30:02|63=0|107=~TG-3894|20=0|10=024|
439 05/12/22 09:30:03:054 Sent FIX Message
Message dump: 
8=FIX.4.0|9=0265|35=8|49=NYFIXHUB|56=UNXQW|50=OR28|57=UNXQW|34=220|52=20051222-14:30:03|115=CAPREGION|116=DOT|128=UNXQW|1=240001|6=0.00000|11=0F8BE3B0010002F|14=0|17=190667636|31=0.00000|32=0|37=14828568|38=200|39=0|40=1|54=1|55=ITW|59=0|60=20051222-14:30:02|63=0|107=~TG-5281|20=0|10=233|
440 05/12/22 09:30:03:086 Sent FIX Message
Message dump: 
8=FIX.4.0|9=0265|35=8|49=NYFIXHUB|56=UNXQW|50=OR18|57=UNXQW|34=221|52=20051222-14:30:03|115=CAPREGION|116=DOT|128=UNXQW|1=222501|6=0.00000|11=0F8BE310010002C|14=0|17=190667639|31=0.00000|32=0|37=14781956|38=280|39=0|40=1|54=2|55=UNM|59=0|60=20051222-14:30:02|63=0|107=~TG-7528|20=0|10=231|
441 05/12/22 09:30:03:118 Sent FIX Message
Message dump: 
8=FIX.4.0|9=0265|35=8|49=NYFIXHUB|56=UNXQW|50=OR23|57=UNXQW|34=222|52=20051222-14:30:03|115=CAPREGION|116=DOT|128=UNXQW|1=240001|6=0.00000|11=0F8BE390010002E|14=0|17=190667641|31=0.00000|32=0|37=14829112|38=300|39=0|40=1|54=2|55=PFE|59=0|60=20051222-14:30:03|63=0|107=~TG-8612|20=0|10=181|
442 05/12/22 09:30:03:123 Received FIX message
Message dump: 
8=FIX.4.0|9=180|35=D|49=UNXQW|56=NYFIXHUB|34=219|52=20051222-14:30:02|57=MILL|50=UNXQW|129=DOT|128=CAPREGION|11=0F8BE3D00100030|21=3|55=LOW|54=1|38=200|40=1|59=0|1=240001|107=~BUR-48|100=N|6110=Y|10=242|
443 05/12/22 09:30:03:123 Received FIX message
Message dump: 
8=FIX.4.0|9=180|35=D|49=UNXQW|56=NYFIXHUB|34=220|52=20051222-14:30:02|57=MILL|50=UNXQW|129=DOT|128=CAPREGION|11=0F8BE4100100031|21=3|55=WMT|54=1|38=250|40=1|59=0|1=240001|107=~BUR-49|100=N|6110=Y|10=229|
444 05/12/22 09:30:03:123 Received FIX message
Message dump: 
8=FIX.4.0|9=180|35=D|49=UNXQW|56=NYFIXHUB|34=221|52=20051222-14:30:02|57=MILL|50=UNXQW|129=DOT|128=CAPREGION|11=0F8BE4500100032|21=3|55=CMX|54=1|38=200|40=1|59=0|1=240001|107=~BUR-50|100=N|6110=Y|10=206|
445 05/12/22 09:30:03:124 Received FIX message
Message dump: 
8=FIX.4.0|9=180|35=D|49=UNXQW|56=NYFIXHUB|34=222|52=20051222-14:30:02|57=MILL|50=UNXQW|129=DOT|128=CAPREGION|11=0F8BE4900100033|21=3|55=PFE|54=1|38=300|40=1|59=0|1=240001|107=~BUR-51|100=N|6110=Y|10=201|
446 05/12/22 09:30:03:124 Received FIX message
Message dump: 
8=FIX.4.0|9=180|35=D|49=UNXQW|56=NYFIXHUB|34=223|52=20051222-14:30:02|57=MILL|50=UNXQW|129=DOT|128=CAPREGION|11=0F8BE4B00100034|21=3|55=TXN|54=1|38=200|40=1|59=0|1=240001|107=~BUR-52|100=N|6110=Y|10=243|
447 05/12/22 09:30:03:366 Received FIX message
Message dump: 
8=FIX.4.0|9=181|35=D|49=UNXQW|56=NYFIXHUB|34=224|52=20051222-14:30:02|57=MILL|50=UNXQW|129=DOT|128=CAPREGION|11=0F8BE4F00100035|21=3|55=MOT|54=1|38=2200|40=1|59=0|1=240001|107=~BUR-53|100=N|6110=Y|10=035|
448 05/12/22 09:30:03:372 Received FIX message
Message dump: 
8=FIX.4.0|9=180|35=D|49=UNXQW|56=NYFIXHUB|34=225|52=20051222-14:30:03|57=MILL|50=UNXQW|129=DOT|128=CAPREGION|11=0F8BE5700100036|21=3|55=HPQ|54=1|38=900|40=1|59=0|1=240001|107=~BUR-54|100=N|6110=Y|10=230|
449 05/12/22 09:30:03:372 Sent FIX Message
Message dump: 
8=FIX.4.0|9=0265|35=8|49=NYFIXHUB|56=UNXQW|50=OR16|57=UNXQW|34=223|52=20051222-14:30:03|115=CAPREGION|116=DOT|128=UNXQW|1=240001|6=0.00000|11=0F8BE4500100032|14=0|17=190667646|31=0.00000|32=0|37=14773333|38=200|39=0|40=1|54=1|55=CMX|59=0|60=20051222-14:30:03|63=0|107=~TG-3770|20=0|10=182|
450 05/12/22 09:30:03:378 Received FIX message
Message dump: 
8=FIX.4.0|9=181|35=D|49=UNXQW|56=NYFIXHUB|34=226|52=20051222-14:30:03|57=MILL|50=UNXQW|129=DOT|128=CAPREGION|11=0F8BE5900100037|21=3|55=MOT|54=1|38=1100|40=1|59=0|1=240001|107=~BUR-55|100=N|6110=Y|10=028|
451 05/12/22 09:30:03:378 Sent FIX Message
Message dump: 
8=FIX.4.0|9=0265|35=8|49=NYFIXHUB|56=UNXQW|50=OR19|57=UNXQW|34=224|52=20051222-14:30:03|115=CAPREGION|116=DOT|128=UNXQW|1=240001|6=0.00000|11=0F8BE4B00100034|14=0|17=190667647|31=0.00000|32=0|37=14827097|38=200|39=0|40=1|54=1|55=TXN|59=0|60=20051222-14:30:03|63=0|107=~TG-4196|20=0|10=230|
452 05/12/22 09:30:03:383 Received FIX message
Message dump: 
8=FIX.4.0|9=180|35=D|49=UNXQW|56=NYFIXHUB|34=227|52=20051222-14:30:03|57=MILL|50=UNXQW|129=DOT|128=CAPREGION|11=0F8BE5B00100038|21=3|55=UPS|54=1|38=300|40=1|59=0|1=240001|107=~BUR-56|100=N|6110=Y|10=000|
453 05/12/22 09:30:03:383 Sent FIX Message
Message dump: 
8=FIX.4.0|9=0265|35=8|49=NYFIXHUB|56=UNXQW|50=OR23|57=UNXQW|34=225|52=20051222-14:30:03|115=CAPREGION|116=DOT|128=UNXQW|1=240001|6=0.00000|11=0F8BE4900100033|14=0|17=190667648|31=0.00000|32=0|37=14829114|38=300|39=0|40=1|54=1|55=PFE|59=0|60=20051222-14:30:03|63=0|107=~TG-8614|20=0|10=178|
454 05/12/22 09:30:03:384 Received FIX message
Message dump: 
8=FIX.4.0|9=179|35=D|49=UNXQW|56=NYFIXHUB|34=228|52=20051222-14:30:03|57=MILL|50=UNXQW|129=DOT|128=CAPREGION|11=0F8BE6100100039|21=3|55=GE|54=2|38=300|40=1|59=0|1=240501|107=~BUR-57|100=N|6110=Y|10=149|
455 05/12/22 09:30:03:384 Received FIX message
Message dump: 
8=FIX.4.0|9=180|35=D|49=UNXQW|56=NYFIXHUB|34=229|52=20051222-14:30:03|57=MILL|50=UNXQW|129=DOT|128=CAPREGION|11=0F8BE630010003A|21=3|55=CHS|54=1|38=230|40=1|59=0|1=222501|107=~BUR-58|100=N|6110=Y|10=236|
456 05/12/22 09:30:03:384 Received FIX message
Message dump: 
8=FIX.4.0|9=180|35=D|49=UNXQW|56=NYFIXHUB|34=230|52=20051222-14:30:03|57=MILL|50=UNXQW|129=DOT|128=CAPREGION|11=0F8BE6D0010003B|21=3|55=UNH|54=1|38=811|40=1|59=0|1=222501|107=~BUR-59|100=N|6110=Y|10=009|
457 05/12/22 09:30:03:413 Sent FIX Message
Message dump: 
8=FIX.4.0|9=0265|35=8|49=NYFIXHUB|56=UNXQW|50=OR18|57=UNXQW|34=226|52=20051222-14:30:03|115=CAPREGION|116=DOT|128=UNXQW|1=240001|6=0.00000|11=0F8BE4100100031|14=0|17=190667651|31=0.00000|32=0|37=14781959|38=250|39=0|40=1|54=1|55=WMT|59=0|60=20051222-14:30:03|63=0|107=~TG-7529|20=0|10=218|
458 05/12/22 09:30:03:418 Sent FIX Message
Message dump: 
8=FIX.4.0|9=0265|35=8|49=NYFIXHUB|56=UNXQW|50=OR48|57=UNXQW|34=227|52=20051222-14:30:03|115=CAPREGION|116=DOT|128=UNXQW|1=240001|6=0.00000|11=0F8BE3D00100030|14=0|17=190667652|31=0.00000|32=0|37=14831095|38=200|39=0|40=1|54=1|55=LOW|59=0|60=20051222-14:30:03|63=0|107=~TG-7496|20=0|10=219|
459 05/12/22 09:30:03:545 Sent FIX Message
Message dump: 
8=FIX.4.0|9=0265|35=8|49=NYFIXHUB|56=UNXQW|50=OR43|57=UNXQW|34=228|52=20051222-14:30:03|115=CAPREGION|116=DOT|128=UNXQW|1=240001|6=0.00000|11=0F8BE5700100036|14=0|17=190667656|31=0.00000|32=0|37=14822653|38=900|39=0|40=1|54=1|55=HPQ|59=0|60=20051222-14:30:03|63=0|107=~TG-4376|20=0|10=206|
460 05/12/22 09:30:03:550 Sent FIX Message
Message dump: 
8=FIX.4.0|9=0266|35=8|49=NYFIXHUB|56=UNXQW|50=OR33|57=UNXQW|34=229|52=20051222-14:30:03|115=CAPREGION|116=DOT|128=UNXQW|1=240001|6=0.00000|11=0F8BE4F00100035|14=0|17=190667655|31=0.00000|32=0|37=14826566|38=2200|39=0|40=1|54=1|55=MOT|59=0|60=20051222-14:30:03|63=0|107=~TG-3683|20=0|10=020|
461 05/12/22 09:30:03:556 Sent FIX Message
Message dump: 
8=FIX.4.0|9=0265|35=8|49=NYFIXHUB|56=UNXQW|50=OR46|57=UNXQW|34=230|52=20051222-14:30:03|115=CAPREGION|116=DOT|128=UNXQW|1=222501|6=0.00000|11=0F8BE6D0010003B|14=0|17=190667658|31=0.00000|32=0|37=14826099|38=811|39=0|40=1|54=1|55=UNH|59=0|60=20051222-14:30:03|63=0|107=~TG-3895|20=0|10=251|
462 05/12/22 09:30:03:593 Sent FIX Message
Message dump: 
8=FIX.4.0|9=0264|35=8|49=NYFIXHUB|56=UNXQW|50=OR44|57=UNXQW|34=231|52=20051222-14:30:03|115=CAPREGION|116=DOT|128=UNXQW|1=240501|6=0.00000|11=0F8BE6100100039|14=0|17=190667661|31=0.00000|32=0|37=14820873|38=300|39=0|40=1|54=2|55=GE|59=0|60=20051222-14:30:03|63=0|107=~TG-8734|20=0|10=105|
463 05/12/22 09:30:03:597 Sent FIX Message
Message dump: 
8=FIX.4.0|9=0266|35=8|49=NYFIXHUB|56=UNXQW|50=OR33|57=UNXQW|34=232|52=20051222-14:30:03|115=CAPREGION|116=DOT|128=UNXQW|1=240001|6=0.00000|11=0F8BE5900100037|14=0|17=190667662|31=0.00000|32=0|37=14826567|38=1100|39=0|40=1|54=1|55=MOT|59=0|60=20051222-14:30:03|63=0|107=~TG-3684|20=0|10=002|
464 05/12/22 09:30:03:603 Sent FIX Message
Message dump: 
8=FIX.4.0|9=0264|35=8|49=NYFIXHUB|56=UNXQW|50=OR9|57=UNXQW|34=233|52=20051222-14:30:03|115=CAPREGION|116=DOT|128=UNXQW|1=222501|6=0.00000|11=0F8BE630010003A|14=0|17=190667663|31=0.00000|32=0|37=14777838|38=230|39=0|40=1|54=1|55=CHS|59=0|60=20051222-14:30:03|63=0|107=~TG-4568|20=0|10=168|
465 05/12/22 09:30:03:640 Sent FIX Message
Message dump: 
8=FIX.4.0|9=0264|35=8|49=NYFIXHUB|56=UNXQW|50=OR3|57=UNXQW|34=234|52=20051222-14:30:03|115=CAPREGION|116=DOT|128=UNXQW|1=240001|6=0.00000|11=0F8BE5B00100038|14=0|17=190667665|31=0.00000|32=0|37=14772884|38=300|39=0|40=1|54=1|55=UPS|59=0|60=20051222-14:30:03|63=0|107=~TG-1988|20=0|10=188|
466 05/12/22 09:30:03:705 Received FIX message
Message dump: 
8=FIX.4.0|9=180|35=D|49=UNXQW|56=NYFIXHUB|34=231|52=20051222-14:30:03|57=MILL|50=UNXQW|129=DOT|128=CAPREGION|11=0F8BE750010003C|21=3|55=XOM|54=2|38=200|40=1|59=0|1=240501|107=~BUR-60|100=N|6110=Y|10=247|
467 05/12/22 09:30:03:706 Received FIX message
Message dump: 
8=FIX.4.0|9=180|35=D|49=UNXQW|56=NYFIXHUB|34=232|52=20051222-14:30:03|57=MILL|50=UNXQW|129=DOT|128=CAPREGION|11=0F8BE8F0010003D|21=3|55=UNM|54=2|38=220|40=1|59=0|1=222501|107=~BUR-61|100=N|6110=Y|10=010|
468 05/12/22 09:30:03:706 Received FIX message
Message dump: 
8=FIX.4.0|9=178|35=D|49=UNXQW|56=NYFIXHUB|34=233|52=20051222-14:30:03|57=MILL|50=UNXQW|129=DOT|128=CAPREGION|11=0F8BE990010003E|21=3|55=F|54=2|38=200|40=1|59=0|1=240505|107=~BUR-62|100=N|6110=Y|10=096|
469 05/12/22 09:30:03:706 Received FIX message
Message dump: 
8=FIX.4.0|9=180|35=D|49=UNXQW|56=NYFIXHUB|34=234|52=20051222-14:30:03|57=MILL|50=UNXQW|129=DOT|128=CAPREGION|11=0F8BEB70010003F|21=3|55=CZN|54=1|38=320|40=1|59=0|1=222501|107=~BUR-63|100=N|6110=Y|10=006|
470 05/12/22 09:30:03:707 Received FIX message
Message dump: 
8=FIX.4.0|9=180|35=D|49=UNXQW|56=NYFIXHUB|34=235|52=20051222-14:30:03|57=MILL|50=UNXQW|129=DOT|128=CAPREGION|11=0F8BEC200100040|21=3|55=CZN|54=1|38=320|40=1|59=0|1=222501|107=~BUR-64|100=N|6110=Y|10=239|
471 05/12/22 09:30:03:707 Received FIX message
Message dump: 
8=FIX.4.0|9=180|35=D|49=UNXQW|56=NYFIXHUB|34=236|52=20051222-14:30:03|57=MILL|50=UNXQW|129=DOT|128=CAPREGION|11=0F8BEC400100041|21=3|55=BLW|54=1|38=200|40=1|59=0|1=240501|107=~BUR-65|100=N|6110=Y|10=235|
472 05/12/22 09:30:03:840 Received FIX message
Message dump: 
8=FIX.4.0|9=178|35=D|49=UNXQW|56=NYFIXHUB|34=237|52=20051222-14:30:03|57=MILL|50=UNXQW|129=DOT|128=CAPREGION|11=0F8BEC600100042|21=3|55=F|54=2|38=200|40=1|59=0|1=240505|107=~BUR-66|100=N|6110=Y|10=093|
473 05/12/22 09:30:03:841 Received FIX message
Message dump: 
8=FIX.4.0|9=181|35=D|49=UNXQW|56=NYFIXHUB|34=238|52=20051222-14:30:03|57=MILL|50=UNXQW|129=DOT|128=CAPREGION|11=0F8BECA00100043|21=3|55=KMB|54=2|38=1100|40=1|59=0|1=205182|107=~BUR-67|100=N|6110=Y|10=043|
474 05/12/22 09:30:03:841 Received FIX message
Message dump: 
8=FIX.4.0|9=181|35=D|49=UNXQW|56=NYFIXHUB|34=239|52=20051222-14:30:03|57=MILL|50=UNXQW|129=DOT|128=CAPREGION|11=0F8BECE00100044|21=3|55=TWX|54=1|38=1000|40=1|59=0|1=205183|107=~BUR-68|100=N|6110=Y|10=090|
475 05/12/22 09:30:03:842 Received FIX message
Message dump: 
8=FIX.4.0|9=180|35=D|49=UNXQW|56=NYFIXHUB|34=240|52=20051222-14:30:03|57=MILL|50=UNXQW|129=DOT|128=CAPREGION|11=0F8BED000100045|21=3|55=WMT|54=1|38=400|40=1|59=0|1=240001|107=~BUR-69|100=N|6110=Y|10=251|
476 05/12/22 09:30:03:888 Sent FIX Message
Message dump: 
8=FIX.4.0|9=0263|35=8|49=NYFIXHUB|56=UNXQW|50=OR21|57=UNXQW|34=235|52=20051222-14:30:03|115=CAPREGION|116=DOT|128=UNXQW|1=240505|6=0.00000|11=0F8BE990010003E|14=0|17=190667672|31=0.00000|32=0|37=14805340|38=200|39=0|40=1|54=2|55=F|59=0|60=20051222-14:30:03|63=0|107=~TG-4773|20=0|10=052|
477 05/12/22 09:30:03:892 Sent FIX Message
Message dump: 
8=FIX.4.0|9=0265|35=8|49=NYFIXHUB|56=UNXQW|50=OR48|57=UNXQW|34=236|52=20051222-14:30:03|115=CAPREGION|116=DOT|128=UNXQW|1=240501|6=0.00000|11=0F8BEC400100041|14=0|17=190667671|31=0.00000|32=0|37=14831096|38=200|39=0|40=1|54=1|55=BLW|59=0|60=20051222-14:30:03|63=0|107=~TG-7497|20=0|10=216|
478 05/12/22 09:30:03:896 Sent FIX Message
Message dump: 
8=FIX.4.0|9=0265|35=8|49=NYFIXHUB|56=UNXQW|50=OR12|57=UNXQW|34=237|52=20051222-14:30:03|115=CAPREGION|116=DOT|128=UNXQW|1=222501|6=0.00000|11=0F8BEB70010003F|14=0|17=190667673|31=0.00000|32=0|37=14776406|38=320|39=0|40=1|54=1|55=CZN|59=0|60=20051222-14:30:03|63=0|107=~TG-9002|20=0|10=228|
479 05/12/22 09:30:03:901 Sent FIX Message
Message dump: 
8=FIX.4.0|9=0264|35=8|49=NYFIXHUB|56=UNXQW|50=OR3|57=UNXQW|34=238|52=20051222-14:30:03|115=CAPREGION|116=DOT|128=UNXQW|1=240501|6=0.00000|11=0F8BE750010003C|14=0|17=190667674|31=0.00000|32=0|37=14772886|38=200|39=0|40=1|54=2|55=XOM|59=0|60=20051222-14:30:03|63=0|107=~TG-1990|20=0|10=188|
480 05/12/22 09:30:03:905 Sent FIX Message
Message dump: 
8=FIX.4.0|9=0265|35=8|49=NYFIXHUB|56=UNXQW|50=OR12|57=UNXQW|34=239|52=20051222-14:30:03|115=CAPREGION|116=DOT|128=UNXQW|1=222501|6=0.00000|11=0F8BEC200100040|14=0|17=190667675|31=0.00000|32=0|37=14776407|38=320|39=0|40=1|54=1|55=CZN|59=0|60=20051222-14:30:03|63=0|107=~TG-9003|20=0|10=209|
481 05/12/22 09:30:03:975 Sent FIX Message
Message dump: 
8=FIX.4.0|9=0265|35=8|49=NYFIXHUB|56=UNXQW|50=OR18|57=UNXQW|34=240|52=20051222-14:30:03|115=CAPREGION|116=DOT|128=UNXQW|1=222501|6=0.00000|11=0F8BE8F0010003D|14=0|17=190667677|31=0.00000|32=0|37=14781961|38=220|39=0|40=1|54=2|55=UNM|59=0|60=20051222-14:30:03|63=0|107=~TG-7531|20=0|10=247|
482 05/12/22 09:30:03:980 Sent FIX Message
Message dump: 
8=FIX.4.0|9=0266|35=8|49=NYFIXHUB|56=UNXQW|50=OR46|57=UNXQW|34=241|52=20051222-14:30:03|115=CAPREGION|116=DOT|128=UNXQW|1=205182|6=0.00000|11=0F8BECA00100043|14=0|17=190667680|31=0.00000|32=0|37=14826100|38=1100|39=0|40=1|54=2|55=KMB|59=0|60=20051222-14:30:03|63=0|107=~TG-3896|20=0|10=003|
483 05/12/22 09:30:03:986 Received FIX message
Message dump: 
8=FIX.4.0|9=179|35=D|49=UNXQW|56=NYFIXHUB|34=241|52=20051222-14:30:03|57=MILL|50=UNXQW|129=DOT|128=CAPREGION|11=0F8BED200100046|21=3|55=KO|54=1|38=400|40=1|59=0|1=240001|107=~BUR-70|100=N|6110=Y|10=161|
484 05/12/22 09:30:03:986 Sent FIX Message
Message dump: 
8=FIX.4.0|9=0266|35=8|49=NYFIXHUB|56=UNXQW|50=OR17|57=UNXQW|34=242|52=20051222-14:30:03|115=CAPREGION|116=DOT|128=UNXQW|1=205183|6=0.00000|11=0F8BECE00100044|14=0|17=190667681|31=0.00000|32=0|37=14784348|38=1000|39=0|40=1|54=1|55=TWX|59=0|60=20051222-14:30:03|63=0|107=~TG-5165|20=0|10=056|
485 05/12/22 09:30:03:995 Received FIX message
Message dump: 
8=FIX.4.0|9=180|35=D|49=UNXQW|56=NYFIXHUB|34=242|52=20051222-14:30:03|57=MILL|50=UNXQW|129=DOT|128=CAPREGION|11=0F8BED400100047|21=3|55=CCU|54=2|38=300|40=1|59=0|1=240001|107=~BUR-71|100=N|6110=Y|10=223|
486 05/12/22 09:30:03:995 Sent FIX Message
Message dump: 
8=FIX.4.0|9=0263|35=8|49=NYFIXHUB|56=UNXQW|50=OR21|57=UNXQW|34=243|52=20051222-14:30:03|115=CAPREGION|116=DOT|128=UNXQW|1=240505|6=0.00000|11=0F8BEC600100042|14=0|17=190667682|31=0.00000|32=0|37=14805341|38=200|39=0|40=1|54=2|55=F|59=0|60=20051222-14:30:03|63=0|107=~TG-4774|20=0|10=043|
487 05/12/22 09:30:03:995 Received FIX message
Message dump: 
8=FIX.4.0|9=180|35=D|49=UNXQW|56=NYFIXHUB|34=243|52=20051222-14:30:03|57=MILL|50=UNXQW|129=DOT|128=CAPREGION|11=0F8BED600100048|21=3|55=BUD|54=1|38=300|40=1|59=0|1=240001|107=~BUR-72|100=N|6110=Y|10=227|
488 05/12/22 09:30:04:123 Received FIX message
Message dump: 
8=FIX.4.0|9=180|35=D|49=UNXQW|56=NYFIXHUB|34=244|52=20051222-14:30:03|57=MILL|50=UNXQW|129=DOT|128=CAPREGION|11=0F8BED800100049|21=3|55=WMT|54=1|38=200|40=1|59=0|1=240001|107=~BUR-73|100=N|6110=Y|10=004|
489 05/12/22 09:30:04:124 Received FIX message
Message dump: 
8=FIX.4.0|9=179|35=D|49=UNXQW|56=NYFIXHUB|34=245|52=20051222-14:30:03|57=MILL|50=UNXQW|129=DOT|128=CAPREGION|11=0F8BEDA0010004A|21=3|55=KO|54=1|38=200|40=1|59=0|1=240001|107=~BUR-74|100=N|6110=Y|10=193|
490 05/12/22 09:30:04:134 Received FIX message
Message dump: 
8=FIX.4.0|9=180|35=D|49=UNXQW|56=NYFIXHUB|34=246|52=20051222-14:30:03|57=MILL|50=UNXQW|129=DOT|128=CAPREGION|11=0F8BEE00010004B|21=3|55=UTX|54=2|38=300|40=1|59=0|1=205126|107=~BUR-75|100=N|6110=Y|10=030|
491 05/12/22 09:30:04:234 Sent FIX Message
Message dump: 
8=FIX.4.0|9=0265|35=8|49=NYFIXHUB|56=UNXQW|50=OR18|57=UNXQW|34=244|52=20051222-14:30:04|115=CAPREGION|116=DOT|128=UNXQW|1=240001|6=0.00000|11=0F8BED000100045|14=0|17=190667684|31=0.00000|32=0|37=14781962|38=400|39=0|40=1|54=1|55=WMT|59=0|60=20051222-14:30:04|63=0|107=~TG-7532|20=0|10=231|
492 05/12/22 09:30:04:245 Sent FIX Message
Message dump: 
8=FIX.4.0|9=0265|35=8|49=NYFIXHUB|56=UNXQW|50=OR11|57=UNXQW|34=245|52=20051222-14:30:04|115=CAPREGION|116=DOT|128=UNXQW|1=240001|6=0.00000|11=0F8BED400100047|14=0|17=190667689|31=0.00000|32=0|37=14823607|38=300|39=0|40=1|54=2|55=CCU|59=0|60=20051222-14:30:04|63=0|107=~TG-9100|20=0|10=193|
493 05/12/22 09:30:04:251 Sent FIX Message
Message dump: 
8=FIX.4.0|9=0264|35=8|49=NYFIXHUB|56=UNXQW|50=OR3|57=UNXQW|34=246|52=20051222-14:30:04|115=CAPREGION|116=DOT|128=UNXQW|1=240001|6=0.00000|11=0F8BED600100048|14=0|17=190667690|31=0.00000|32=0|37=14772888|38=300|39=0|40=1|54=1|55=BUD|59=0|60=20051222-14:30:04|63=0|107=~TG-1992|20=0|10=165|
494 05/12/22 09:30:04:259 Sent FIX Message
Message dump: 
8=FIX.4.0|9=0264|35=8|49=NYFIXHUB|56=UNXQW|50=OR25|57=UNXQW|34=247|52=20051222-14:30:04|115=CAPREGION|116=DOT|128=UNXQW|1=240001|6=0.00000|11=0F8BED200100046|14=0|17=190667688|31=0.00000|32=0|37=14785940|38=400|39=0|40=1|54=1|55=KO|59=0|60=20051222-14:30:04|63=0|107=~TG-8323|20=0|10=143|
495 05/12/22 09:30:04:265 Sent FIX Message
Message dump: 
8=FIX.4.0|9=0264|35=8|49=NYFIXHUB|56=UNXQW|50=OR6|57=UNXQW|34=248|52=20051222-14:30:04|115=CAPREGION|116=DOT|128=UNXQW|1=205126|6=0.00000|11=0F8BEE00010004B|14=0|17=190667692|31=0.00000|32=0|37=14820170|38=300|39=0|40=1|54=2|55=UTX|59=0|60=20051222-14:30:04|63=0|107=~TG-6533|20=0|10=199|
496 05/12/22 09:30:04:278 Sent FIX Message
Message dump: 
8=FIX.4.0|9=0265|35=8|49=NYFIXHUB|56=UNXQW|50=OR18|57=UNXQW|34=249|52=20051222-14:30:04|115=CAPREGION|116=DOT|128=UNXQW|1=240001|6=0.00000|11=0F8BED800100049|14=0|17=190667693|31=0.00000|32=0|37=14781963|38=200|39=0|40=1|54=1|55=WMT|59=0|60=20051222-14:30:04|63=0|107=~TG-7533|20=0|10=248|
497 05/12/22 09:30:04:320 Sent FIX Message
Message dump: 
8=FIX.4.0|9=0264|35=8|49=NYFIXHUB|56=UNXQW|50=OR25|57=UNXQW|34=250|52=20051222-14:30:04|115=CAPREGION|116=DOT|128=UNXQW|1=240001|6=0.00000|11=0F8BEDA0010004A|14=0|17=190667694|31=0.00000|32=0|37=14785941|38=200|39=0|40=1|54=1|55=KO|59=0|60=20051222-14:30:04|63=0|107=~TG-8324|20=0|10=160|
498 05/12/22 09:30:04:329 Received FIX message
Message dump: 
8=FIX.4.0|9=181|35=D|49=UNXQW|56=NYFIXHUB|34=247|52=20051222-14:30:04|57=MILL|50=UNXQW|129=DOT|128=CAPREGION|11=0F8BEED0010004C|21=3|55=TWX|54=1|38=1000|40=1|59=0|1=205181|107=~BUR-76|100=N|6110=Y|10=103|
499 05/12/22 09:30:04:330 Received FIX message
Message dump: 
8=FIX.4.0|9=181|35=D|49=UNXQW|56=NYFIXHUB|34=248|52=20051222-14:30:04|57=MILL|50=UNXQW|129=DOT|128=CAPREGION|11=0F8BEEF0010004D|21=3|55=LOW|54=1|38=1000|40=1|59=0|1=205184|107=~BUR-77|100=N|6110=Y|10=094|
500 05/12/22 09:30:04:380 Received FIX message
Message dump: 
8=FIX.4.0|9=181|35=D|49=UNXQW|56=NYFIXHUB|34=249|52=20051222-14:30:04|57=MILL|50=UNXQW|129=DOT|128=CAPREGION|11=0F8BEF10010004E|21=3|55=TXN|54=2|38=1000|40=1|59=0|1=205184|107=~BUR-78|100=N|6110=Y|10=086|
501 05/12/22 09:30:04:380 Received FIX message
Message dump: 
8=FIX.4.0|9=180|35=D|49=UNXQW|56=NYFIXHUB|34=250|52=20051222-14:30:04|57=MILL|50=UNXQW|129=DOT|128=CAPREGION|11=0F8BEF30010004F|21=3|55=AMP|54=2|38=200|40=1|59=0|1=205182|107=~BUR-79|100=N|6110=Y|10=004|
502 05/12/22 09:30:04:381 Received FIX message
Message dump: 
8=FIX.4.0|9=181|35=D|49=UNXQW|56=NYFIXHUB|34=251|52=20051222-14:30:04|57=MILL|50=UNXQW|129=DOT|128=CAPREGION|11=0F8BEF500100050|21=3|55=TWX|54=1|38=1000|40=1|59=0|1=205182|107=~BUR-80|100=N|6110=Y|10=062|
503 05/12/22 09:30:04:381 Received FIX message
Message dump: 
8=FIX.4.0|9=180|35=D|49=UNXQW|56=NYFIXHUB|34=252|52=20051222-14:30:04|57=MILL|50=UNXQW|129=DOT|128=CAPREGION|11=0F8BEFD00100051|21=3|55=FNM|54=2|38=200|40=1|59=0|1=240001|107=~BUR-81|100=N|6110=Y|10=244|
504 05/12/22 09:30:04:381 Received FIX message
Message dump: 
8=FIX.4.0|9=181|35=D|49=UNXQW|56=NYFIXHUB|34=253|52=20051222-14:30:04|57=MILL|50=UNXQW|129=DOT|128=CAPREGION|11=0F8BF0100100052|21=3|55=JNJ|54=2|38=2500|40=1|59=0|1=205182|107=~BUR-82|100=N|6110=Y|10=017|
505 05/12/22 09:30:04:472 Received FIX message
Message dump: 
8=FIX.4.0|9=179|35=D|49=UNXQW|56=NYFIXHUB|34=254|52=20051222-14:30:04|57=MILL|50=UNXQW|129=DOT|128=CAPREGION|11=0F8BF8700100053|21=3|55=VZ|54=2|38=572|40=1|59=0|1=240001|107=~BUR-83|100=N|6110=Y|10=195|
506 05/12/22 09:30:04:472 Received FIX message
Message dump: 
8=FIX.4.0|9=179|35=D|49=UNXQW|56=NYFIXHUB|34=255|52=20051222-14:30:04|57=MILL|50=UNXQW|129=DOT|128=CAPREGION|11=0F8BF8900100054|21=3|55=KO|54=2|38=250|40=1|59=0|1=240001|107=~BUR-84|100=N|6110=Y|10=171|
507 05/12/22 09:30:04:473 Received FIX message
Message dump: 
8=FIX.4.0|9=180|35=D|49=UNXQW|56=NYFIXHUB|34=256|52=20051222-14:30:04|57=MILL|50=UNXQW|129=DOT|128=CAPREGION|11=0F8BF9300100055|21=3|55=AA|54=2|38=1000|40=1|59=0|1=283501|107=~BUR-85|100=N|6110=Y|10=191|
508 05/12/22 09:30:04:547 Sent FIX Message
Message dump: 
8=FIX.4.0|9=0266|35=8|49=NYFIXHUB|56=UNXQW|50=OR48|57=UNXQW|34=251|52=20051222-14:30:04|115=CAPREGION|116=DOT|128=UNXQW|1=205184|6=0.00000|11=0F8BEEF0010004D|14=0|17=190667701|31=0.00000|32=0|37=14831097|38=1000|39=0|40=1|54=1|55=LOW|59=0|60=20051222-14:30:04|63=0|107=~TG-7498|20=0|10=063|
509 05/12/22 09:30:04:552 Sent FIX Message
Message dump: 
8=FIX.4.0|9=0266|35=8|49=NYFIXHUB|56=UNXQW|50=OR17|57=UNXQW|34=252|52=20051222-14:30:04|115=CAPREGION|116=DOT|128=UNXQW|1=205181|6=0.00000|11=0F8BEED0010004C|14=0|17=190667700|31=0.00000|32=0|37=14784349|38=1000|39=0|40=1|54=1|55=TWX|59=0|60=20051222-14:30:04|63=0|107=~TG-5166|20=0|10=067|
510 05/12/22 09:30:04:556 Sent FIX Message
