8=FIX.4.0|9=0314|35=8|49=NYFIXHUB|56=UNXQW|50=OR34|57=UNXQW2|34=356|52=20051222-14:30:09|115=CAPREGION|116=DOT2|128=UNXQW2|1=306047|6=57.40000|11=0F8C1D500100005|14=8160|17=190667892|30=N|31=57.40000|32=8160|37=14822144|38=8160|39=2|40=2|44=57.00000|54=2|55=CAT|58=20 LOC81/0000 093008@|60=20051222-14:30:08|63=0|107=~TG-5819|20=0|10=144|
8=FIX.4.0|9=0294|35=8|49=NYFIXHUB|56=UNXQW|50=OR7|57=UNXQW|34=388|52=20051222-14:30:11|115=CAPREGION|116=DOT|128=UNXQW|1=205033|6=63.45000|11=0F8BDB60030008D|14=150|17=190667937|30=N|31=63.45000|32=150|37=14769334|38=150|39=2|40=1|54=1|55=AT|58=501 TOD1/0000 093010@|60=20051222-14:30:10|63=0|107=~TG-5054|20=0|10=207|
8=FIX.4.0|9=0299|35=8|49=NYFIXHUB|56=UNXQW|50=OR32|57=UNXQW|34=402|52=20051222-14:30:11|115=CAPREGION|116=DOT|128=UNXQW|1=242906|6=28.63000|11=0F8C04300100069|14=1000|17=190667955|30=N|31=28.63000|32=1000|37=14821748|38=1000|39=2|40=1|54=2|55=ACN|58=20 TOD10/0000 093010@|60=20051222-14:30:10|63=0|107=~TG-5379|20=0|10=145|
8=FIX.4.0|9=0318|35=8|49=NYFIXHUB|56=UNXQW|50=OR3|57=UNXQW2|34=403|52=20051222-14:30:11|115=CAPREGION|116=DOT2|128=UNXQW2|1=306047|6=57.88000|11=0F8C3B70010000B|14=15000|17=190667969|30=N|31=57.88000|32=15000|37=14772866|38=15000|39=2|40=2|44=58.00000|54=1|55=XOM|58=210 LOC150/0000 093011@|60=20051222-14:30:11|63=0|107=~TG-1978|20=0|10=114|
8=FIX.4.0|9=0300|35=8|49=NYFIXHUB|56=UNXQW|50=OR26|57=UNXQW|34=405|52=20051222-14:30:11|115=CAPREGION|116=DOT|128=UNXQW|1=242906|6=82.83000|11=0F8C11C00100096|14=2000|17=190667962|30=N|31=82.83000|32=2000|37=14787995|38=2000|39=2|40=1|54=2|55=IBM|58=501 TOD20/0000 093011@|60=20051222-14:30:11|63=0|107=~TG-6855|20=0|10=229|
8=FIX.4.0|9=0298|35=8|49=NYFIXHUB|56=UNXQW|50=OR19|57=UNXQW|34=411|52=20051222-14:30:12|115=CAPREGION|116=DOT|128=UNXQW|1=242906|6=9.84000|11=0F8C0C70010007D|14=3800|17=190667980|30=N|31=9.84000|32=3800|37=14827118|38=3800|39=2|40=1|54=1|55=TSM|58=210 TOD38/0000 093011@|60=20051222-14:30:11|63=0|107=~TG-9205|20=0|10=200|
8=FIX.4.0|9=0294|35=8|49=NYFIXHUB|56=UNXQW|50=OR19|57=UNXQW|34=412|52=20051222-14:30:12|115=CAPREGION|116=DOT|128=UNXQW|1=242906|6=9.83600|11=0F8C08300100073|14=500|17=190667981|30=N|31=9.84000|32=400|37=14827115|38=500|39=2|40=1|54=1|55=TSM|58=210 TOD4/0000 093011@|60=20051222-14:30:11|63=0|107=~TG-9204|20=0|10=205|
8=FIX.4.0|9=0294|35=8|49=NYFIXHUB|56=UNXQW|50=OR19|57=UNXQW|34=413|52=20051222-14:30:12|115=CAPREGION|116=DOT|128=UNXQW|1=242906|6=9.84000|11=0F8C0D100100081|14=340|17=190667985|30=N|31=9.84000|32=340|37=14827119|38=340|39=2|40=1|54=1|55=TSM|58=210 TOD3/0000 093011@|60=20051222-14:30:11|63=0|107=~TG-9206|20=0|10=226|
8=FIX.4.0|9=0294|35=8|49=NYFIXHUB|56=UNXQW|50=OR44|57=UNXQW|34=426|52=20051222-14:30:13|115=CAPREGION|116=DOT|128=UNXQW|1=242906|6=35.40000|11=0F8BFCB00100059|14=345|17=190668017|30=N|31=35.40000|32=345|37=14820876|38=345|39=2|40=1|54=1|55=GE|58=20 TOD3/0000 093012@|60=20051222-14:30:12|63=0|107=~TG-8737|20=0|10=211|
8=FIX.4.0|9=0294|35=8|49=NYFIXHUB|56=UNXQW|50=OR44|57=UNXQW|34=427|52=20051222-14:30:13|115=CAPREGION|116=DOT|128=UNXQW|1=242906|6=35.40000|11=0F8C18E001000B0|14=215|17=190668019|30=N|31=35.40000|32=215|37=14820881|38=215|39=2|40=1|54=1|55=GE|58=20 TOD2/0000 093012@|60=20051222-14:30:12|63=0|107=~TG-8740|20=0|10=167|
8=FIX.4.0|9=0294|35=8|49=NYFIXHUB|56=UNXQW|50=OR44|57=UNXQW|34=428|52=20051222-14:30:13|115=CAPREGION|116=DOT|128=UNXQW|1=240501|6=35.40000|11=0F8BE6100100039|14=300|17=190668021|30=N|31=35.40000|32=300|37=14820873|38=300|39=2|40=1|54=2|55=GE|58=20 TOD3/0000 093012@|60=20051222-14:30:12|63=0|107=~TG-8734|20=0|10=132|
8=FIX.4.0|9=0294|35=8|49=NYFIXHUB|56=UNXQW|50=OR44|57=UNXQW|34=429|52=20051222-14:30:13|115=CAPREGION|116=DOT|128=UNXQW|1=242906|6=35.40000|11=0F8C06C0010006E|14=945|17=190668024|30=N|31=35.40000|32=945|37=14820877|38=945|39=2|40=1|54=1|55=GE|58=20 TOD9/0000 093012@|60=20051222-14:30:12|63=0|107=~TG-8738|20=0|10=218|
8=FIX.4.0|9=0296|35=8|49=NYFIXHUB|56=UNXQW|50=OR26|57=UNXQW|34=430|52=20051222-14:30:13|115=CAPREGION|116=DOT|128=UNXQW|1=222501|6=82.85000|11=0F8BE67003000CA|14=175|17=190668035|30=N|31=82.85000|32=175|37=14787999|38=175|39=2|40=1|54=2|55=IBM|58=501 TOD1/0000 093012@|60=20051222-14:30:12|63=0|107=~TG-6858|20=0|10=112|
8=FIX.4.0|9=0295|35=8|49=NYFIXHUB|56=UNXQW|50=OR29|57=UNXQW|34=454|52=20051222-14:30:14|115=CAPREGION|116=DOT|128=UNXQW|1=233701|6=39.88000|11=0F8BDBA00100018|14=250|17=190668066|30=N|31=39.88000|32=250|37=14788383|38=250|39=2|40=1|54=2|55=JPM|58=20 TOD2/0000 093013@|60=20051222-14:30:13|63=0|107=~TG-2994|20=0|10=064|
8=FIX.4.0|9=0268|35=8|49=NYFIXHUB|56=UNXQW|50=OR26|57=UNXQW|34=511|52=20051222-14:30:15|115=CAPREGION|116=DOT|128=UNXQW|1=271401|6=82.83000|11=0F8C23C001000BC|14=50|17=190668179|30=N|31=82.83000|32=50|37=14787996|38=50|39=2|40=1|54=2|55=IBM|60=20051222-14:30:00|63=0|107=~TG-6856|20=0|10=200|
8=FIX.4.0|9=0294|35=8|49=NYFIXHUB|56=UNXQW|50=OR44|57=UNXQW|34=513|52=20051222-14:30:15|115=CAPREGION|116=DOT|128=UNXQW|1=271401|6=35.38000|11=0F8C23A001000BB|14=140|17=190668182|30=N|31=35.38000|32=140|37=14820882|38=140|39=2|40=1|54=2|55=GE|58=20 TOD1/0000 093014@|60=20051222-14:30:14|63=0|107=~TG-8741|20=0|10=179|
8=FIX.4.0|9=0297|35=8|49=NYFIXHUB|56=UNXQW|50=OR46|57=UNXQW|34=515|52=20051222-14:30:15|115=CAPREGION|116=DOT|128=UNXQW|1=242906|6=22.94000|11=0F8C3F0001000DC|14=200|17=190668181|30=N|31=22.94000|32=200|37=14826127|38=200|39=2|40=1|54=1|55=WFR|58=1418 TOD2/0000 093014@|60=20051222-14:30:14|63=0|107=~TG-9401|20=0|10=129|
8=FIX.4.0|9=0295|35=8|49=NYFIXHUB|56=UNXQW|50=OR32|57=UNXQW|34=535|52=20051222-14:30:16|115=CAPREGION|116=DOT|128=UNXQW|1=240501|6=28.68000|11=0F8BDDC00100021|14=225|17=190668240|30=N|31=28.68000|32=225|37=14821727|38=225|39=2|40=1|54=1|55=ACN|58=20 OPN2/0000 093007@|60=20051222-14:30:07|63=0|107=~TG-5372|20=0|10=019|
8=FIX.4.0|9=0269|35=8|49=NYFIXHUB|56=UNXQW|50=OR34|57=UNXQW|34=536|52=20051222-14:30:17|115=CAPREGION|116=DOT|128=UNXQW|1=242906|6=127.52000|11=0F8C00100300108|14=50|17=190668268|30=N|31=127.52000|32=50|37=14822240|38=50|39=2|40=1|54=1|55=GS|60=20051222-14:30:00|63=0|107=~TG-5871|20=0|10=160|
8=FIX.4.0|9=0297|35=8|49=NYFIXHUB|56=UNXQW|50=OR46|57=UNXQW|34=537|52=20051222-14:30:17|115=CAPREGION|116=DOT|128=UNXQW|1=242906|6=22.94000|11=0F8BFCD0030010F|14=150|17=190668258|30=N|31=22.94000|32=150|37=14826142|38=150|39=2|40=1|54=1|55=WFR|58=1418 TOD1/0000 093016@|60=20051222-14:30:16|63=0|107=~TG-9407|20=0|10=179|
8=FIX.4.0|9=0300|35=8|49=NYFIXHUB|56=UNXQW|50=OR16|57=UNXQW|34=538|52=20051222-14:30:17|115=CAPREGION|116=DOT|128=UNXQW|1=242906|6=32.36000|11=0F8C0FD0010008E|14=1000|17=190668287|30=N|31=32.36000|32=1000|37=14773341|38=1000|39=2|40=1|54=1|55=BK|58=1418 TOD10/0000 093016@|60=20051222-14:30:16|63=0|107=~TG-3774|20=0|10=226|
8=FIX.4.0|9=0268|35=8|49=NYFIXHUB|56=UNXQW|50=OR11|57=UNXQW|34=539|52=20051222-14:30:17|115=CAPREGION|116=DOT|128=UNXQW|1=222501|6=42.01000|11=0F8BE8B003000E2|14=60|17=190668299|30=N|31=42.01000|32=60|37=14823629|38=60|39=2|40=1|54=1|55=PBI|60=20051222-14:30:00|63=0|107=~TG-9102|20=0|10=164|
8=FIX.4.0|9=0296|35=8|49=NYFIXHUB|56=UNXQW|50=OR31|57=UNXQW|34=540|52=20051222-14:30:17|115=CAPREGION|116=DOT|128=UNXQW|1=242906|6=28.97000|11=0F8C163001000A5|14=650|17=190668303|30=N|31=28.97000|32=650|37=14785354|38=650|39=2|40=1|54=2|55=TYC|58=210 TOD6/0000 093016@|60=20051222-14:30:16|63=0|107=~TG-2379|20=0|10=095|
8=FIX.4.0|9=0268|35=8|49=NYFIXHUB|56=UNXQW|50=OR11|57=UNXQW|34=541|52=20051222-14:30:17|115=CAPREGION|116=DOT|128=UNXQW|1=222501|6=42.01000|11=0F8BE95003000E3|14=60|17=190668300|30=N|31=42.01000|32=60|37=14823630|38=60|39=2|40=1|54=1|55=PBI|60=20051222-14:30:00|63=0|107=~TG-9103|20=0|10=122|
8=FIX.4.0|9=0295|35=8|49=NYFIXHUB|56=UNXQW|50=OR3|57=UNXQW|34=542|52=20051222-14:30:17|115=CAPREGION|116=DOT|128=UNXQW|1=242906|6=44.05000|11=0F8C194001000B3|14=500|17=190668306|30=N|31=44.05000|32=500|37=14772899|38=500|39=2|40=1|54=2|55=BUD|58=501 TOD5/0000 093017@|60=20051222-14:30:17|63=0|107=~TG-1997|20=0|10=007|
8=FIX.4.0|9=0295|35=8|49=NYFIXHUB|56=UNXQW|50=OR48|57=UNXQW|34=543|52=20051222-14:30:18|115=CAPREGION|116=DOT|128=UNXQW|1=242906|6=53.65000|11=0F8C00B0030011D|14=100|17=190668326|30=N|31=53.65000|32=100|37=14831114|38=100|39=2|40=1|54=1|55=WB|58=210 TOD1/0000 093017@|60=20051222-14:30:17|63=0|107=~TG-9601|20=0|10=223|
8=FIX.4.0|9=0297|35=8|49=NYFIXHUB|56=UNXQW|50=OR42|57=UNXQW|34=544|52=20051222-14:30:18|115=CAPREGION|116=DOT|128=UNXQW|1=240501|6=21.48000|11=0F8BDD800100020|14=375|17=190668327|30=N|31=21.48000|32=375|37=14804417|38=375|39=2|40=1|54=1|55=VOD|58=1418 OPN3/0000 093014@|60=20051222-14:30:14|63=0|107=~TG-8406|20=0|10=144|
8=FIX.4.0|9=0294|35=8|49=NYFIXHUB|56=UNXQW|50=OR6|57=UNXQW|34=545|52=20051222-14:30:19|115=CAPREGION|116=DOT|128=UNXQW|1=229801|6=30.62000|11=0F8BE81003000E9|14=125|17=190668388|30=N|31=30.62000|32=125|37=14820215|38=125|39=2|40=1|54=2|55=VZ|58=501 TOD1/0000 093017@|60=20051222-14:30:17|63=0|107=~TG-6544|20=0|10=232|
8=FIX.4.0|9=0299|35=8|49=NYFIXHUB|56=UNXQW|50=OR3|57=UNXQW|34=547|52=20051222-14:30:19|115=CAPREGION|116=DOT|128=UNXQW|1=242906|6=57.89000|11=0F8C0F100100086|14=1096|17=190668394|30=N|31=57.89000|32=1096|37=14772889|38=1096|39=2|40=1|54=2|55=XOM|58=210 TOD10/0000 093018@|60=20051222-14:30:18|63=0|107=~TG-1993|20=0|10=043|
8=FIX.4.0|9=0295|35=8|49=NYFIXHUB|56=UNXQW|50=OR3|57=UNXQW|34=548|52=20051222-14:30:19|115=CAPREGION|116=DOT|128=UNXQW|1=242906|6=57.89000|11=0F8C24B001000BE|14=700|17=190668395|30=N|31=57.89000|32=700|37=14772900|38=700|39=2|40=1|54=2|55=XOM|58=210 TOD7/0000 093018@|60=20051222-14:30:18|63=0|107=~TG-1998|20=0|10=099|
8=FIX.4.0|9=0295|35=8|49=NYFIXHUB|56=UNXQW|50=OR3|57=UNXQW|34=549|52=20051222-14:30:19|115=CAPREGION|116=DOT|128=UNXQW|1=242906|6=57.89000|11=0F8C28A001000C2|14=200|17=190668396|30=N|31=57.89000|32=200|37=14772901|38=200|39=2|40=1|54=1|55=XOM|58=210 TOD2/0000 093018@|60=20051222-14:30:18|63=0|107=~TG-1999|20=0|10=067|
8=FIX.4.0|9=0299|35=8|49=NYFIXHUB|56=UNXQW|50=OR3|57=UNXQW|34=550|52=20051222-14:30:19|115=CAPREGION|116=DOT|128=UNXQW|1=242906|6=57.89000|11=0F8C187001000AF|14=1500|17=190668397|30=N|31=57.89000|32=1500|37=14772896|38=1500|39=2|40=1|54=2|55=XOM|58=210 TOD15/0000 093018@|60=20051222-14:30:18|63=0|107=~TG-1996|20=0|10=034|
8=FIX.4.0|9=0294|35=8|49=NYFIXHUB|56=UNXQW|50=OR6|57=UNXQW|34=551|52=20051222-14:30:19|115=CAPREGION|116=DOT|128=UNXQW|1=242906|6=30.62000|11=0F8C02F0030011F|14=100|17=190668390|30=N|31=30.62000|32=100|37=14820228|38=100|39=2|40=1|54=2|55=VZ|58=501 TOD1/0000 093017@|60=20051222-14:30:17|63=0|107=~TG-6549|20=0|10=200|
8=FIX.4.0|9=0294|35=8|49=NYFIXHUB|56=UNXQW|50=OR6|57=UNXQW|34=552|52=20051222-14:30:19|115=CAPREGION|116=DOT|128=UNXQW|1=240501|6=30.62000|11=0F8BDAC0030008B|14=150|17=190668391|30=N|31=30.62000|32=150|37=14820187|38=150|39=2|40=1|54=2|55=VZ|58=501 TOD1/0000 093017@|60=20051222-14:30:17|63=0|107=~TG-6540|20=0|10=234|
8=FIX.4.0|9=0294|35=8|49=NYFIXHUB|56=UNXQW|50=OR6|57=UNXQW|34=553|52=20051222-14:30:19|115=CAPREGION|116=DOT|128=UNXQW|1=242906|6=30.62000|11=0F8C0CD00100080|14=900|17=190668399|30=N|31=30.62000|32=900|37=14820185|38=900|39=2|40=1|54=2|55=VZ|58=501 TOD9/0000 093017@|60=20051222-14:30:17|63=0|107=~TG-6538|20=0|10=240|
8=FIX.4.0|9=0294|35=8|49=NYFIXHUB|56=UNXQW|50=OR6|57=UNXQW|34=554|52=20051222-14:30:19|115=CAPREGION|116=DOT|128=UNXQW|1=242906|6=30.62000|11=0F8C0F90010008A|14=732|17=190668400|30=N|31=30.62000|32=732|37=14820186|38=732|39=2|40=1|54=2|55=VZ|58=501 TOD7/0000 093017@|60=20051222-14:30:17|63=0|107=~TG-6539|20=0|10=242|
8=FIX.4.0|9=0294|35=8|49=NYFIXHUB|56=UNXQW|50=OR6|57=UNXQW|34=555|52=20051222-14:30:19|115=CAPREGION|116=DOT|128=UNXQW|1=233701|6=30.62000|11=0F8C3E6001000DA|14=500|17=190668401|30=N|31=30.62000|32=500|37=14820210|38=500|39=2|40=1|54=2|55=VZ|58=501 TOD5/0000 093017@|60=20051222-14:30:17|63=0|107=~TG-6543|20=0|10=208|
8=FIX.4.0|9=0296|35=8|49=NYFIXHUB|56=UNXQW|50=OR16|57=UNXQW|34=556|52=20051222-14:30:19|115=CAPREGION|116=DOT|128=UNXQW|1=242906|6=32.36000|11=0F8C1240010009A|14=200|17=190668421|30=N|31=32.36000|32=200|37=14773344|38=200|39=2|40=1|54=2|55=BK|58=1418 TOD2/0000 093018@|60=20051222-14:30:18|63=0|107=~TG-3775|20=0|10=015|
8=FIX.4.0|9=0296|35=8|49=NYFIXHUB|56=UNXQW|50=OR9|57=UNXQW|34=557|52=20051222-14:30:19|115=CAPREGION|116=DOT|128=UNXQW|1=233701|6=56.95000|11=0F8BDF600100023|14=200|17=190668420|30=N|31=56.95000|32=200|37=14777835|38=200|39=2|40=1|54=2|55=LLY|58=1726 OPN2/0000 093011@|60=20051222-14:30:11|63=0|107=~TG-4567|20=0|10=106|
8=FIX.4.0|9=0294|35=8|49=NYFIXHUB|56=UNXQW|50=OR6|57=UNXQW|34=558|52=20051222-14:30:19|115=CAPREGION|116=DOT|128=UNXQW|1=240501|6=30.63000|11=0F8BD9D00100012|14=225|17=190668425|30=N|31=30.63000|32=225|37=14820165|38=225|39=2|40=1|54=2|55=VZ|58=501 OPN2/0000 093012@|60=20051222-14:30:12|63=0|107=~TG-6532|20=0|10=211|
8=FIX.4.0|9=0294|35=8|49=NYFIXHUB|56=UNXQW|50=OR6|57=UNXQW|34=559|52=20051222-14:30:19|115=CAPREGION|116=DOT|128=UNXQW|1=240001|6=30.63000|11=0F8BF8700100053|14=572|17=190668427|30=N|31=30.63000|32=572|37=14820175|38=572|39=2|40=1|54=2|55=VZ|58=501 OPN5/0000 093012@|60=20051222-14:30:12|63=0|107=~TG-6534|20=0|10=223|
8=FIX.4.0|9=0268|35=8|49=NYFIXHUB|56=UNXQW|50=OR39|57=UNXQW|34=561|52=20051222-14:30:19|115=CAPREGION|116=DOT|128=UNXQW|1=222501|6=54.45000|11=0F8BE9D003000E4|14=20|17=190668431|30=N|31=54.45000|32=20|37=14802382|38=20|39=2|40=1|54=1|55=ALL|60=20051222-14:30:00|63=0|107=~TG-1496|20=0|10=173|
8=FIX.4.0|9=0268|35=8|49=NYFIXHUB|56=UNXQW|50=OR26|57=UNXQW|34=562|52=20051222-14:30:20|115=CAPREGION|116=DOT|128=UNXQW|1=222501|6=82.85000|11=0F8BE79003000D1|14=50|17=190668430|30=N|31=82.85000|32=50|37=14788000|38=50|39=2|40=1|54=2|55=IBM|60=20051222-14:30:00|63=0|107=~TG-6859|20=0|10=171|
8=FIX.4.0|9=0296|35=8|49=NYFIXHUB|56=UNXQW|50=OR17|57=UNXQW|34=563|52=20051222-14:30:20|115=CAPREGION|116=DOT|128=UNXQW|1=204004|6=17.61000|11=0F8C3E2001000D7|14=343|17=190668432|30=N|31=17.61000|32=343|37=14784364|38=343|39=2|40=1|54=2|55=TWX|58=501 TOD3/0000 093019@|60=20051222-14:30:19|63=0|107=~TG-5169|20=0|10=109|
8=FIX.4.0|9=0268|35=8|49=NYFIXHUB|56=UNXQW|50=OR39|57=UNXQW|34=564|52=20051222-14:30:20|115=CAPREGION|116=DOT|128=UNXQW|1=222501|6=54.45000|11=0F8BEA7003000EE|14=20|17=190668433|30=N|31=54.45000|32=20|37=14802389|38=20|39=2|40=1|54=1|55=ALL|60=20051222-14:30:00|63=0|107=~TG-1497|20=0|10=190|
8=FIX.4.0|9=0299|35=8|49=NYFIXHUB|56=UNXQW|50=OR29|57=UNXQW|34=565|52=20051222-14:30:20|115=CAPREGION|116=DOT|128=UNXQW|1=268302|6=39.88330|11=0F8C224001000BA|14=1200|17=190668440|30=N|31=39.88000|32=1000|37=14788391|38=1200|39=2|40=1|54=2|55=JPM|58=20 TOD10/0000 093019@|60=20051222-14:30:19|63=0|107=~TG-2996|20=0|10=245|
8=FIX.4.0|9=0295|35=8|49=NYFIXHUB|56=UNXQW|50=OR3|57=UNXQW|34=566|52=20051222-14:30:20|115=CAPREGION|116=DOT|128=UNXQW|1=242906|6=57.90000|11=0F8BFFD0030011E|14=125|17=190668438|30=N|31=57.90000|32=125|37=14772929|38=125|39=2|40=1|54=1|55=XOM|58=210 TOD1/0000 093019@|60=20051222-14:30:19|63=0|107=~TG-9704|20=0|10=100|
8=FIX.4.0|9=0294|35=8|49=NYFIXHUB|56=UNXQW|50=OR14|57=UNXQW|34=567|52=20051222-14:30:20|115=CAPREGION|116=DOT|128=UNXQW|1=240001|6=21.16000|11=0F8C3A9001000D0|14=750|17=190668443|30=N|31=21.15000|32=600|37=14833062|38=750|39=2|40=1|54=2|55=ET|58=20 TOD6/0000 093019@|60=20051222-14:30:19|63=0|107=~TG-8854|20=0|10=187|
8=FIX.4.0|9=0296|35=8|49=NYFIXHUB|56=UNXQW|50=OR22|57=UNXQW|34=568|52=20051222-14:30:20|115=CAPREGION|116=DOT|128=UNXQW|1=242906|6=43.71000|11=0F8C07D0030013A|14=100|17=190668442|30=N|31=43.71000|32=100|37=14790894|38=100|39=2|40=1|54=1|55=BBY|58=501 TOD1/0000 093019@|60=20051222-14:30:19|63=0|107=~TG-3491|20=0|10=054|
8=FIX.4.0|9=0266|35=8|49=NYFIXHUB|56=UNXQW|50=OR6|57=UNXQW|34=569|52=20051222-14:30:21|115=CAPREGION|116=DOT|128=UNXQW|1=240501|6=30.63000|11=0F8BE07003000C3|14=38|17=190668451|30=N|31=30.63000|32=38|37=14820203|38=38|39=2|40=1|54=2|55=VZ|60=20051222-14:30:00|63=0|107=~TG-6542|20=0|10=059|
8=FIX.4.0|9=0268|35=8|49=NYFIXHUB|56=UNXQW|50=OR33|57=UNXQW|34=570|52=20051222-14:30:21|115=CAPREGION|116=DOT|128=UNXQW|1=229801|6=22.99000|11=0F8BE73003000DE|14=25|17=190668452|30=N|31=22.99000|32=25|37=14826595|38=25|39=2|40=1|54=1|55=MOT|60=20051222-14:30:00|63=0|107=~TG-3689|20=0|10=234|
8=FIX.4.0|9=0268|35=8|49=NYFIXHUB|56=UNXQW|50=OR22|57=UNXQW|34=571|52=20051222-14:30:21|115=CAPREGION|116=DOT|128=UNXQW|1=242906|6=43.71000|11=0F8C01500300116|14=25|17=190668453|30=N|31=43.71000|32=25|37=14790891|38=25|39=2|40=1|54=1|55=BBY|60=20051222-14:30:00|63=0|107=~TG-3488|20=0|10=141|
8=FIX.4.0|9=0295|35=8|49=NYFIXHUB|56=UNXQW|50=OR6|57=UNXQW|34=572|52=20051222-14:30:21|115=CAPREGION|116=DOT|128=UNXQW|1=242906|6=57.55000|11=0F8BFF900300115|14=150|17=190668457|30=N|31=57.55000|32=150|37=14820225|38=150|39=2|40=1|54=1|55=UTX|58=501 TOD1/0000 093020@|60=20051222-14:30:20|63=0|107=~TG-6548|20=0|10=057|
8=FIX.4.0|9=0265|35=8|49=NYFIXHUB|56=UNXQW|50=OR22|57=UNXQW|34=573|52=20051222-14:30:21|115=CAPREGION|116=DOT|128=UNXQW|1=242906|6=43.71000|11=0F8C06600300126|14=5|17=190668456|30=N|31=43.71000|32=5|37=14790892|38=5|39=2|40=1|54=1|55=BBY|60=20051222-14:30:00|63=0|107=~TG-3489|20=0|10=002|
8=FIX.4.0|9=0268|35=8|49=NYFIXHUB|56=UNXQW|50=OR22|57=UNXQW|34=574|52=20051222-14:30:21|115=CAPREGION|116=DOT|128=UNXQW|1=242906|6=43.71000|11=0F8C0A80030014B|14=50|17=190668458|30=N|31=43.71000|32=50|37=14790895|38=50|39=2|40=1|54=1|55=BBY|60=20051222-14:30:00|63=0|107=~TG-3492|20=0|10=176|
8=FIX.4.0|9=0295|35=8|49=NYFIXHUB|56=UNXQW|50=OR3|57=UNXQW|34=575|52=20051222-14:30:22|115=CAPREGION|116=DOT|128=UNXQW|1=240001|6=44.05000|11=0F8BED600100048|14=300|17=190668461|30=N|31=44.05000|32=300|37=14772888|38=300|39=2|40=1|54=1|55=BUD|58=501 OPN3/0000 093014@|60=20051222-14:30:14|63=0|107=~TG-1992|20=0|10=002|
8=FIX.4.0|9=0316|35=8|49=NYFIXHUB|56=UNXQW|50=OR21|57=UNXQW2|34=576|52=20051222-14:30:22|115=CAPREGION|116=DOT2|128=UNXQW2|1=306047|6=68.20000|11=0F8C34000100008|14=3400|17=190668462|30=N|31=68.20000|32=3400|37=14805317|38=3400|39=2|40=2|44=69.00000|54=1|55=MER|58=1418 LOC34/0000 093021@|60=20051222-14:30:21|63=0|107=~TG-4758|20=0|10=209|
8=FIX.4.0|9=0268|35=8|49=NYFIXHUB|56=UNXQW|50=OR20|57=UNXQW|34=577|52=20051222-14:30:22|115=CAPREGION|116=DOT|128=UNXQW|1=229801|6=53.67000|11=0F8BE87003000E1|14=25|17=190668464|30=N|31=53.67000|32=25|37=14783457|38=25|39=2|40=1|54=1|55=EXC|60=20051222-14:30:00|63=0|107=~TG-3989|20=0|10=211|
8=FIX.4.0|9=0296|35=8|49=NYFIXHUB|56=UNXQW|50=OR17|57=UNXQW|34=578|52=20051222-14:30:22|115=CAPREGION|116=DOT|128=UNXQW|1=242906|6=85.30000|11=0F8C03F00300131|14=100|17=190668478|30=N|31=85.30000|32=100|37=14784382|38=100|39=2|40=1|54=2|55=NKE|58=210 TOD1/0000 093021@|60=20051222-14:30:21|63=0|107=~TG-5173|20=0|10=033|
8=FIX.4.0|9=0301|35=8|49=NYFIXHUB|56=UNXQW|50=OR33|57=UNXQW|34=579|52=20051222-14:30:22|115=CAPREGION|116=DOT|128=UNXQW|1=240001|6=22.99000|11=0F8BE4F00100035|14=2200|17=190668471|30=N|31=22.99000|32=2200|37=14826566|38=2200|39=2|40=1|54=1|55=MOT|58=1418 OPN22/0000 093013@|60=20051222-14:30:13|63=0|107=~TG-3683|20=0|10=067|
8=FIX.4.0|9=0297|35=8|49=NYFIXHUB|56=UNXQW|50=OR33|57=UNXQW|34=580|52=20051222-14:30:22|115=CAPREGION|116=DOT|128=UNXQW|1=205033|6=22.99000|11=0F8BDB400100017|14=500|17=190668472|30=N|31=22.99000|32=500|37=14826563|38=500|39=2|40=1|54=1|55=MOT|58=1418 OPN5/0000 093013@|60=20051222-14:30:13|63=0|107=~TG-3680|20=0|10=137|
8=FIX.4.0|9=0301|35=8|49=NYFIXHUB|56=UNXQW|50=OR33|57=UNXQW|34=581|52=20051222-14:30:22|115=CAPREGION|116=DOT|128=UNXQW|1=240001|6=22.99000|11=0F8BE5900100037|14=1100|17=190668474|30=N|31=22.99000|32=1100|37=14826567|38=1100|39=2|40=1|54=1|55=MOT|58=1418 OPN11/0000 093013@|60=20051222-14:30:13|63=0|107=~TG-3684|20=0|10=047|
8=FIX.4.0|9=0297|35=8|49=NYFIXHUB|56=UNXQW|50=OR33|57=UNXQW|34=582|52=20051222-14:30:22|115=CAPREGION|116=DOT|128=UNXQW|1=240001|6=22.99000|11=0F8BE0F00100024|14=700|17=190668475|30=N|31=22.99000|32=700|37=14826565|38=700|39=2|40=1|54=1|55=MOT|58=1418 OPN7/0000 093013@|60=20051222-14:30:13|63=0|107=~TG-3682|20=0|10=147|
8=FIX.4.0|9=0296|35=8|49=NYFIXHUB|56=UNXQW|50=OR35|57=UNXQW|34=583|52=20051222-14:30:22|115=CAPREGION|116=DOT|128=UNXQW|1=240501|6=52.55000|11=0F8BD9700100010|14=300|17=190668476|30=N|31=52.55000|32=300|37=14791927|38=300|39=2|40=1|54=2|55=AXP|58=210 OPN3/0000 093012@|60=20051222-14:30:12|63=0|107=~TG-7716|20=0|10=055|
8=FIX.4.0|9=0297|35=8|49=NYFIXHUB|56=UNXQW|50=OR19|57=UNXQW|34=584|52=20051222-14:30:22|115=CAPREGION|116=DOT|128=UNXQW|1=240001|6=31.92000|11=0F8BE4B00100034|14=200|17=190668483|30=N|31=31.92000|32=200|37=14827097|38=200|39=2|40=1|54=1|55=TXN|58=1418 OPN2/0000 093015@|60=20051222-14:30:15|63=0|107=~TG-4196|20=0|10=135|
8=FIX.4.0|9=0297|35=8|49=NYFIXHUB|56=UNXQW|50=OR19|57=UNXQW|34=585|52=20051222-14:30:22|115=CAPREGION|116=DOT|128=UNXQW|1=240002|6=31.92000|11=0F8C3FD00300063|14=150|17=190668484|30=N|31=31.92000|32=150|37=14827109|38=150|39=2|40=1|54=2|55=TXN|58=1418 OPN1/0000 093015@|60=20051222-14:30:15|63=0|107=~TG-9202|20=0|10=144|
8=FIX.4.0|9=0296|35=8|49=NYFIXHUB|56=UNXQW|50=OR31|57=UNXQW|34=586|52=20051222-14:30:22|115=CAPREGION|116=DOT|128=UNXQW|1=242906|6=28.95000|11=0F8C05000300138|14=100|17=190668496|30=N|31=28.95000|32=100|37=14785371|38=100|39=2|40=1|54=2|55=TYC|58=210 TOD1/0000 093021@|60=20051222-14:30:21|63=0|107=~TG-2386|20=0|10=051|
8=FIX.4.0|9=0268|35=8|49=NYFIXHUB|56=UNXQW|50=OR17|57=UNXQW|34=587|52=20051222-14:30:23|115=CAPREGION|116=DOT|128=UNXQW|1=242906|6=85.30000|11=0F8C0A600300142|14=50|17=190668497|30=N|31=85.30000|32=50|37=14784383|38=50|39=2|40=1|54=1|55=NKE|60=20051222-14:30:00|63=0|107=~TG-5174|20=0|10=168|
8=FIX.4.0|9=0301|35=8|49=NYFIXHUB|56=UNXQW|50=OR19|57=UNXQW|34=588|52=20051222-14:30:23|115=CAPREGION|116=DOT|128=UNXQW|1=205184|6=31.92000|11=0F8BEF10010004E|14=1000|17=190668493|30=N|31=31.92000|32=1000|37=14827101|38=1000|39=2|40=1|54=2|55=TXN|58=1418 OPN10/0000 093015@|60=20051222-14:30:15|63=0|107=~TG-4198|20=0|10=080|
8=FIX.4.0|9=0297|35=8|49=NYFIXHUB|56=UNXQW|50=OR19|57=UNXQW|34=589|52=20051222-14:30:23|115=CAPREGION|116=DOT|128=UNXQW|1=242906|6=31.95000|11=0F8C05200300133|14=176|17=190668499|30=N|31=31.95000|32=176|37=14827155|38=176|39=2|40=1|54=2|55=TXN|58=1418 TOD1/0000 093021@|60=20051222-14:30:21|63=0|107=~TG-9222|20=0|10=151|
8=FIX.4.0|9=0268|35=8|49=NYFIXHUB|56=UNXQW|50=OR17|57=UNXQW|34=590|52=20051222-14:30:23|115=CAPREGION|116=DOT|128=UNXQW|1=242906|6=85.30000|11=0F8C0AC0030014E|14=50|17=190668501|30=N|31=85.30000|32=50|37=14784385|38=50|39=2|40=1|54=1|55=NKE|60=20051222-14:30:00|63=0|107=~TG-5176|20=0|10=184|
8=FIX.4.0|9=0296|35=8|49=NYFIXHUB|56=UNXQW|50=OR47|57=UNXQW|34=591|52=20051222-14:30:23|115=CAPREGION|116=DOT|128=UNXQW|1=242906|6=41.25000|11=0F8C166001000A6|14=500|17=190668504|30=N|31=41.25000|32=500|37=14830031|38=500|39=2|40=1|54=2|55=IR|58=1418 OPN5/0000 093014@|60=20051222-14:30:14|63=0|107=~TG-4966|20=0|10=028|
8=FIX.4.0|9=0265|35=8|49=NYFIXHUB|56=UNXQW|50=OR26|57=UNXQW|34=592|52=20051222-14:30:23|115=CAPREGION|116=DOT|128=UNXQW|1=242906|6=82.86000|11=0F8C0C300300147|14=7|17=190668509|30=N|31=82.86000|32=7|37=14833515|38=7|39=2|40=1|54=2|55=IBM|60=20051222-14:30:00|63=0|107=~TG-6862|20=0|10=029|
8=FIX.4.0|9=0295|35=8|49=NYFIXHUB|56=UNXQW|50=OR3|57=UNXQW|34=593|52=20051222-14:30:24|115=CAPREGION|116=DOT|128=UNXQW|1=240501|6=57.88000|11=0F8BE750010003C|14=200|17=190668510|30=N|31=57.88000|32=200|37=14772886|38=200|39=2|40=1|54=2|55=XOM|58=210 OPN2/0000 093011@|60=20051222-14:30:11|63=0|107=~TG-1990|20=0|10=039|
8=FIX.4.0|9=0296|35=8|49=NYFIXHUB|56=UNXQW|50=OR43|57=UNXQW|34=594|52=20051222-14:30:24|115=CAPREGION|116=DOT|128=UNXQW|1=240501|6=48.52000|11=0F8BDC40010001D|14=250|17=190668515|30=N|31=48.52000|32=250|37=14822651|38=250|39=2|40=1|54=2|55=ROH|58=501 OPN2/0000 093016@|60=20051222-14:30:16|63=0|107=~TG-4374|20=0|10=091|
8=FIX.4.0|9=0267|35=8|49=NYFIXHUB|56=UNXQW|50=OR3|57=UNXQW|34=595|52=20051222-14:30:24|115=CAPREGION|116=DOT|128=UNXQW|1=242906|6=57.89000|11=0F8C0DB0030014D|14=45|17=190668511|30=N|31=57.89000|32=45|37=14772931|38=45|39=2|40=1|54=1|55=XOM|60=20051222-14:30:00|63=0|107=~TG-9706|20=0|10=195|
8=FIX.4.0|9=0267|35=8|49=NYFIXHUB|56=UNXQW|50=OR3|57=UNXQW|34=596|52=20051222-14:30:24|115=CAPREGION|116=DOT|128=UNXQW|1=242906|6=57.89000|11=0F8C00F0030010B|14=50|17=190668513|30=N|31=57.89000|32=50|37=14772922|38=50|39=2|40=1|54=1|55=XOM|60=20051222-14:30:00|63=0|107=~TG-9703|20=0|10=161|
8=FIX.4.0|9=0300|35=8|49=NYFIXHUB|56=UNXQW|50=OR17|57=UNXQW|34=597|52=20051222-14:30:24|115=CAPREGION|116=DOT|128=UNXQW|1=205183|6=17.62000|11=0F8BECE00100044|14=1000|17=190668527|30=N|31=17.62000|32=1000|37=14784348|38=1000|39=2|40=1|54=1|55=TWX|58=501 OPN10/0000 093017@|60=20051222-14:30:17|63=0|107=~TG-5165|20=0|10=043|
8=FIX.4.0|9=0300|35=8|49=NYFIXHUB|56=UNXQW|50=OR17|57=UNXQW|34=598|52=20051222-14:30:24|115=CAPREGION|116=DOT|128=UNXQW|1=205181|6=17.62000|11=0F8BEED0010004C|14=1000|17=190668528|30=N|31=17.62000|32=1000|37=14784349|38=1000|39=2|40=1|54=1|55=TWX|58=501 OPN10/0000 093017@|60=20051222-14:30:17|63=0|107=~TG-5166|20=0|10=061|
8=FIX.4.0|9=0266|35=8|49=NYFIXHUB|56=UNXQW|50=OR19|57=UNXQW|34=599|52=20051222-14:30:24|115=CAPREGION|116=DOT|128=UNXQW|1=242906|6=49.25000|11=0F8C0680030012C|14=30|17=190668519|30=N|31=49.25000|32=30|37=14827153|38=30|39=2|40=1|54=1|55=C|60=20051222-14:30:00|63=0|107=~TG-9220|20=0|10=009|
8=FIX.4.0|9=0267|35=8|49=NYFIXHUB|56=UNXQW|50=OR6|57=UNXQW|34=600|52=20051222-14:30:24|115=CAPREGION|116=DOT|128=UNXQW|1=242906|6=57.55000|11=0F8BFC300300103|14=50|17=190668523|30=N|31=57.55000|32=50|37=14820221|38=50|39=2|40=1|54=2|55=UTX|60=20051222-14:30:00|63=0|107=~TG-6546|20=0|10=145|
8=FIX.4.0|9=0300|35=8|49=NYFIXHUB|56=UNXQW|50=OR17|57=UNXQW|34=601|52=20051222-14:30:24|115=CAPREGION|116=DOT|128=UNXQW|1=205182|6=17.62000|11=0F8BEF500100050|14=1000|17=190668529|30=N|31=17.62000|32=1000|37=14784350|38=1000|39=2|40=1|54=1|55=TWX|58=501 OPN10/0000 093017@|60=20051222-14:30:17|63=0|107=~TG-5167|20=0|10=009|
8=FIX.4.0|9=0296|35=8|49=NYFIXHUB|56=UNXQW|50=OR32|57=UNXQW|34=602|52=20051222-14:30:25|115=CAPREGION|116=DOT|128=UNXQW|1=233702|6=66.14000|11=0F8BDAE00300090|14=153|17=190668536|30=N|31=66.14000|32=153|37=14821757|38=153|39=2|40=1|54=2|55=AIG|58=501 OPN1/0000 093017@|60=20051222-14:30:17|63=0|107=~TG-5386|20=0|10=082|
8=FIX.4.0|9=0296|35=8|49=NYFIXHUB|56=UNXQW|50=OR32|57=UNXQW|34=603|52=20051222-14:30:25|115=CAPREGION|116=DOT|128=UNXQW|1=242906|6=66.14000|11=0F8C0ED00100084|14=400|17=190668537|30=N|31=66.14000|32=400|37=14821756|38=400|39=2|40=1|54=2|55=AIG|58=501 OPN4/0000 093017@|60=20051222-14:30:17|63=0|107=~TG-5385|20=0|10=061|
8=FIX.4.0|9=0296|35=8|49=NYFIXHUB|56=UNXQW|50=OR16|57=UNXQW|34=604|52=20051222-14:30:25|115=CAPREGION|116=DOT|128=UNXQW|1=242906|6=52.18000|11=0F8C03900300130|14=150|17=190668538|30=N|31=52.18000|32=150|37=14773373|38=150|39=2|40=1|54=2|55=CMX|58=501 TOD1/0000 093024@|60=20051222-14:30:24|63=0|107=~TG-3780|20=0|10=042|
8=FIX.4.0|9=0268|35=8|49=NYFIXHUB|56=UNXQW|50=OR24|57=UNXQW|34=605|52=20051222-14:30:25|115=CAPREGION|116=DOT|128=UNXQW|1=240501|6=25.48000|11=0F8BDE20030007A|14=70|17=190668547|30=N|31=25.48000|32=70|37=14780345|38=70|39=2|40=1|54=2|55=BSX|60=20051222-14:30:00|63=0|107=~TG-2877|20=0|10=209|
8=FIX.4.0|9=0296|35=8|49=NYFIXHUB|56=UNXQW|50=OR32|57=UNXQW|34=606|52=20051222-14:30:25|115=CAPREGION|116=DOT|128=UNXQW|1=240501|6=66.14000|11=0F8C398001000CD|14=400|17=190668541|30=N|31=66.14000|32=400|37=14821771|38=400|39=2|40=1|54=1|55=AIG|58=501 OPN4/0000 093017@|60=20051222-14:30:17|63=0|107=~TG-5388|20=0|10=053|
8=FIX.4.0|9=0296|35=8|49=NYFIXHUB|56=UNXQW|50=OR31|57=UNXQW|34=607|52=20051222-14:30:25|115=CAPREGION|116=DOT|128=UNXQW|1=242906|6=28.97000|11=0F8BFBC00100057|14=800|17=190668550|30=N|31=28.97000|32=800|37=14785347|38=800|39=2|40=1|54=2|55=TYC|58=210 OPN8/0000 093012@|60=20051222-14:30:12|63=0|107=~TG-2372|20=0|10=126|
8=FIX.4.0|9=0296|35=8|49=NYFIXHUB|56=UNXQW|50=OR31|57=UNXQW|34=608|52=20051222-14:30:25|115=CAPREGION|116=DOT|128=UNXQW|1=242906|6=28.97000|11=0F8C04100100068|14=450|17=190668551|30=N|31=28.97000|32=450|37=14785349|38=450|39=2|40=1|54=2|55=TYC|58=210 OPN4/0000 093012@|60=20051222-14:30:12|63=0|107=~TG-2374|20=0|10=080|
8=FIX.4.0|9=0296|35=8|49=NYFIXHUB|56=UNXQW|50=OR31|57=UNXQW|34=609|52=20051222-14:30:25|115=CAPREGION|116=DOT|128=UNXQW|1=205033|6=28.97000|11=0F8BD890010000C|14=570|17=190668552|30=N|31=28.97000|32=570|37=14785346|38=570|39=2|40=1|54=2|55=TYC|58=210 OPN5/0000 093012@|60=20051222-14:30:12|63=0|107=~TG-2371|20=0|10=112|
8=FIX.4.0|9=0296|35=8|49=NYFIXHUB|56=UNXQW|50=OR31|57=UNXQW|34=610|52=20051222-14:30:25|115=CAPREGION|116=DOT|128=UNXQW|1=242906|6=28.97000|11=0F8BFF100100062|14=285|17=190668553|30=N|31=28.97000|32=285|37=14785348|38=285|39=2|40=1|54=2|55=TYC|58=210 OPN2/0000 093012@|60=20051222-14:30:12|63=0|107=~TG-2373|20=0|10=122|
8=FIX.4.0|9=0314|35=8|49=NYFIXHUB|56=UNXQW|50=OR6|57=UNXQW2|34=611|52=20051222-14:30:25|115=CAPREGION|116=DOT2|128=UNXQW2|1=306047|6=24.15000|11=0F8C35400100009|14=3000|17=190668548|30=N|31=24.15000|32=3000|37=14820151|38=3000|39=2|40=2|44=24.00000|54=2|55=TMX|58=210 LOC30/0000 093025@|60=20051222-14:30:25|63=0|107=~TG-6524|20=0|10=090|
8=FIX.4.0|9=0294|35=8|49=NYFIXHUB|56=UNXQW|50=OR32|57=UNXQW|34=612|52=20051222-14:30:26|115=CAPREGION|116=DOT|128=UNXQW|1=242906|6=41.45000|11=0F8BFED00300111|14=100|17=190668569|30=N|31=41.45000|32=100|37=14821781|38=100|39=2|40=1|54=2|55=HD|58=20 TOD1/0000 093025@|60=20051222-14:30:25|63=0|107=~TG-5390|20=0|10=182|
8=FIX.4.0|9=0300|35=8|49=NYFIXHUB|56=UNXQW|50=OR31|57=UNXQW|34=613|52=20051222-14:30:26|115=CAPREGION|116=DOT|128=UNXQW|1=242906|6=28.97000|11=0F8C11E00100097|14=1000|17=190668558|30=N|31=28.97000|32=1000|37=14785353|38=1000|39=2|40=1|54=2|55=TYC|58=210 OPN10/0000 093012@|60=20051222-14:30:12|63=0|107=~TG-2378|20=0|10=254|
8=FIX.4.0|9=0296|35=8|49=NYFIXHUB|56=UNXQW|50=OR31|57=UNXQW|34=614|52=20051222-14:30:26|115=CAPREGION|116=DOT|128=UNXQW|1=242906|6=28.97000|11=0F8C07700100070|14=470|17=190668559|30=N|31=28.97000|32=470|37=14785350|38=470|39=2|40=1|54=2|55=TYC|58=210 OPN4/0000 093012@|60=20051222-14:30:12|63=0|107=~TG-2375|20=0|10=087|
8=FIX.4.0|9=0295|35=8|49=NYFIXHUB|56=UNXQW|50=OR6|57=UNXQW|34=615|52=20051222-14:30:26|115=CAPREGION|116=DOT|128=UNXQW|1=205126|6=57.55000|11=0F8BEE00010004B|14=300|17=190668565|30=N|31=57.55000|32=300|37=14820170|38=300|39=2|40=1|54=2|55=UTX|58=501 OPN3/0000 093019@|60=20051222-14:30:19|63=0|107=~TG-6533|20=0|10=064|
8=FIX.4.0|9=0305|35=8|49=NYFIXHUB|56=UNXQW|50=OR20|57=UNXQW|34=616|52=20051222-14:30:26|115=CAPREGION|116=DOT|128=UNXQW|1=242906|6=33.37000|11=0F8C0C90010007E|14=2000|17=190668561|30=N|31=33.37000|32=2000|37=14783428|38=2000|39=2|40=1|54=2|55=VIA|58=210 TOD20/0000 093025@|60=20051222-14:30:25|63=0|65=B|107=~TG-3978|20=0|10=228|
8=FIX.4.0|9=0301|35=8|49=NYFIXHUB|56=UNXQW|50=OR20|57=UNXQW|34=617|52=20051222-14:30:26|115=CAPREGION|116=DOT|128=UNXQW|1=240501|6=33.37000|11=0F8BE25003000C7|14=100|17=190668564|30=N|31=33.37000|32=100|37=14783456|38=100|39=2|40=1|54=2|55=VIA|58=210 TOD1/0000 093025@|60=20051222-14:30:25|63=0|65=B|107=~TG-3988|20=0|10=022|
8=FIX.4.0|9=0265|35=8|49=NYFIXHUB|56=UNXQW|50=OR21|57=UNXQW|34=619|52=20051222-14:30:26|115=CAPREGION|116=DOT|128=UNXQW|1=242906|6=68.20000|11=0F8C0700030012D|14=5|17=190668576|30=N|31=68.20000|32=5|37=14805370|38=5|39=2|40=1|54=2|55=MER|60=20051222-14:30:00|63=0|107=~TG-4781|20=0|10=013|
8=FIX.4.0|9=0296|35=8|49=NYFIXHUB|56=UNXQW|50=OR24|57=UNXQW|34=620|52=20051222-14:30:26|115=CAPREGION|116=DOT|128=UNXQW|1=222501|6=25.48000|11=0F8BD8700300066|14=160|17=190668575|30=N|31=25.48000|32=160|37=14780340|38=160|39=2|40=1|54=2|55=BSX|58=501 OPN1/0000 093019@|60=20051222-14:30:19|63=0|107=~TG-2874|20=0|10=083|
8=FIX.4.0|9=0298|35=8|49=NYFIXHUB|56=UNXQW|50=OR32|57=UNXQW|34=621|52=20051222-14:30:26|115=CAPREGION|116=DOT|128=UNXQW|1=242906|6=41.45000|11=0F8C0CB0010007F|14=3000|17=190668573|30=N|31=41.45000|32=3000|37=14821753|38=3000|39=2|40=1|54=2|55=HD|58=20 TOD30/0000 093025@|60=20051222-14:30:25|63=0|107=~TG-5382|20=0|10=124|
8=FIX.4.0|9=0267|35=8|49=NYFIXHUB|56=UNXQW|50=OR5|57=UNXQW|34=622|52=20051222-14:30:26|115=CAPREGION|116=DOT|128=UNXQW|1=242906|6=34.27000|11=0F8C0130030011B|14=25|17=190668580|30=N|31=34.27000|32=25|37=14768979|38=25|39=2|40=1|54=2|55=MCD|60=20051222-14:30:00|63=0|107=~TG-7332|20=0|10=104|
8=FIX.4.0|9=0268|35=8|49=NYFIXHUB|56=UNXQW|50=OR46|57=UNXQW|34=623|52=20051222-14:30:27|115=CAPREGION|116=DOT|128=UNXQW|1=242906|6=53.71000|11=0F8C0B000300146|14=50|17=190668583|30=N|31=53.71000|32=50|37=14826145|38=50|39=2|40=1|54=1|55=CCL|60=20051222-14:30:00|63=0|107=~TG-9408|20=0|10=145|
8=FIX.4.0|9=0300|35=8|49=NYFIXHUB|56=UNXQW|50=OR39|57=UNXQW|34=624|52=20051222-14:30:27|115=CAPREGION|116=DOT|128=UNXQW|1=242906|6=58.27000|11=0F8BFE100100060|14=2000|17=190668588|30=N|31=58.27000|32=2000|37=14802345|38=2000|39=2|40=1|54=2|55=PG|58=1418 OPN20/0000 093021@|60=20051222-14:30:21|63=0|107=~TG-1488|20=0|10=236|
8=FIX.4.0|9=0268|35=8|49=NYFIXHUB|56=UNXQW|50=OR15|57=UNXQW|34=625|52=20051222-14:30:27|115=CAPREGION|116=DOT|128=UNXQW|1=242906|6=59.65000|11=0F8BFC900300104|14=40|17=190668597|30=N|31=59.65000|32=40|37=14834007|38=40|39=2|40=1|54=1|55=COP|60=20051222-14:30:00|63=0|107=~TG-6638|20=0|10=202|
8=FIX.4.0|9=0294|35=8|49=NYFIXHUB|56=UNXQW|50=OR5|57=UNXQW|34=626|52=20051222-14:30:27|115=CAPREGION|116=DOT|128=UNXQW|1=242906|6=34.27000|11=0F8C04900300132|14=100|17=190668601|30=N|31=34.27000|32=100|37=14768984|38=100|39=2|40=1|54=2|55=MCD|58=20 OPN1/0000 093020@|60=20051222-14:30:20|63=0|107=~TG-7335|20=0|10=169|
8=FIX.4.0|9=0268|35=8|49=NYFIXHUB|56=UNXQW|50=OR15|57=UNXQW|34=627|52=20051222-14:30:27|115=CAPREGION|116=DOT|128=UNXQW|1=242906|6=59.65000|11=0F8C02300300112|14=25|17=190668598|30=N|31=59.65000|32=25|37=14834011|38=25|39=2|40=1|54=2|55=COP|60=20051222-14:30:00|63=0|107=~TG-6640|20=0|10=158|
8=FIX.4.0|9=0296|35=8|49=NYFIXHUB|56=UNXQW|50=OR39|57=UNXQW|34=628|52=20051222-14:30:27|115=CAPREGION|116=DOT|128=UNXQW|1=242906|6=58.27000|11=0F8BFCF00300110|14=145|17=190668589|30=N|31=58.27000|32=145|37=14802395|38=145|39=2|40=1|54=2|55=PG|58=1418 OPN1/0000 093021@|60=20051222-14:30:21|63=0|107=~TG-1499|20=0|10=110|
8=FIX.4.0|9=0300|35=8|49=NYFIXHUB|56=UNXQW|50=OR39|57=UNXQW|34=629|52=20051222-14:30:27|115=CAPREGION|116=DOT|128=UNXQW|1=242906|6=58.27000|11=0F8C183001000AC|14=1200|17=190668591|30=N|31=58.27000|32=1200|37=14802366|38=1200|39=2|40=1|54=2|55=PG|58=1418 OPN12/0000 093021@|60=20051222-14:30:21|63=0|107=~TG-1491|20=0|10=235|
8=FIX.4.0|9=0296|35=8|49=NYFIXHUB|56=UNXQW|50=OR39|57=UNXQW|34=630|52=20051222-14:30:27|115=CAPREGION|116=DOT|128=UNXQW|1=242906|6=58.27000|11=0F8C185001000AD|14=356|17=190668595|30=N|31=58.27000|32=356|37=14802367|38=356|39=2|40=1|54=2|55=PG|58=1418 OPN3/0000 093021@|60=20051222-14:30:21|63=0|107=~TG-1492|20=0|10=091|
8=FIX.4.0|9=0294|35=8|49=NYFIXHUB|56=UNXQW|50=OR5|57=UNXQW|34=631|52=20051222-14:30:27|115=CAPREGION|116=DOT|128=UNXQW|1=242906|6=34.27000|11=0F8C03D00100067|14=500|17=190668605|30=N|31=34.27000|32=500|37=14768956|38=500|39=2|40=1|54=2|55=MCD|58=20 OPN5/0000 093020@|60=20051222-14:30:20|63=0|107=~TG-7326|20=0|10=199|
8=FIX.4.0|9=0268|35=8|49=NYFIXHUB|56=UNXQW|50=OR16|57=UNXQW|34=632|52=20051222-14:30:27|115=CAPREGION|116=DOT|128=UNXQW|1=242906|6=52.18000|11=0F8C02100300113|14=15|17=190668606|30=N|31=52.18000|32=15|37=14773372|38=15|39=2|40=1|54=2|55=CMX|60=20051222-14:30:00|63=0|107=~TG-3779|20=0|10=151|
8=FIX.4.0|9=0265|35=8|49=NYFIXHUB|56=UNXQW|50=OR16|57=UNXQW|34=633|52=20051222-14:30:27|115=CAPREGION|116=DOT|128=UNXQW|1=242906|6=52.18000|11=0F8C0D70030014C|14=5|17=190668607|30=N|31=52.18000|32=5|37=14773376|38=5|39=2|40=1|54=1|55=CMX|60=20051222-14:30:00|63=0|107=~TG-3783|20=0|10=044|
8=FIX.4.0|9=0267|35=8|49=NYFIXHUB|56=UNXQW|50=OR39|57=UNXQW|34=634|52=20051222-14:30:28|115=CAPREGION|116=DOT|128=UNXQW|1=242906|6=58.27000|11=0F8C16800300155|14=25|17=190668608|30=N|31=58.27000|32=25|37=14802407|38=25|39=2|40=1|54=2|55=PG|60=20051222-14:30:00|63=0|107=~TG-9808|20=0|10=103|
8=FIX.4.0|9=0297|35=8|49=NYFIXHUB|56=UNXQW|50=OR23|57=UNXQW|34=635|52=20051222-14:30:28|115=CAPREGION|116=DOT|128=UNXQW|1=242906|6=23.98000|11=0F8C1F7001000B6|14=325|17=190668612|30=N|31=23.98000|32=325|37=14829156|38=325|39=2|40=1|54=2|55=PFE|58=1726 OPN3/0000 093021@|60=20051222-14:30:21|63=0|107=~TG-8632|20=0|10=150|
8=FIX.4.0|9=0267|35=8|49=NYFIXHUB|56=UNXQW|50=OR39|57=UNXQW|34=636|52=20051222-14:30:28|115=CAPREGION|116=DOT|128=UNXQW|1=242906|6=58.27000|11=0F8C0AA00300143|14=50|17=190668620|30=N|31=58.27000|32=50|37=14802402|38=50|39=2|40=1|54=1|55=PG|60=20051222-14:30:00|63=0|107=~TG-9804|20=0|10=099|
8=FIX.4.0|9=0301|35=8|49=NYFIXHUB|56=UNXQW|50=OR23|57=UNXQW|34=637|52=20051222-14:30:28|115=CAPREGION|116=DOT|128=UNXQW|1=242906|6=23.98000|11=0F8C0720010006F|14=2100|17=190668618|30=N|31=23.98000|32=2100|37=14829129|38=2100|39=2|40=1|54=2|55=PFE|58=1726 OPN21/0000 093021@|60=20051222-14:30:21|63=0|107=~TG-8621|20=0|10=040|
8=FIX.4.0|9=0297|35=8|49=NYFIXHUB|56=UNXQW|50=OR23|57=UNXQW|34=638|52=20051222-14:30:28|115=CAPREGION|116=DOT|128=UNXQW|1=240001|6=23.98000|11=0F8C389001000CB|14=200|17=190668623|30=N|31=23.98000|32=200|37=14829162|38=200|39=2|40=1|54=2|55=PFE|58=1726 OPN2/0000 093021@|60=20051222-14:30:21|63=0|107=~TG-8636|20=0|10=118|
8=FIX.4.0|9=0297|35=8|49=NYFIXHUB|56=UNXQW|50=OR23|57=UNXQW|34=639|52=20051222-14:30:28|115=CAPREGION|116=DOT|128=UNXQW|1=204004|6=23.98000|11=0F8C3DE001000D5|14=266|17=190668627|30=N|31=23.98000|32=266|37=14829163|38=266|39=2|40=1|54=2|55=PFE|58=1726 OPN2/0000 093021@|60=20051222-14:30:21|63=0|107=~TG-8637|20=0|10=176|
8=FIX.4.0|9=0297|35=8|49=NYFIXHUB|56=UNXQW|50=OR23|57=UNXQW|34=640|52=20051222-14:30:28|115=CAPREGION|116=DOT|128=UNXQW|1=242906|6=23.98000|11=0F8C16D001000A7|14=350|17=190668628|30=N|31=23.98000|32=350|37=14829151|38=350|39=2|40=1|54=2|55=PFE|58=1726 OPN3/0000 093021@|60=20051222-14:30:21|63=0|107=~TG-8629|20=0|10=145|
8=FIX.4.0|9=0297|35=8|49=NYFIXHUB|56=UNXQW|50=OR23|57=UNXQW|34=641|52=20051222-14:30:28|115=CAPREGION|116=DOT|128=UNXQW|1=242906|6=23.98000|11=0F8C3F2001000DD|14=280|17=190668629|30=N|31=23.98000|32=280|37=14829164|38=280|39=2|40=1|54=2|55=PFE|58=1726 OPN2/0000 093021@|60=20051222-14:30:21|63=0|107=~TG-8638|20=0|10=172|
8=FIX.4.0|9=0297|35=8|49=NYFIXHUB|56=UNXQW|50=OR23|57=UNXQW|34=642|52=20051222-14:30:28|115=CAPREGION|116=DOT|128=UNXQW|1=242906|6=23.98000|11=0F8C0E300100082|14=305|17=190668631|30=N|31=23.98000|32=305|37=14829134|38=305|39=2|40=1|54=2|55=PFE|58=1726 OPN3/0000 093021@|60=20051222-14:30:21|63=0|107=~TG-8622|20=0|10=118|
8=FIX.4.0|9=0301|35=8|49=NYFIXHUB|56=UNXQW|50=OR23|57=UNXQW|34=643|52=20051222-14:30:28|115=CAPREGION|116=DOT|128=UNXQW|1=242906|6=23.98000|11=0F8C11500100093|14=1400|17=190668633|30=N|31=23.98000|32=1400|37=14829142|38=1400|39=2|40=1|54=2|55=PFE|58=1726 OPN14/0000 093021@|60=20051222-14:30:21|63=0|107=~TG-8624|20=0|10=022|
8=FIX.4.0|9=0297|35=8|49=NYFIXHUB|56=UNXQW|50=OR23|57=UNXQW|34=644|52=20051222-14:30:28|115=CAPREGION|116=DOT|128=UNXQW|1=240501|6=23.98000|11=0F8BDE000100022|14=200|17=190668634|30=N|31=23.98000|32=200|37=14829109|38=200|39=2|40=1|54=2|55=PFE|58=1726 OPN2/0000 093021@|60=20051222-14:30:21|63=0|107=~TG-8611|20=0|10=103|
8=FIX.4.0|9=0301|35=8|49=NYFIXHUB|56=UNXQW|50=OR23|57=UNXQW|34=645|52=20051222-14:30:28|115=CAPREGION|116=DOT|128=UNXQW|1=242906|6=23.98000|11=0F8BFD70010005D|14=1000|17=190668637|30=N|31=23.98000|32=1000|37=14829126|38=1000|39=2|40=1|54=2|55=PFE|58=1726 OPN10/0000 093021@|60=20051222-14:30:21|63=0|107=~TG-8618|20=0|10=071|
8=FIX.4.0|9=0297|35=8|49=NYFIXHUB|56=UNXQW|50=OR23|57=UNXQW|34=646|52=20051222-14:30:29|115=CAPREGION|116=DOT|128=UNXQW|1=240001|6=23.98000|11=0F8BE390010002E|14=300|17=190668639|30=N|31=23.98000|32=300|37=14829112|38=300|39=2|40=1|54=2|55=PFE|58=1726 OPN3/0000 093021@|60=20051222-14:30:21|63=0|107=~TG-8612|20=0|10=116|
8=FIX.4.0|9=0297|35=8|49=NYFIXHUB|56=UNXQW|50=OR23|57=UNXQW|34=647|52=20051222-14:30:29|115=CAPREGION|116=DOT|128=UNXQW|1=233701|6=23.98000|11=0F8BDAA00100014|14=200|17=190668640|30=N|31=23.98000|32=200|37=14829105|38=200|39=2|40=1|54=2|55=PFE|58=1726 OPN2/0000 093021@|60=20051222-14:30:21|63=0|107=~TG-8607|20=0|10=123|
8=FIX.4.0|9=0297|35=8|49=NYFIXHUB|56=UNXQW|50=OR23|57=UNXQW|34=648|52=20051222-14:30:29|115=CAPREGION|116=DOT|128=UNXQW|1=240001|6=23.98000|11=0F8BE4900100033|14=300|17=190668641|30=N|31=23.98000|32=300|37=14829114|38=300|39=2|40=1|54=1|55=PFE|58=1726 OPN3/0000 093021@|60=20051222-14:30:21|63=0|107=~TG-8614|20=0|10=098|
8=FIX.4.0|9=0296|35=8|49=NYFIXHUB|56=UNXQW|50=OR12|57=UNXQW|34=649|52=20051222-14:30:29|115=CAPREGION|116=DOT|128=UNXQW|1=242906|6=37.98000|11=0F8BFD50010005C|14=400|17=190668645|30=N|31=37.98000|32=400|37=14776412|38=400|39=2|40=1|54=2|55=BAX|58=501 OPN4/0000 093020@|60=20051222-14:30:20|63=0|107=~TG-9005|20=0|10=099|
8=FIX.4.0|9=0296|35=8|49=NYFIXHUB|56=UNXQW|50=OR16|57=UNXQW|34=650|52=20051222-14:30:30|115=CAPREGION|116=DOT|128=UNXQW|1=240001|6=52.18000|11=0F8BE4500100032|14=200|17=190668647|30=N|31=52.18000|32=200|37=14773333|38=200|39=2|40=1|54=1|55=CMX|58=501 OPN2/0000 093023@|60=20051222-14:30:23|63=0|107=~TG-3770|20=0|10=027|
8=FIX.4.0|9=0296|35=8|49=NYFIXHUB|56=UNXQW|50=OR16|57=UNXQW|34=651|52=20051222-14:30:30|115=CAPREGION|116=DOT|128=UNXQW|1=242906|6=52.18000|11=0F8C0EF00100085|14=500|17=190668648|30=N|31=52.18000|32=500|37=14773340|38=500|39=2|40=1|54=2|55=CMX|58=501 OPN5/0000 093023@|60=20051222-14:30:23|63=0|107=~TG-3773|20=0|10=081|
8=FIX.4.0|9=0292|35=8|49=NYFIXHUB|56=UNXQW|50=OR21|57=UNXQW|34=652|52=20051222-14:30:31|115=CAPREGION|116=DOT|128=UNXQW|1=240505|6=8.04000|11=0F8BEC600100042|14=200|17=190668654|30=N|31=8.04000|32=200|37=14805341|38=200|39=2|40=1|54=2|55=F|58=210 OPN2/0000 093025@|60=20051222-14:30:25|63=0|107=~TG-4774|20=0|10=038|
8=FIX.4.0|9=0294|35=8|49=NYFIXHUB|56=UNXQW|50=OR8|57=UNXQW|34=653|52=20051222-14:30:31|115=CAPREGION|116=DOT|128=UNXQW|1=242906|6=60.96000|11=0F8C0BD0010007B|14=400|17=190668651|30=N|31=60.96000|32=400|37=14832525|38=400|39=2|40=1|54=1|55=JNJ|58=20 OPN4/0000 093024@|60=20051222-14:30:24|63=0|107=~TG-6264|20=0|10=240|
8=FIX.4.0|9=0298|35=8|49=NYFIXHUB|56=UNXQW|50=OR8|57=UNXQW|34=654|52=20051222-14:30:31|115=CAPREGION|116=DOT|128=UNXQW|1=205182|6=60.96000|11=0F8BF0100100052|14=2500|17=190668652|30=N|31=60.96000|32=2500|37=14832523|38=2500|39=2|40=1|54=2|55=JNJ|58=20 OPN25/0000 093024@|60=20051222-14:30:24|63=0|107=~TG-6262|20=0|10=152|
8=FIX.4.0|9=0294|35=8|49=NYFIXHUB|56=UNXQW|50=OR8|57=UNXQW|34=655|52=20051222-14:30:31|115=CAPREGION|116=DOT|128=UNXQW|1=240001|6=60.96000|11=0F8BE1300100025|14=200|17=190668653|30=N|31=60.96000|32=200|37=14832517|38=200|39=2|40=1|54=1|55=JNJ|58=20 OPN2/0000 093024@|60=20051222-14:30:24|63=0|107=~TG-6260|20=0|10=185|
8=FIX.4.0|9=0292|35=8|49=NYFIXHUB|56=UNXQW|50=OR21|57=UNXQW|34=656|52=20051222-14:30:31|115=CAPREGION|116=DOT|128=UNXQW|1=240505|6=8.04000|11=0F8BE990010003E|14=200|17=190668656|30=N|31=8.04000|32=200|37=14805340|38=200|39=2|40=1|54=2|55=F|58=210 OPN2/0000 093025@|60=20051222-14:30:25|63=0|107=~TG-4773|20=0|10=053|
8=FIX.4.0|9=0267|35=8|49=NYFIXHUB|56=UNXQW|50=OR8|57=UNXQW|34=657|52=20051222-14:30:31|115=CAPREGION|116=DOT|128=UNXQW|1=242906|6=60.96000|11=0F8C00900300107|14=25|17=190668657|30=N|31=60.96000|32=25|37=14832544|38=25|39=2|40=1|54=1|55=JNJ|60=20051222-14:30:00|63=0|107=~TG-6269|20=0|10=120|
8=FIX.4.0|9=0267|35=8|49=NYFIXHUB|56=UNXQW|50=OR8|57=UNXQW|34=658|52=20051222-14:30:31|115=CAPREGION|116=DOT|128=UNXQW|1=242906|6=60.96000|11=0F8C09C0030012B|14=50|17=190668658|30=N|31=60.96000|32=50|37=14832552|38=50|39=2|40=1|54=1|55=JNJ|60=20051222-14:30:00|63=0|107=~TG-6271|20=0|10=140|
8=FIX.4.0|9=0264|35=8|49=NYFIXHUB|56=UNXQW|50=OR8|57=UNXQW|34=659|52=20051222-14:30:31|115=CAPREGION|116=DOT|128=UNXQW|1=242906|6=60.96000|11=0F8C13000300154|14=4|17=190668659|30=N|31=60.96000|32=4|37=14832558|38=4|39=2|40=1|54=2|55=JNJ|60=20051222-14:30:00|63=0|107=~TG-6273|20=0|10=222|
8=FIX.4.0|9=0268|35=8|49=NYFIXHUB|56=UNXQW|50=OR23|57=UNXQW|34=660|52=20051222-14:30:32|115=CAPREGION|116=DOT|128=UNXQW|1=240501|6=23.98000|11=0F8BDF2003000A8|14=50|17=190668664|30=N|31=23.98000|32=50|37=14829152|38=50|39=2|40=1|54=2|55=PFE|60=20051222-14:30:00|63=0|107=~TG-8630|20=0|10=184|
8=FIX.4.0|9=0303|35=8|49=NYFIXHUB|56=UNXQW|50=OR46|57=UNXQW|34=661|52=20051222-14:30:32|115=CAPREGION|116=DOT|128=UNXQW|1=240001|6=106.14000|11=0F8BE330010002D|14=3300|17=190668666|30=N|31=106.14000|32=3300|37=14826098|38=3300|39=2|40=1|54=2|55=ITT|58=1418 OPN33/0000 093024@|60=20051222-14:30:24|63=0|107=~TG-3894|20=0|10=160|
8=FIX.4.0|9=0267|35=8|49=NYFIXHUB|56=UNXQW|50=OR25|57=UNXQW|34=662|52=20051222-14:30:33|115=CAPREGION|116=DOT|128=UNXQW|1=222501|6=41.23000|11=0F8BE93003000E6|14=75|17=190668669|30=N|31=41.23000|32=75|37=14785962|38=75|39=2|40=1|54=1|55=KO|60=20051222-14:30:00|63=0|107=~TG-8329|20=0|10=130|
8=FIX.4.0|9=0267|35=8|49=NYFIXHUB|56=UNXQW|50=OR25|57=UNXQW|34=663|52=20051222-14:30:33|115=CAPREGION|116=DOT|128=UNXQW|1=222501|6=41.23000|11=0F8BE89003000E5|14=75|17=190668670|30=N|31=41.23000|32=75|37=14785959|38=75|39=2|40=1|54=1|55=KO|60=20051222-14:30:00|63=0|107=~TG-8328|20=0|10=132|
8=FIX.4.0|9=0297|35=8|49=NYFIXHUB|56=UNXQW|50=OR43|57=UNXQW|34=664|52=20051222-14:30:33|115=CAPREGION|116=DOT|128=UNXQW|1=242906|6=28.90000|11=0F8C12000100098|14=200|17=190668673|30=N|31=28.90000|32=200|37=14822659|38=200|39=2|40=1|54=1|55=HPQ|58=1726 OPN2/0000 093026@|60=20051222-14:30:26|63=0|107=~TG-4379|20=0|10=120|
8=FIX.4.0|9=0294|35=8|49=NYFIXHUB|56=UNXQW|50=OR25|57=UNXQW|34=665|52=20051222-14:30:33|115=CAPREGION|116=DOT|128=UNXQW|1=240001|6=41.23000|11=0F8BF8900100054|14=250|17=190668675|30=N|31=41.23000|32=250|37=14785942|38=250|39=2|40=1|54=2|55=KO|58=20 OPN2/0000 093025@|60=20051222-14:30:25|63=0|107=~TG-8325|20=0|10=192|
8=FIX.4.0|9=0294|35=8|49=NYFIXHUB|56=UNXQW|50=OR25|57=UNXQW|34=666|52=20051222-14:30:33|115=CAPREGION|116=DOT|128=UNXQW|1=222501|6=41.23000|11=0F8BE2100100027|14=350|17=190668676|30=N|31=41.23000|32=350|37=14785937|38=350|39=2|40=1|54=2|55=KO|58=20 OPN3/0000 093025@|60=20051222-14:30:25|63=0|107=~TG-8320|20=0|10=187|
8=FIX.4.0|9=0294|35=8|49=NYFIXHUB|56=UNXQW|50=OR25|57=UNXQW|34=667|52=20051222-14:30:33|115=CAPREGION|116=DOT|128=UNXQW|1=242906|6=41.23000|11=0F8BFB2003000FE|14=100|17=190668677|30=N|31=41.23000|32=100|37=14785967|38=100|39=2|40=1|54=2|55=KO|58=20 OPN1/0000 093025@|60=20051222-14:30:25|63=0|107=~TG-8330|20=0|10=235|
8=FIX.4.0|9=0294|35=8|49=NYFIXHUB|56=UNXQW|50=OR25|57=UNXQW|34=668|52=20051222-14:30:33|115=CAPREGION|116=DOT|128=UNXQW|1=242906|6=41.23000|11=0F8BFF50030011A|14=100|17=190668678|30=N|31=41.23000|32=100|37=14785969|38=100|39=2|40=1|54=2|55=KO|58=20 OPN1/0000 093025@|60=20051222-14:30:25|63=0|107=~TG-8332|20=0|10=224|
8=FIX.4.0|9=0267|35=8|49=NYFIXHUB|56=UNXQW|50=OR25|57=UNXQW|34=669|52=20051222-14:30:33|115=CAPREGION|116=DOT|128=UNXQW|1=242906|6=41.23000|11=0F8C01100300118|14=25|17=190668679|30=N|31=41.23000|32=25|37=14785968|38=25|39=2|40=1|54=1|55=KO|60=20051222-14:30:00|63=0|107=~TG-8331|20=0|10=086|
8=FIX.4.0|9=0297|35=8|49=NYFIXHUB|56=UNXQW|50=OR43|57=UNXQW|34=670|52=20051222-14:30:33|115=CAPREGION|116=DOT|128=UNXQW|1=240001|6=28.90000|11=0F8BE5700100036|14=900|17=190668680|30=N|31=28.90000|32=900|37=14822653|38=900|39=2|40=1|54=1|55=HPQ|58=1726 OPN9/0000 093026@|60=20051222-14:30:26|63=0|107=~TG-4376|20=0|10=139|
8=FIX.4.0|9=0301|35=8|49=NYFIXHUB|56=UNXQW|50=OR43|57=UNXQW|34=671|52=20051222-14:30:33|115=CAPREGION|116=DOT|128=UNXQW|1=240001|6=28.90000|11=0F8BE2300100028|14=1700|17=190668682|30=N|31=28.90000|32=1700|37=14822652|38=1700|39=2|40=1|54=1|55=HPQ|58=1726 OPN17/0000 093026@|60=20051222-14:30:26|63=0|107=~TG-4375|20=0|10=052|
8=FIX.4.0|9=0267|35=8|49=NYFIXHUB|56=UNXQW|50=OR25|57=UNXQW|34=672|52=20051222-14:30:33|115=CAPREGION|116=DOT|128=UNXQW|1=242906|6=41.23000|11=0F8C0B200300145|14=75|17=190668683|30=N|31=41.23000|32=75|37=14785974|38=75|39=2|40=1|54=1|55=KO|60=20051222-14:30:00|63=0|107=~TG-8333|20=0|10=107|
8=FIX.4.0|9=0294|35=8|49=NYFIXHUB|56=UNXQW|50=OR25|57=UNXQW|34=673|52=20051222-14:30:33|115=CAPREGION|116=DOT|128=UNXQW|1=240001|6=41.23000|11=0F8BEDA0010004A|14=200|17=190668685|30=N|31=41.23000|32=200|37=14785941|38=200|39=2|40=1|54=1|55=KO|58=20 OPN2/0000 093025@|60=20051222-14:30:25|63=0|107=~TG-8324|20=0|10=205|
8=FIX.4.0|9=0294|35=8|49=NYFIXHUB|56=UNXQW|50=OR25|57=UNXQW|34=674|52=20051222-14:30:33|115=CAPREGION|116=DOT|128=UNXQW|1=240001|6=41.23000|11=0F8BED200100046|14=400|17=190668686|30=N|31=41.23000|32=400|37=14785940|38=400|39=2|40=1|54=1|55=KO|58=20 OPN4/0000 093025@|60=20051222-14:30:25|63=0|107=~TG-8323|20=0|10=187|
8=FIX.4.0|9=0294|35=8|49=NYFIXHUB|56=UNXQW|50=OR25|57=UNXQW|34=675|52=20051222-14:30:33|115=CAPREGION|116=DOT|128=UNXQW|1=242906|6=41.23000|11=0F8C03300100064|14=200|17=190668687|30=N|31=41.23000|32=200|37=14785948|38=200|39=2|40=1|54=1|55=KO|58=20 OPN2/0000 093025@|60=20051222-14:30:25|63=0|107=~TG-8327|20=0|10=173|
8=FIX.4.0|9=0294|35=8|49=NYFIXHUB|56=UNXQW|50=OR25|57=UNXQW|34=676|52=20051222-14:30:33|115=CAPREGION|116=DOT|128=UNXQW|1=242906|6=41.23000|11=0F8C0A40030014A|14=100|17=190668688|30=N|31=41.23000|32=100|37=14785975|38=100|39=2|40=1|54=1|55=KO|58=20 OPN1/0000 093025@|60=20051222-14:30:25|63=0|107=~TG-8334|20=0|10=198|
8=FIX.4.0|9=0294|35=8|49=NYFIXHUB|56=UNXQW|50=OR25|57=UNXQW|34=677|52=20051222-14:30:33|115=CAPREGION|116=DOT|128=UNXQW|1=222501|6=41.23000|11=0F8BE2700100029|14=350|17=190668691|30=N|31=41.23000|32=350|37=14785938|38=350|39=2|40=1|54=2|55=KO|58=20 OPN3/0000 093025@|60=20051222-14:30:25|63=0|107=~TG-8321|20=0|10=196|
8=FIX.4.0|9=0267|35=8|49=NYFIXHUB|56=UNXQW|50=OR10|57=UNXQW|34=678|52=20051222-14:30:33|115=CAPREGION|116=DOT|128=UNXQW|1=242906|6=65.98000|11=0F8BFF30030010E|14=40|17=190668695|30=N|31=65.98000|32=40|37=14832177|38=40|39=2|40=1|54=1|55=FD|60=20051222-14:30:00|63=0|107=~TG-8579|20=0|10=144|
8=FIX.4.0|9=0294|35=8|49=NYFIXHUB|56=UNXQW|50=OR10|57=UNXQW|34=679|52=20051222-14:30:34|115=CAPREGION|116=DOT|128=UNXQW|1=242906|6=65.98000|11=0F8C07F00300135|14=100|17=190668700|30=N|31=65.98000|32=100|37=14832183|38=100|39=2|40=1|54=1|55=FD|58=20 OPN1/0000 093026@|60=20051222-14:30:26|63=0|107=~TG-8581|20=0|10=186|
8=FIX.4.0|9=0296|35=8|49=NYFIXHUB|56=UNXQW|50=OR20|57=UNXQW|34=680|52=20051222-14:30:35|115=CAPREGION|116=DOT|128=UNXQW|1=242906|6=41.57000|11=0F8C1380010009B|14=200|17=190668707|30=N|31=41.57000|32=200|37=14783440|38=200|39=2|40=1|54=2|55=AMP|58=210 OPN2/0000 093029@|60=20051222-14:30:29|63=0|107=~TG-3982|20=0|10=055|
8=FIX.4.0|9=0266|35=8|49=NYFIXHUB|56=UNXQW|50=OR7|57=UNXQW|34=681|52=20051222-14:30:35|115=CAPREGION|116=DOT|128=UNXQW|1=222501|6=63.44000|11=0F8BE7F003000DF|14=50|17=190668708|30=N|31=63.44000|32=50|37=14769345|38=50|39=2|40=1|54=1|55=AT|60=20051222-14:30:00|63=0|107=~TG-5055|20=0|10=088|
8=FIX.4.0|9=0296|35=8|49=NYFIXHUB|56=UNXQW|50=OR20|57=UNXQW|34=682|52=20051222-14:30:35|115=CAPREGION|116=DOT|128=UNXQW|1=205182|6=41.57000|11=0F8BEF30010004F|14=200|17=190668714|30=N|31=41.57000|32=200|37=14783416|38=200|39=2|40=1|54=2|55=AMP|58=210 OPN2/0000 093029@|60=20051222-14:30:29|63=0|107=~TG-3976|20=0|10=088|
8=FIX.4.0|9=0266|35=8|49=NYFIXHUB|56=UNXQW|50=OR7|57=UNXQW|34=683|52=20051222-14:30:35|115=CAPREGION|116=DOT|128=UNXQW|1=242906|6=63.43000|11=0F8C0D300300150|14=10|17=190668711|30=N|31=63.43000|32=10|37=14769358|38=10|39=2|40=1|54=2|55=AT|60=20051222-14:30:00|63=0|107=~TG-5061|20=0|10=021|
8=FIX.4.0|9=0268|35=8|49=NYFIXHUB|56=UNXQW|50=OR39|57=UNXQW|34=684|52=20051222-14:30:35|115=CAPREGION|116=DOT|128=UNXQW|1=242906|6=30.26000|11=0F8C14B00300153|14=96|17=190668712|30=N|31=30.26000|32=96|37=14802406|38=96|39=2|40=1|54=2|55=CPB|60=20051222-14:30:00|63=0|107=~TG-9807|20=0|10=171|
8=FIX.4.0|9=0300|35=8|49=NYFIXHUB|56=UNXQW|50=OR38|57=UNXQW|34=685|52=20051222-14:30:35|115=CAPREGION|116=DOT|128=UNXQW|1=242906|6=65.91000|11=0F8BFE500100061|14=1800|17=190668719|30=N|31=65.91000|32=1800|37=14800861|38=1800|39=2|40=1|54=2|55=FRE|58=210 OPN18/0000 093027@|60=20051222-14:30:27|63=0|107=~TG-3279|20=0|10=036|
8=FIX.4.0|9=0296|35=8|49=NYFIXHUB|56=UNXQW|50=OR22|57=UNXQW|34=686|52=20051222-14:30:35|115=CAPREGION|116=DOT|128=UNXQW|1=240501|6=57.05000|11=0F8BDCD00300092|14=100|17=190668717|30=N|31=57.05000|32=100|37=14790867|38=100|39=2|40=1|54=2|55=CVX|58=210 OPN1/0000 093030@|60=20051222-14:30:30|63=0|107=~TG-3482|20=0|10=090|
8=FIX.4.0|9=0268|35=8|49=NYFIXHUB|56=UNXQW|50=OR20|57=UNXQW|34=687|52=20051222-14:30:36|115=CAPREGION|116=DOT|128=UNXQW|1=233701|6=41.57000|11=0F8BDF8003000AB|14=40|17=190668721|30=N|31=41.57000|32=40|37=14783448|38=40|39=2|40=1|54=2|55=AMP|60=20051222-14:30:00|63=0|107=~TG-3984|20=0|10=212|
8=FIX.4.0|9=0268|35=8|49=NYFIXHUB|56=UNXQW|50=OR48|57=UNXQW|34=688|52=20051222-14:30:36|115=CAPREGION|116=DOT|128=UNXQW|1=242906|6=77.05000|11=0F8C08F00300128|14=65|17=190668723|30=N|31=77.05000|32=65|37=14831115|38=65|39=2|40=1|54=2|55=WLP|60=20051222-14:30:00|63=0|107=~TG-9602|20=0|10=213|
8=FIX.4.0|9=0268|35=8|49=NYFIXHUB|56=UNXQW|50=OR48|57=UNXQW|34=689|52=20051222-14:30:36|115=CAPREGION|116=DOT|128=UNXQW|1=270107|6=77.05000|11=0F8C260001000C0|14=50|17=190668724|30=N|31=77.05000|32=50|37=14831105|38=50|39=2|40=1|54=2|55=WLP|60=20051222-14:30:00|63=0|107=~TG-9600|20=0|10=172|
8=FIX.4.0|9=0268|35=8|49=NYFIXHUB|56=UNXQW|50=OR20|57=UNXQW|34=690|52=20051222-14:30:36|115=CAPREGION|116=DOT|128=UNXQW|1=240501|6=41.57000|11=0F8BE05003000C6|14=12|17=190668727|30=N|31=41.57000|32=12|37=14783453|38=12|39=2|40=1|54=2|55=AMP|60=20051222-14:30:00|63=0|107=~TG-3987|20=0|10=170|
8=FIX.4.0|9=0268|35=8|49=NYFIXHUB|56=UNXQW|50=OR20|57=UNXQW|34=691|52=20051222-14:30:36|115=CAPREGION|116=DOT|128=UNXQW|1=240001|6=41.57000|11=0F8BEA1003000E8|14=20|17=190668728|30=N|31=41.57000|32=20|37=14783462|38=20|39=2|40=1|54=2|55=AMP|60=20051222-14:30:00|63=0|107=~TG-3990|20=0|10=175|
8=FIX.4.0|9=0296|35=8|49=NYFIXHUB|56=UNXQW|50=OR9|57=UNXQW|34=692|52=20051222-14:30:39|115=CAPREGION|116=DOT|128=UNXQW|1=242906|6=46.15000|11=0F8C1DF001000B5|14=300|17=190668734|30=N|31=46.15000|32=300|37=14777843|38=300|39=2|40=1|54=2|55=WYE|58=1726 OPN3/0000 093032@|60=20051222-14:30:32|63=0|107=~TG-4571|20=0|10=127|
8=FIX.4.0|9=0296|35=8|49=NYFIXHUB|56=UNXQW|50=OR12|57=UNXQW|34=693|52=20051222-14:30:40|115=CAPREGION|116=DOT|128=UNXQW|1=222501|6=12.60000|11=0F8BEB70010003F|14=320|17=190668736|30=N|31=12.60000|32=320|37=14776406|38=320|39=2|40=1|54=1|55=CZN|58=210 OPN3/0000 093030@|60=20051222-14:30:30|63=0|107=~TG-9002|20=0|10=061|
8=FIX.4.0|9=0296|35=8|49=NYFIXHUB|56=UNXQW|50=OR12|57=UNXQW|34=694|52=20051222-14:30:40|115=CAPREGION|116=DOT|128=UNXQW|1=222501|6=12.60000|11=0F8BEC200100040|14=320|17=190668737|30=N|31=12.60000|32=320|37=14776407|38=320|39=2|40=1|54=1|55=CZN|58=210 OPN3/0000 093030@|60=20051222-14:30:30|63=0|107=~TG-9003|20=0|10=040|
8=FIX.4.0|9=0296|35=8|49=NYFIXHUB|56=UNXQW|50=OR31|57=UNXQW|34=695|52=20051222-14:30:40|115=CAPREGION|116=DOT|128=UNXQW|1=242906|6=31.89000|11=0F8C17F001000AA|14=300|17=190668740|30=N|31=31.89000|32=300|37=14785357|38=300|39=2|40=1|54=2|55=MRK|58=210 OPN3/0000 093032@|60=20051222-14:30:32|63=0|107=~TG-2381|20=0|10=094|
8=FIX.4.0|9=0268|35=8|49=NYFIXHUB|56=UNXQW|50=OR19|57=UNXQW|34=696|52=20051222-14:30:41|115=CAPREGION|116=DOT|128=UNXQW|1=242906|6=56.09000|11=0F8C0560030012A|14=50|17=190668744|30=N|31=56.09000|32=50|37=14827152|38=50|39=2|40=1|54=2|55=AVY|60=20051222-14:30:00|63=0|107=~TG-9219|20=0|10=190|
8=FIX.4.0|9=0268|35=8|49=NYFIXHUB|56=UNXQW|50=OR27|57=UNXQW|34=697|52=20051222-14:30:43|115=CAPREGION|116=DOT|128=UNXQW|1=242906|6=29.06000|11=0F8C0D500300151|14=95|17=190668747|30=N|31=29.06000|32=95|37=14798779|38=95|39=2|40=1|54=2|55=AVP|60=20051222-14:30:00|63=0|107=~TG-7134|20=0|10=224|
8=FIX.4.0|9=0296|35=8|49=NYFIXHUB|56=UNXQW|50=OR48|57=UNXQW|34=698|52=20051222-14:30:43|115=CAPREGION|116=DOT|128=UNXQW|1=240501|6=78.20000|11=0F8BDBC00100019|14=375|17=190668746|30=N|31=78.20000|32=375|37=14831093|38=375|39=2|40=1|54=2|55=FO|58=1418 OPN3/0000 093036@|60=20051222-14:30:36|63=0|107=~TG-7494|20=0|10=114|
8=FIX.4.0|9=0268|35=8|49=NYFIXHUB|56=UNXQW|50=OR20|57=UNXQW|34=699|52=20051222-14:30:43|115=CAPREGION|116=DOT|128=UNXQW|1=242906|6=60.06000|11=0F8C0050030010C|14=50|17=190668748|30=N|31=60.06000|32=50|37=14783470|38=50|39=2|40=1|54=2|55=APD|60=20051222-14:30:00|63=0|107=~TG-3994|20=0|10=150|
8=FIX.4.0|9=0268|35=8|49=NYFIXHUB|56=UNXQW|50=OR20|57=UNXQW|34=700|52=20051222-14:30:43|115=CAPREGION|116=DOT|128=UNXQW|1=240501|6=60.06000|11=0F8BDD100300075|14=50|17=190668749|30=N|31=60.06000|32=50|37=14783425|38=50|39=2|40=1|54=2|55=APD|60=20051222-14:30:00|63=0|107=~TG-3977|20=0|10=151|
8=FIX.4.0|9=0267|35=8|49=NYFIXHUB|56=UNXQW|50=OR33|57=UNXQW|34=701|52=20051222-14:30:44|115=CAPREGION|116=DOT|128=UNXQW|1=242906|6=73.35000|11=0F8C03100300124|14=15|17=190668754|30=N|31=73.35000|32=15|37=14826621|38=15|39=2|40=1|54=2|55=NE|60=20051222-14:30:00|63=0|107=~TG-3695|20=0|10=064|
8=FIX.4.0|9=0297|35=8|49=NYFIXHUB|56=UNXQW|50=OR27|57=UNXQW|34=702|52=20051222-14:30:45|115=CAPREGION|116=DOT|128=UNXQW|1=242906|6=29.06000|11=0F8C0640010006D|14=890|17=190668757|30=N|31=29.06000|32=890|37=14798746|38=890|39=2|40=1|54=2|55=AVP|58=1418 OPN8/0000 093038@|60=20051222-14:30:38|63=0|107=~TG-7125|20=0|10=188|
8=FIX.4.0|9=0295|35=8|49=NYFIXHUB|56=UNXQW|50=OR18|57=UNXQW|34=703|52=20051222-14:30:46|115=CAPREGION|116=DOT|128=UNXQW|1=240001|6=48.65000|11=0F8BE4100100031|14=250|17=190668758|30=N|31=48.65000|32=250|37=14781959|38=250|39=2|40=1|54=1|55=WMT|58=20 OPN2/0000 093040@|60=20051222-14:30:40|63=0|107=~TG-7529|20=0|10=042|
8=FIX.4.0|9=0295|35=8|49=NYFIXHUB|56=UNXQW|50=OR18|57=UNXQW|34=704|52=20051222-14:30:46|115=CAPREGION|116=DOT|128=UNXQW|1=242906|6=48.65000|11=0F8C07900100071|14=390|17=190668759|30=N|31=48.65000|32=390|37=14781968|38=390|39=2|40=1|54=2|55=WMT|58=20 OPN3/0000 093040@|60=20051222-14:30:40|63=0|107=~TG-7536|20=0|10=070|
8=FIX.4.0|9=0295|35=8|49=NYFIXHUB|56=UNXQW|50=OR18|57=UNXQW|34=705|52=20051222-14:30:46|115=CAPREGION|116=DOT|128=UNXQW|1=240001|6=48.65000|11=0F8BED000100045|14=400|17=190668763|30=N|31=48.65000|32=400|37=14781962|38=400|39=2|40=1|54=1|55=WMT|58=20 OPN4/0000 093040@|60=20051222-14:30:40|63=0|107=~TG-7532|20=0|10=041|
8=FIX.4.0|9=0264|35=8|49=NYFIXHUB|56=UNXQW|50=OR14|57=UNXQW|34=706|52=20051222-14:30:46|115=CAPREGION|116=DOT|128=UNXQW|1=240501|6=28.08000|11=0F8BE03003000A3|14=1|17=190668764|30=N|31=28.08000|32=1|37=14833058|38=1|39=2|40=1|54=2|55=NP|60=20051222-14:30:00|63=0|107=~TG-8851|20=0|10=198|
8=FIX.4.0|9=0295|35=8|49=NYFIXHUB|56=UNXQW|50=OR18|57=UNXQW|34=707|52=20051222-14:30:46|115=CAPREGION|116=DOT|128=UNXQW|1=242906|6=48.65000|11=0F8C157001000A1|14=300|17=190668767|30=N|31=48.65000|32=300|37=14781972|38=300|39=2|40=1|54=2|55=WMT|58=20 OPN3/0000 093040@|60=20051222-14:30:40|63=0|107=~TG-7540|20=0|10=042|
8=FIX.4.0|9=0295|35=8|49=NYFIXHUB|56=UNXQW|50=OR18|57=UNXQW|34=708|52=20051222-14:30:46|115=CAPREGION|116=DOT|128=UNXQW|1=240001|6=48.65000|11=0F8BED800100049|14=200|17=190668768|30=N|31=48.65000|32=200|37=14781963|38=200|39=2|40=1|54=1|55=WMT|58=20 OPN2/0000 093040@|60=20051222-14:30:40|63=0|107=~TG-7533|20=0|10=055|
8=FIX.4.0|9=0267|35=8|49=NYFIXHUB|56=UNXQW|50=OR14|57=UNXQW|34=709|52=20051222-14:30:46|115=CAPREGION|116=DOT|128=UNXQW|1=240001|6=28.08000|11=0F8BEDC003000F2|14=18|17=190668772|30=N|31=28.08000|32=18|37=14833067|38=18|39=2|40=1|54=2|55=NP|60=20051222-14:30:00|63=0|107=~TG-8855|20=0|10=154|
8=FIX.4.0|9=0268|35=8|49=NYFIXHUB|56=UNXQW|50=OR28|57=UNXQW|34=710|52=20051222-14:30:47|115=CAPREGION|116=DOT|128=UNXQW|1=242906|6=59.35000|11=0F8C04500300122|14=19|17=190668774|30=N|31=59.35000|32=19|37=14828606|38=19|39=2|40=1|54=2|55=PEP|60=20051222-14:30:00|63=0|107=~TG-5291|20=0|10=178|
8=FIX.4.0|9=0297|35=8|49=NYFIXHUB|56=UNXQW|50=OR28|57=UNXQW|34=711|52=20051222-14:30:47|115=CAPREGION|116=DOT|128=UNXQW|1=242906|6=59.35000|11=0F8BFFF0030011C|14=150|17=190668780|30=N|31=59.35000|32=150|37=14828605|38=150|39=2|40=1|54=1|55=PEP|58=1418 OPN1/0000 093040@|60=20051222-14:30:40|63=0|107=~TG-5290|20=0|10=181|
8=FIX.4.0|9=0268|35=8|49=NYFIXHUB|56=UNXQW|50=OR18|57=UNXQW|34=712|52=20051222-14:30:48|115=CAPREGION|116=DOT|128=UNXQW|1=242906|6=48.65000|11=0F8C0E900300152|14=95|17=190668785|30=N|31=48.65000|32=95|37=14781987|38=95|39=2|40=1|54=2|55=WMT|60=20051222-14:30:00|63=0|107=~TG-7543|20=0|10=251|
8=FIX.4.0|9=0297|35=8|49=NYFIXHUB|56=UNXQW|50=OR23|57=UNXQW|34=713|52=20051222-14:30:48|115=CAPREGION|116=DOT|128=UNXQW|1=222501|6=62.75000|11=0F8BDFC003000C5|14=100|17=190668788|30=N|31=62.75000|32=100|37=14829158|38=100|39=2|40=1|54=1|55=FSH|58=1418 TOD1/0000 093047@|60=20051222-14:30:47|63=0|107=~TG-8634|20=0|10=168|
8=FIX.4.0|9=0301|35=8|49=NYFIXHUB|56=UNXQW|50=OR23|57=UNXQW|34=714|52=20051222-14:30:48|115=CAPREGION|116=DOT|128=UNXQW|1=268302|6=62.75000|11=0F8C216001000B7|14=1950|17=190668793|30=N|31=62.75000|32=1950|37=14829157|38=1950|39=2|40=1|54=1|55=FSH|58=1418 TOD19/0000 093047@|60=20051222-14:30:47|63=0|107=~TG-8633|20=0|10=093|
8=FIX.4.0|9=0295|35=8|49=NYFIXHUB|56=UNXQW|50=OR33|57=UNXQW|34=715|52=20051222-14:30:48|115=CAPREGION|116=DOT|128=UNXQW|1=242906|6=73.35000|11=0F8C04B00300139|14=100|17=190668795|30=N|31=73.35000|32=100|37=14826624|38=100|39=2|40=1|54=2|55=NE|58=210 OPN1/0000 093041@|60=20051222-14:30:41|63=0|107=~TG-3696|20=0|10=237|
8=FIX.4.0|9=0295|35=8|49=NYFIXHUB|56=UNXQW|50=OR8|57=UNXQW|34=757|52=20051222-14:30:50|115=CAPREGION|116=DOT|128=UNXQW|1=240501|6=43.90000|11=0F8BDB000100015|14=200|17=190668837|30=N|31=43.90000|32=200|37=14832516|38=200|39=2|40=1|54=1|55=DOW|58=501 OPN2/0000 093041@|60=20051222-14:30:41|63=0|107=~TG-6259|20=0|10=010|
8=FIX.4.0|9=0295|35=8|49=NYFIXHUB|56=UNXQW|50=OR8|57=UNXQW|34=758|52=20051222-14:30:50|115=CAPREGION|116=DOT|128=UNXQW|1=242906|6=43.90000|11=0F8BFBA00100056|14=350|17=190668838|30=N|31=43.90000|32=350|37=14832524|38=350|39=2|40=1|54=2|55=DOW|58=501 OPN3/0000 093041@|60=20051222-14:30:41|63=0|107=~TG-6263|20=0|10=061|
8=FIX.4.0|9=0268|35=8|49=NYFIXHUB|56=UNXQW|50=OR15|57=UNXQW|34=759|52=20051222-14:30:50|115=CAPREGION|116=DOT|128=UNXQW|1=222501|6=44.45000|11=0F8BEA5003000EB|14=20|17=190668842|30=N|31=44.45000|32=20|37=14834001|38=20|39=2|40=1|54=1|55=SHW|60=20051222-14:30:00|63=0|107=~TG-6632|20=0|10=197|
8=FIX.4.0|9=0297|35=8|49=NYFIXHUB|56=UNXQW|50=OR13|57=UNXQW|34=760|52=20051222-14:30:50|115=CAPREGION|116=DOT|128=UNXQW|1=233701|6=32.68000|11=0F8BD910030008C|14=150|17=190668846|30=N|31=32.68000|32=150|37=14776916|38=150|39=2|40=1|54=2|55=IRF|58=1726 OPN1/0000 093043@|60=20051222-14:30:43|63=0|107=~TG-8912|20=0|10=149|
8=FIX.4.0|9=0268|35=8|49=NYFIXHUB|56=UNXQW|50=OR15|57=UNXQW|34=761|52=20051222-14:30:50|115=CAPREGION|116=DOT|128=UNXQW|1=222501|6=44.45000|11=0F8BEBE003000F4|14=80|17=190668844|30=N|31=44.45000|32=80|37=14834005|38=80|39=2|40=1|54=1|55=SHW|60=20051222-14:30:00|63=0|107=~TG-6636|20=0|10=222|
8=FIX.4.0|9=0268|35=8|49=NYFIXHUB|56=UNXQW|50=OR15|57=UNXQW|34=762|52=20051222-14:30:50|115=CAPREGION|116=DOT|128=UNXQW|1=222501|6=44.45000|11=0F8BEB3003000EF|14=80|17=190668845|30=N|31=44.45000|32=80|37=14834002|38=80|39=2|40=1|54=1|55=SHW|60=20051222-14:30:00|63=0|107=~TG-6633|20=0|10=217|
8=FIX.4.0|9=0297|35=8|49=NYFIXHUB|56=UNXQW|50=OR13|57=UNXQW|34=763|52=20051222-14:30:50|115=CAPREGION|116=DOT|128=UNXQW|1=233701|6=32.68000|11=0F8BD930010000E|14=800|17=190668848|30=N|31=32.68000|32=800|37=14776889|38=800|39=2|40=1|54=2|55=IRF|58=1726 OPN8/0000 093043@|60=20051222-14:30:43|63=0|107=~TG-8903|20=0|10=170|
8=FIX.4.0|9=0296|35=8|49=NYFIXHUB|56=UNXQW|50=OR41|57=UNXQW|34=764|52=20051222-14:30:51|115=CAPREGION|116=DOT|128=UNXQW|1=240501|6=41.75000|11=0F8BDC60010001E|14=250|17=190668863|30=N|31=41.75000|32=250|37=14823142|38=250|39=2|40=1|54=2|55=FPL|58=501 OPN2/0000 093042@|60=20051222-14:30:42|63=0|107=~TG-7824|20=0|10=083|
8=FIX.4.0|9=0297|35=8|49=NYFIXHUB|56=UNXQW|50=OR10|57=UNXQW|34=765|52=20051222-14:30:51|115=CAPREGION|116=DOT|128=UNXQW|1=240501|6=74.92000|11=0F8BDA200100013|14=200|17=190668873|30=N|31=74.92000|32=200|37=14832123|38=200|39=2|40=1|54=1|55=LLL|58=1034 OPN2/0000 093044@|60=20051222-14:30:44|63=0|107=~TG-8562|20=0|10=107|
8=FIX.4.0|9=0265|35=8|49=NYFIXHUB|56=UNXQW|50=OR32|57=UNXQW|34=766|52=20051222-14:30:52|115=CAPREGION|116=DOT|128=UNXQW|1=240501|6=39.65000|11=0F8BDE600300083|14=4|17=190668878|30=N|31=39.65000|32=4|37=14821755|38=4|39=2|40=1|54=2|55=PJC|60=20051222-14:30:00|63=0|107=~TG-5384|20=0|10=047|
8=FIX.4.0|9=0295|35=8|49=NYFIXHUB|56=UNXQW|50=OR15|57=UNXQW|34=767|52=20051222-14:30:52|115=CAPREGION|116=DOT|128=UNXQW|1=242906|6=59.77000|11=0F8C15D0030016B|14=100|17=190668875|30=N|31=59.77000|32=100|37=14834025|38=100|39=2|40=1|54=1|55=COP|58=20 TOD1/0000 093051@|60=20051222-14:30:51|63=0|107=~TG-6648|20=0|10=037|
8=FIX.4.0|9=0296|35=8|49=NYFIXHUB|56=UNXQW|50=OR39|57=UNXQW|34=768|52=20051222-14:30:53|115=CAPREGION|116=DOT|128=UNXQW|1=242906|6=58.39000|11=0F8C12C0030015C|14=160|17=190668879|30=N|31=58.39000|32=160|37=14802448|38=160|39=2|40=1|54=2|55=PG|58=1418 TOD1/0000 093052@|60=20051222-14:30:52|63=0|107=~TG-9833|20=0|10=097|
8=FIX.4.0|9=0295|35=8|49=NYFIXHUB|56=UNXQW|50=OR33|57=UNXQW|34=769|52=20051222-14:30:53|115=CAPREGION|116=DOT|128=UNXQW|1=253501|6=47.09000|11=0F8C3B0001000D3|14=600|17=190668880|30=N|31=47.09000|32=600|37=14826590|38=600|39=2|40=1|54=1|55=AFL|58=20 OPN6/0000 093045@|60=20051222-14:30:45|63=0|107=~TG-3688|20=0|10=030|
8=FIX.4.0|9=0297|35=8|49=NYFIXHUB|56=UNXQW|50=OR43|57=UNXQW|34=770|52=20051222-14:30:53|115=CAPREGION|116=DOT|128=UNXQW|1=242906|6=28.91000|11=0F8C13A00300168|14=100|17=190668881|30=N|31=28.91000|32=100|37=14822759|38=100|39=2|40=1|54=1|55=HPQ|58=1726 TOD1/0000 093052@|60=20051222-14:30:52|63=0|107=~TH-0444|20=0|10=120|
8=FIX.4.0|9=0295|35=8|49=NYFIXHUB|56=UNXQW|50=OR33|57=UNXQW|34=771|52=20051222-14:30:53|115=CAPREGION|116=DOT|128=UNXQW|1=242906|6=47.09000|11=0F8C0A200300140|14=150|17=190668884|30=N|31=47.09000|32=150|37=14826625|38=150|39=2|40=1|54=2|55=AFL|58=20 OPN1/0000 093045@|60=20051222-14:30:45|63=0|107=~TG-3697|20=0|10=011|
8=FIX.4.0|9=0296|35=8|49=NYFIXHUB|56=UNXQW|50=OR20|57=UNXQW|34=772|52=20051222-14:30:53|115=CAPREGION|116=DOT|128=UNXQW|1=242906|6=60.06000|11=0F8C1280030015D|14=150|17=190668883|30=N|31=60.06000|32=150|37=14783495|38=150|39=2|40=1|54=2|55=APD|58=501 TOD1/0000 093052@|60=20051222-14:30:52|63=0|107=~TG-9906|20=0|10=055|
8=FIX.4.0|9=0297|35=8|49=NYFIXHUB|56=UNXQW|50=OR43|57=UNXQW|34=773|52=20051222-14:30:53|115=CAPREGION|116=DOT|128=UNXQW|1=242906|6=28.91000|11=0F8C0B900300158|14=125|17=190668882|30=N|31=28.91000|32=125|37=14822758|38=125|39=2|40=1|54=1|55=HPQ|58=1726 TOD1/0000 093052@|60=20051222-14:30:52|63=0|107=~TH-0443|20=0|10=148|
8=FIX.4.0|9=0297|35=8|49=NYFIXHUB|56=UNXQW|50=OR46|57=UNXQW|34=774|52=20051222-14:30:54|115=CAPREGION|116=DOT|128=UNXQW|1=242906|6=22.87000|11=0F8C13600300169|14=150|17=190668887|30=N|31=22.87000|32=150|37=14826185|38=150|39=2|40=1|54=1|55=WFR|58=1418 TOD1/0000 093053@|60=20051222-14:30:53|63=0|107=~TG-9432|20=0|10=145|
8=FIX.4.0|9=0296|35=8|49=NYFIXHUB|56=UNXQW|50=OR9|57=UNXQW|34=775|52=20051222-14:30:54|115=CAPREGION|116=DOT|128=UNXQW|1=242906|6=57.04000|11=0F8C13F00300166|14=150|17=190668889|30=N|31=57.04000|32=150|37=14777858|38=150|39=2|40=1|54=2|55=LLY|58=1726 TOD1/0000 093053@|60=20051222-14:30:53|63=0|107=~TG-4575|20=0|10=125|
8=FIX.4.0|9=0297|35=8|49=NYFIXHUB|56=UNXQW|50=OR46|57=UNXQW|34=776|52=20051222-14:30:54|115=CAPREGION|116=DOT|128=UNXQW|1=242906|6=22.87000|11=0F8C1110030015F|14=100|17=190668888|30=N|31=22.87000|32=100|37=14826184|38=100|39=2|40=1|54=1|55=WFR|58=1418 TOD1/0000 093053@|60=20051222-14:30:53|63=0|107=~TG-9431|20=0|10=136|
8=FIX.4.0|9=0268|35=8|49=NYFIXHUB|56=UNXQW|50=OR36|57=UNXQW|34=777|52=20051222-14:30:55|115=CAPREGION|116=DOT|128=UNXQW|1=240501|6=46.78000|11=0F8BE2F003000AE|14=50|17=190668893|30=N|31=46.78000|32=50|37=14825600|38=50|39=2|40=1|54=2|55=BAC|60=20051222-14:30:00|63=0|107=~TG-9503|20=0|10=199|
8=FIX.4.0|9=0268|35=8|49=NYFIXHUB|56=UNXQW|50=OR36|57=UNXQW|34=778|52=20051222-14:30:55|115=CAPREGION|116=DOT|128=UNXQW|1=271401|6=46.78000|11=0F8C23F001000BD|14=50|17=190668895|30=N|31=46.78000|32=50|37=14825601|38=50|39=2|40=1|54=1|55=BAC|60=20051222-14:30:00|63=0|107=~TG-9504|20=0|10=187|
8=FIX.4.0|9=0296|35=8|49=NYFIXHUB|56=UNXQW|50=OR32|57=UNXQW|34=779|52=20051222-14:30:55|115=CAPREGION|116=DOT|128=UNXQW|1=242906|6=66.22000|11=0F8C1750030016F|14=100|17=190668896|30=N|31=66.22000|32=100|37=14821818|38=100|39=2|40=1|54=2|55=AIG|58=501 TOD1/0000 093055@|60=20051222-14:30:55|63=0|107=~TH-0108|20=0|10=049|
8=FIX.4.0|9=0301|35=8|49=NYFIXHUB|56=UNXQW|50=OR46|57=UNXQW|34=780|52=20051222-14:30:58|115=CAPREGION|116=DOT|128=UNXQW|1=205182|6=59.58000|11=0F8BECA00100043|14=1100|17=190668900|30=N|31=59.58000|32=1100|37=14826100|38=1100|39=2|40=1|54=2|55=KMB|58=1418 OPN11/0000 093051@|60=20051222-14:30:51|63=0|107=~TG-3896|20=0|10=066|
8=FIX.4.0|9=0268|35=8|49=NYFIXHUB|56=UNXQW|50=OR48|57=UNXQW|34=781|52=20051222-14:30:58|115=CAPREGION|116=DOT|128=UNXQW|1=222501|6=68.91000|11=0F8C2D700300177|14=20|17=190668898|30=N|31=68.91000|32=20|37=14831133|38=20|39=2|40=1|54=1|55=LOW|60=20051222-14:30:00|63=0|107=~TG-9614|20=0|10=200|
8=FIX.4.0|9=0297|35=8|49=NYFIXHUB|56=UNXQW|50=OR46|57=UNXQW|34=782|52=20051222-14:30:58|115=CAPREGION|116=DOT|128=UNXQW|1=240501|6=59.58000|11=0F8BD9900100011|14=200|17=190668903|30=N|31=59.58000|32=200|37=14826092|38=200|39=2|40=1|54=2|55=KMB|58=1418 OPN2/0000 093051@|60=20051222-14:30:51|63=0|107=~TG-3892|20=0|10=125|
8=FIX.4.0|9=0268|35=8|49=NYFIXHUB|56=UNXQW|50=OR46|57=UNXQW|34=783|52=20051222-14:30:58|115=CAPREGION|116=DOT|128=UNXQW|1=222501|6=59.58000|11=0F8BE8D003000E7|14=40|17=190668909|30=N|31=59.58000|32=40|37=14826134|38=40|39=2|40=1|54=2|55=KMB|60=20051222-14:30:00|63=0|107=~TG-9402|20=0|10=214|
8=FIX.4.0|9=0296|35=8|49=NYFIXHUB|56=UNXQW|50=OR48|57=UNXQW|34=784|52=20051222-14:30:58|115=CAPREGION|116=DOT|128=UNXQW|1=240001|6=68.90000|11=0F8BE3D00100030|14=200|17=190668904|30=N|31=68.90000|32=200|37=14831095|38=200|39=2|40=1|54=1|55=LOW|58=210 OPN2/0000 093046@|60=20051222-14:30:46|63=0|107=~TG-7496|20=0|10=098|
8=FIX.4.0|9=0296|35=8|49=NYFIXHUB|56=UNXQW|50=OR48|57=UNXQW|34=785|52=20051222-14:30:58|115=CAPREGION|116=DOT|128=UNXQW|1=242906|6=68.90000|11=0F8C0810030013E|14=100|17=190668906|30=N|31=68.90000|32=100|37=14831116|38=100|39=2|40=1|54=1|55=LOW|58=210 OPN1/0000 093046@|60=20051222-14:30:46|63=0|107=~TG-9603|20=0|10=089|
8=FIX.4.0|9=0300|35=8|49=NYFIXHUB|56=UNXQW|50=OR48|57=UNXQW|34=786|52=20051222-14:30:58|115=CAPREGION|116=DOT|128=UNXQW|1=205184|6=68.90000|11=0F8BEEF0010004D|14=1000|17=190668907|30=N|31=68.90000|32=1000|37=14831097|38=1000|39=2|40=1|54=1|55=LOW|58=210 OPN10/0000 093046@|60=20051222-14:30:46|63=0|107=~TG-7498|20=0|10=079|
8=FIX.4.0|9=0268|35=8|49=NYFIXHUB|56=UNXQW|50=OR17|57=UNXQW|34=787|52=20051222-14:30:58|115=CAPREGION|116=DOT|128=UNXQW|1=222501|6=85.31000|11=0F8C2DC0030017C|14=10|17=190668911|30=N|31=85.31000|32=10|37=14784403|38=10|39=2|40=1|54=1|55=NKE|60=20051222-14:30:00|63=0|107=~TG-5189|20=0|10=185|
8=FIX.4.0|9=0268|35=8|49=NYFIXHUB|56=UNXQW|50=OR33|57=UNXQW|34=788|52=20051222-14:30:59|115=CAPREGION|116=DOT|128=UNXQW|1=242906|6=47.08000|11=0F8C19800300163|14=35|17=190668912|30=N|31=47.08000|32=35|37=14826648|38=35|39=2|40=1|54=2|55=AFL|60=20051222-14:30:00|63=0|107=~TH-0012|20=0|10=161|
8=FIX.4.0|9=0297|35=8|49=NYFIXHUB|56=UNXQW|50=OR21|57=UNXQW|34=789|52=20051222-14:30:59|115=CAPREGION|116=DOT|128=UNXQW|1=242906|6=68.19000|11=0F8C16100300165|14=100|17=190668913|30=N|31=68.19000|32=100|37=14805381|38=100|39=2|40=1|54=1|55=MER|58=1418 TOD1/0000 093058@|60=20051222-14:30:58|63=0|107=~TG-4790|20=0|10=124|
8=FIX.4.0|9=0268|35=8|49=NYFIXHUB|56=UNXQW|50=OR17|57=UNXQW|34=790|52=20051222-14:30:59|115=CAPREGION|116=DOT|128=UNXQW|1=222501|6=17.66000|11=0F8C2DE0030017E|14=80|17=190668915|30=N|31=17.66000|32=80|37=14784404|38=80|39=2|40=1|54=1|55=TWX|60=20051222-14:30:00|63=0|107=~TG-5190|20=0|10=245|
8=FIX.4.0|9=0267|35=8|49=NYFIXHUB|56=UNXQW|50=OR16|57=UNXQW|34=791|52=20051222-14:31:00|115=CAPREGION|116=DOT|128=UNXQW|1=242906|6=32.39000|11=0F8C19A00300161|14=45|17=190668916|30=N|31=32.39000|32=45|37=14773389|38=45|39=2|40=1|54=2|55=BK|60=20051222-14:30:00|63=0|107=~TG-3792|20=0|10=102|
8=FIX.4.0|9=0268|35=8|49=NYFIXHUB|56=UNXQW|50=OR14|57=UNXQW|34=792|52=20051222-14:31:00|115=CAPREGION|116=DOT|128=UNXQW|1=222501|6=54.40000|11=0F8C27400300176|14=75|17=190668917|30=N|31=54.40000|32=75|37=14833171|38=75|39=2|40=1|54=1|55=FCX|60=20051222-14:30:00|63=0|107=~TH-0808|20=0|10=150|
8=FIX.4.0|9=0298|35=8|49=NYFIXHUB|56=UNXQW|50=OR47|57=UNXQW|34=793|52=20051222-14:31:00|115=CAPREGION|116=DOT|128=UNXQW|1=242906|6=34.85000|11=0F8BFDF0010005F|14=2800|17=190668918|30=N|31=34.85000|32=2800|37=14830028|38=2800|39=2|40=1|54=2|55=A|58=210 OPN28/0000 093049@|60=20051222-14:30:49|63=0|107=~TG-4963|20=0|10=191|
8=FIX.4.0|9=0294|35=8|49=NYFIXHUB|56=UNXQW|50=OR47|57=UNXQW|34=794|52=20051222-14:31:00|115=CAPREGION|116=DOT|128=UNXQW|1=242906|6=34.85000|11=0F8C1410010009C|14=350|17=190668919|30=N|31=34.85000|32=350|37=14830030|38=350|39=2|40=1|54=2|55=A|58=210 OPN3/0000 093049@|60=20051222-14:30:49|63=0|107=~TG-4965|20=0|10=179|
8=FIX.4.0|9=0268|35=8|49=NYFIXHUB|56=UNXQW|50=OR39|57=UNXQW|34=795|52=20051222-14:31:02|115=CAPREGION|116=DOT|128=UNXQW|1=222501|6=35.04000|11=0F8BE77003000D4|14=40|17=190668926|30=N|31=35.04000|32=40|37=14802377|38=40|39=2|40=1|54=2|55=LIZ|60=20051222-14:31:00|63=0|107=~TG-1495|20=0|10=189|
8=FIX.4.0|9=0301|35=8|49=NYFIXHUB|56=UNXQW|50=OR11|57=UNXQW|34=796|52=20051222-14:31:03|115=CAPREGION|116=DOT|128=UNXQW|1=268302|6=37.18000|11=0F8C21B001000B8|14=3400|17=190668932|30=N|31=37.18000|32=3400|37=14823628|38=3400|39=2|40=1|54=1|55=WSH|58=1148 OPN34/0000 093058@|60=20051222-14:30:58|63=0|107=~TG-9101|20=0|10=086|
8=FIX.4.0|9=0268|35=8|49=NYFIXHUB|56=UNXQW|50=OR41|57=UNXQW|34=797|52=20051222-14:31:03|115=CAPREGION|116=DOT|128=UNXQW|1=268302|6=36.57000|11=0F8C1FD00300170|14=80|17=190668936|30=N|31=36.57000|32=80|37=14823174|38=80|39=2|40=1|54=1|55=ADI|60=20051222-14:31:00|63=0|107=~TG-7846|20=0|10=188|
8=FIX.4.0|9=0294|35=8|49=NYFIXHUB|56=UNXQW|50=OR8|57=UNXQW|34=798|52=20051222-14:31:03|115=CAPREGION|116=DOT|128=UNXQW|1=242906|6=32.02000|11=0F8C17B001000A9|14=400|17=190668935|30=N|31=32.02000|32=400|37=14832535|38=400|39=2|40=1|54=2|55=SYY|58=20 OPN4/0000 093054@|60=20051222-14:30:54|63=0|107=~TG-6266|20=0|10=005|
8=FIX.4.0|9=0293|35=8|49=NYFIXHUB|56=UNXQW|50=OR42|57=UNXQW|34=799|52=20051222-14:31:04|115=CAPREGION|116=DOT|128=UNXQW|1=222501|6=24.09000|11=0F8BE2D0010002B|14=200|17=190668940|30=N|31=24.09000|32=200|37=14804418|38=200|39=2|40=1|54=1|55=S|58=20 OPN2/0000 093055@|60=20051222-14:30:55|63=0|107=~TG-8407|20=0|10=132|
8=FIX.4.0|9=0297|35=8|49=NYFIXHUB|56=UNXQW|50=OR48|57=UNXQW|34=800|52=20051222-14:31:04|115=CAPREGION|116=DOT|128=UNXQW|1=240501|6=16.95000|11=0F8BEC400100041|14=200|17=190668943|30=N|31=16.95000|32=200|37=14831096|38=200|39=2|40=1|54=1|55=BLW|58=1148 OPN2/0000 093057@|60=20051222-14:30:57|63=0|107=~TG-7497|20=0|10=138|
8=FIX.4.0|9=0268|35=8|49=NYFIXHUB|56=UNXQW|50=OR48|57=UNXQW|34=801|52=20051222-14:31:04|115=CAPREGION|116=DOT|128=UNXQW|1=242906|6=77.19000|11=0F8C19600300162|14=50|17=190668947|30=N|31=77.19000|32=50|37=14831132|38=50|39=2|40=1|54=1|55=WLP|60=20051222-14:31:00|63=0|107=~TG-9613|20=0|10=181|
8=FIX.4.0|9=0296|35=8|49=NYFIXHUB|56=UNXQW|50=OR39|57=UNXQW|34=802|52=20051222-14:31:06|115=CAPREGION|116=DOT|128=UNXQW|1=253501|6=35.04000|11=0F8C39D001000CE|14=900|17=190668949|30=N|31=35.04000|32=900|37=14802376|38=900|39=2|40=1|54=2|55=LIZ|58=501 OPN9/0000 093057@|60=20051222-14:30:57|63=0|107=~TG-1494|20=0|10=130|
8=FIX.4.0|9=0301|35=8|49=NYFIXHUB|56=UNXQW|50=OR27|57=UNXQW|34=803|52=20051222-14:31:06|115=CAPREGION|116=DOT|128=UNXQW|1=237008|6=14.63000|11=0F8BD3100100003|14=2363|17=190668951|30=N|31=14.63000|32=2363|37=14798663|38=2363|39=2|40=1|54=2|55=EVN|58=1726 OPN23/0000 093058@|60=20051222-14:30:58|63=0|107=~TF-4481|20=0|10=082|
8=FIX.4.0|9=0296|35=8|49=NYFIXHUB|56=UNXQW|50=OR34|57=UNXQW|34=804|52=20051222-14:31:07|115=CAPREGION|116=DOT|128=UNXQW|1=242906|6=18.43000|11=0F8C12200100099|14=300|17=190668955|30=N|31=18.43000|32=300|37=14822214|38=300|39=2|40=1|54=1|55=NOK|58=210 OPN3/0000 093059@|60=20051222-14:30:59|63=0|107=~TG-5856|20=0|10=059|
8=FIX.4.0|9=0300|35=8|49=NYFIXHUB|56=UNXQW|50=OR34|57=UNXQW|34=805|52=20051222-14:31:07|115=CAPREGION|116=DOT|128=UNXQW|1=242906|6=18.43000|11=0F8C11A00100095|14=3300|17=190668957|30=N|31=18.43000|32=3300|37=14822213|38=3300|39=2|40=1|54=1|55=NOK|58=210 OPN33/0000 093059@|60=20051222-14:30:59|63=0|107=~TG-5855|20=0|10=004|
8=FIX.4.0|9=0295|35=8|49=NYFIXHUB|56=UNXQW|50=OR3|57=UNXQW|34=806|52=20051222-14:31:08|115=CAPREGION|116=DOT|128=UNXQW|1=240001|6=77.00000|11=0F8BE5B00100038|14=300|17=190668961|30=N|31=77.00000|32=300|37=14772884|38=300|39=2|40=1|54=1|55=UPS|58=210 OPN3/0000 093101@|60=20051222-14:31:01|63=0|107=~TG-1988|20=0|10=028|
8=FIX.4.0|9=0268|35=8|49=NYFIXHUB|56=UNXQW|50=OR36|57=UNXQW|34=807|52=20051222-14:31:08|115=CAPREGION|116=DOT|128=UNXQW|1=240505|6=13.72000|11=0F8BDEC00300091|14=50|17=190668965|30=N|31=13.72000|32=50|37=14825596|38=50|39=2|40=1|54=2|55=EMC|60=20051222-14:31:00|63=0|107=~TG-3099|20=0|10=193|
8=FIX.4.0|9=0295|35=8|49=NYFIXHUB|56=UNXQW|50=OR3|57=UNXQW|34=808|52=20051222-14:31:08|115=CAPREGION|116=DOT|128=UNXQW|1=242906|6=77.00000|11=0F8C09A00300141|14=100|17=190668962|30=N|31=77.00000|32=100|37=14772930|38=100|39=2|40=1|54=1|55=UPS|58=210 OPN1/0000 093101@|60=20051222-14:31:01|63=0|107=~TG-9705|20=0|10=006|
8=FIX.4.0|9=0267|35=8|49=NYFIXHUB|56=UNXQW|50=OR3|57=UNXQW|34=809|52=20051222-14:31:09|115=CAPREGION|116=DOT|128=UNXQW|1=242906|6=37.68000|11=0F8C1130030015A|14=46|17=190668966|30=N|31=37.68000|32=46|37=14772942|38=46|39=2|40=1|54=2|55=HON|60=20051222-14:31:00|63=0|107=~TG-9714|20=0|10=157|
8=FIX.4.0|9=0299|35=8|49=NYFIXHUB|56=UNXQW|50=OR3|57=UNXQW|34=810|52=20051222-14:31:09|115=CAPREGION|116=DOT|128=UNXQW|1=237002|6=77.00000|11=0F8BD2F00100002|14=2340|17=190668967|30=N|31=77.00000|32=2340|37=14772749|38=2340|39=2|40=1|54=1|55=UPS|58=210 OPN23/0000 093101@|60=20051222-14:31:01|63=0|107=~TG-1924|20=0|10=234|
8=FIX.4.0|9=0297|35=8|49=NYFIXHUB|56=UNXQW|50=OR12|57=UNXQW|34=811|52=20051222-14:31:10|115=CAPREGION|116=DOT|128=UNXQW|1=240001|6=56.64000|11=0F8BE1500100026|14=200|17=190668971|30=N|31=56.64000|32=200|37=14776403|38=200|39=2|40=1|54=1|55=ACS|58=1418 OPN2/0000 093103@|60=20051222-14:31:03|63=0|107=~TG-9001|20=0|10=063|
8=FIX.4.0|9=0268|35=8|49=NYFIXHUB|56=UNXQW|50=OR33|57=UNXQW|34=812|52=20051222-14:31:10|115=CAPREGION|116=DOT|128=UNXQW|1=222501|6=44.15000|11=0F8C19E0030016C|14=80|17=190668972|30=N|31=44.15000|32=80|37=14826650|38=80|39=2|40=1|54=2|55=HSP|60=20051222-14:31:00|63=0|107=~TH-0014|20=0|10=171|
8=FIX.4.0|9=0315|35=8|49=NYFIXHUB|56=UNXQW|50=OR33|57=UNXQW2|34=813|52=20051222-14:31:11|115=CAPREGION|116=DOT2|128=UNXQW2|1=306047|6=47.30000|11=0F8C20700100006|14=4550|17=190668976|30=N|31=47.30000|32=4550|37=14826521|38=4550|39=2|40=2|44=48.00000|54=1|55=FNM|58=501 LOC45/0000 093110@|60=20051222-14:31:10|63=0|107=~TG-3661|20=0|10=161|
8=FIX.4.0|9=0296|35=8|49=NYFIXHUB|56=UNXQW|50=OR41|57=UNXQW|34=814|52=20051222-14:31:11|115=CAPREGION|116=DOT|128=UNXQW|1=242906|6=53.26000|11=0F8C0B400100079|14=425|17=190668977|30=N|31=53.26000|32=425|37=14823145|38=425|39=2|40=1|54=1|55=PX|58=1418 OPN4/0000 093106@|60=20051222-14:31:06|63=0|107=~TG-7826|20=0|10=081|
8=FIX.4.0|9=0315|35=8|49=NYFIXHUB|56=UNXQW|50=OR28|57=UNXQW2|34=816|52=20051222-14:31:12|115=CAPREGION|116=DOT2|128=UNXQW2|1=306047|6=2.76000|11=0F8C33500100007|14=14100|17=190668980|30=N|31=2.76000|32=14100|37=14828548|38=14100|39=2|40=2|44=2.75000|54=2|55=LU|58=210 LOC141/0000 093111@|60=20051222-14:31:11|63=0|107=~TG-5270|20=0|10=137|
8=FIX.4.0|9=0267|35=8|49=NYFIXHUB|56=UNXQW|50=OR47|57=UNXQW|34=817|52=20051222-14:31:14|115=CAPREGION|116=DOT|128=UNXQW|1=242906|6=41.30000|11=0F8C16B00300160|14=50|17=190668985|30=N|31=41.30000|32=50|37=14830046|38=50|39=2|40=1|54=2|55=IR|60=20051222-14:31:00|63=0|107=~TG-4973|20=0|10=084|
8=FIX.4.0|9=0268|35=8|49=NYFIXHUB|56=UNXQW|50=OR33|57=UNXQW|34=818|52=20051222-14:31:15|115=CAPREGION|116=DOT|128=UNXQW|1=240001|6=47.30000|11=0F8BECC003000F5|14=50|17=190668986|30=N|31=47.30000|32=50|37=14826610|38=50|39=2|40=1|54=2|55=FNM|60=20051222-14:31:00|63=0|107=~TG-3692|20=0|10=201|
8=FIX.4.0|9=0267|35=8|49=NYFIXHUB|56=UNXQW|50=OR14|57=UNXQW|34=819|52=20051222-14:31:15|115=CAPREGION|116=DOT|128=UNXQW|1=222501|6=28.00000|11=0F8C1A10030016E|14=24|17=190668987|30=N|31=28.00000|32=24|37=14833170|38=24|39=2|40=1|54=2|55=NP|60=20051222-14:31:00|63=0|107=~TH-0807|20=0|10=091|
8=FIX.4.0|9=0267|35=8|49=NYFIXHUB|56=UNXQW|50=OR46|57=UNXQW|34=820|52=20051222-14:31:16|115=CAPREGION|116=DOT|128=UNXQW|1=242906|6=67.00000|11=0F8C0EB0030015B|14=10|17=190668989|30=N|31=67.00000|32=10|37=14826183|38=10|39=2|40=1|54=2|55=WY|60=20051222-14:31:00|63=0|107=~TG-9430|20=0|10=133|
8=FIX.4.0|9=0296|35=8|49=NYFIXHUB|56=UNXQW|50=OR6|57=UNXQW|34=821|52=20051222-14:31:16|115=CAPREGION|116=DOT|128=UNXQW|1=242906|6=23.36000|11=0F8BFDB0030010A|14=117|17=190668990|30=N|31=23.36000|32=117|37=14820222|38=117|39=2|40=1|54=2|55=ABD|58=1418 OPN1/0000 093108@|60=20051222-14:31:08|63=0|107=~TG-6547|20=0|10=088|
8=FIX.4.0|9=0296|35=8|49=NYFIXHUB|56=UNXQW|50=OR47|57=UNXQW|34=822|52=20051222-14:31:17|115=CAPREGION|116=DOT|128=UNXQW|1=240501|6=52.20000|11=0F8BE01003000B2|14=100|17=190668994|30=N|31=52.20000|32=100|37=14830032|38=100|39=2|40=1|54=2|55=MHP|58=501 OPN1/0000 093111@|60=20051222-14:31:11|63=0|107=~TG-4967|20=0|10=032|
8=FIX.4.0|9=0268|35=8|49=NYFIXHUB|56=UNXQW|50=OR24|57=UNXQW|34=823|52=20051222-14:31:17|115=CAPREGION|116=DOT|128=UNXQW|1=242906|6=48.11000|11=0F8C07B0030012E|14=35|17=190668993|30=N|31=48.11000|32=35|37=14780368|38=35|39=2|40=1|54=1|55=YUM|60=20051222-14:31:00|63=0|107=~TG-2887|20=0|10=225|
8=FIX.4.0|9=0296|35=8|49=NYFIXHUB|56=UNXQW|50=OR39|57=UNXQW|34=824|52=20051222-14:31:17|115=CAPREGION|116=DOT|128=UNXQW|1=242906|6=52.02000|11=0F8C06000300136|14=155|17=190668996|30=N|31=52.02000|32=155|37=14802400|38=155|39=2|40=1|54=1|55=NVS|58=210 OPN1/0000 093108@|60=20051222-14:31:08|63=0|107=~TG-9802|20=0|10=070|
8=FIX.4.0|9=0296|35=8|49=NYFIXHUB|56=UNXQW|50=OR33|57=UNXQW|34=825|52=20051222-14:31:17|115=CAPREGION|116=DOT|128=UNXQW|1=242906|6=47.30000|11=0F8C12A0030015E|14=150|17=190668998|30=N|31=47.30000|32=150|37=14826647|38=150|39=2|40=1|54=2|55=FNM|58=501 OPN1/0000 093110@|60=20051222-14:31:10|63=0|107=~TH-0011|20=0|10=064|
8=FIX.4.0|9=0268|35=8|49=NYFIXHUB|56=UNXQW|50=OR17|57=UNXQW|34=826|52=20051222-14:31:17|115=CAPREGION|116=DOT|128=UNXQW|1=240503|6=37.00000|11=0F8C2CA00300178|14=15|17=190669002|30=N|31=37.00000|32=15|37=14784402|38=15|39=2|40=1|54=2|55=PCL|60=20051222-14:31:00|63=0|107=~TG-5188|20=0|10=157|
8=FIX.4.0|9=0296|35=8|49=NYFIXHUB|56=UNXQW|50=OR33|57=UNXQW|34=827|52=20051222-14:31:17|115=CAPREGION|116=DOT|128=UNXQW|1=240001|6=47.30000|11=0F8BEE2003000F7|14=100|17=190668999|30=N|31=47.30000|32=100|37=14826611|38=100|39=2|40=1|54=2|55=FNM|58=501 OPN1/0000 093110@|60=20051222-14:31:10|63=0|107=~TG-3693|20=0|10=070|
8=FIX.4.0|9=0296|35=8|49=NYFIXHUB|56=UNXQW|50=OR33|57=UNXQW|34=828|52=20051222-14:31:17|115=CAPREGION|116=DOT|128=UNXQW|1=240001|6=47.30000|11=0F8BEFD00100051|14=200|17=190669000|30=N|31=47.30000|32=200|37=14826570|38=200|39=2|40=1|54=2|55=FNM|58=501 OPN2/0000 093110@|60=20051222-14:31:10|63=0|107=~TG-3685|20=0|10=048|
8=FIX.4.0|9=0296|35=8|49=NYFIXHUB|56=UNXQW|50=OR33|57=UNXQW|34=829|52=20051222-14:31:17|115=CAPREGION|116=DOT|128=UNXQW|1=242906|6=47.30000|11=0F8C14500300167|14=125|17=190669001|30=N|31=47.30000|32=125|37=14826649|38=125|39=2|40=1|54=2|55=FNM|58=501 OPN1/0000 093110@|60=20051222-14:31:10|63=0|107=~TH-0013|20=0|10=031|
8=FIX.4.0|9=0297|35=8|49=NYFIXHUB|56=UNXQW|50=OR24|57=UNXQW|34=830|52=20051222-14:31:19|115=CAPREGION|116=DOT|128=UNXQW|1=222501|6=48.11000|11=0F8BDA600300077|14=190|17=190669006|30=N|31=48.11000|32=190|37=14780344|38=190|39=2|40=1|54=2|55=YUM|58=1418 OPN1/0000 093111@|60=20051222-14:31:11|63=0|107=~TG-2876|20=0|10=151|
8=FIX.4.0|9=0297|35=8|49=NYFIXHUB|56=UNXQW|50=OR24|57=UNXQW|34=831|52=20051222-14:31:19|115=CAPREGION|116=DOT|128=UNXQW|1=242906|6=48.11000|11=0F8C04D00300134|14=100|17=190669007|30=N|31=48.11000|32=100|37=14780369|38=100|39=2|40=1|54=1|55=YUM|58=1418 OPN1/0000 093111@|60=20051222-14:31:11|63=0|107=~TG-2888|20=0|10=122|
8=FIX.4.0|9=0297|35=8|49=NYFIXHUB|56=UNXQW|50=OR24|57=UNXQW|34=832|52=20051222-14:31:19|115=CAPREGION|116=DOT|128=UNXQW|1=242906|6=48.11000|11=0F8C159001000A2|14=400|17=190669009|30=N|31=48.11000|32=400|37=14780347|38=400|39=2|40=1|54=1|55=YUM|58=1418 OPN4/0000 093111@|60=20051222-14:31:11|63=0|107=~TG-2879|20=0|10=133|
8=FIX.4.0|9=0297|35=8|49=NYFIXHUB|56=UNXQW|50=OR27|57=UNXQW|34=833|52=20051222-14:31:19|115=CAPREGION|116=DOT|128=UNXQW|1=242906|6=29.06000|11=0F8C12E0030016A|14=158|17=190669011|30=N|31=29.06000|32=158|37=14798795|38=158|39=2|40=1|54=2|55=AVP|58=1418 TOD1/0000 093118@|60=20051222-14:31:18|63=0|107=~TG-7144|20=0|10=174|
8=FIX.4.0|9=0268|35=8|49=NYFIXHUB|56=UNXQW|50=OR11|57=UNXQW|34=834|52=20051222-14:31:20|115=CAPREGION|116=DOT|128=UNXQW|1=240503|6=70.02000|11=0F8C2C400300175|14=10|17=190669012|30=N|31=70.02000|32=10|37=14823688|38=10|39=2|40=1|54=2|55=JOE|60=20051222-14:31:00|63=0|107=~TG-9135|20=0|10=117|
8=FIX.4.0|9=0267|35=8|49=NYFIXHUB|56=UNXQW|50=OR9|57=UNXQW|34=835|52=20051222-14:31:29|115=CAPREGION|116=DOT|128=UNXQW|1=222501|6=43.00000|11=0F8C2D500300174|14=20|17=190669018|30=N|31=43.00000|32=20|37=14777859|38=20|39=2|40=1|54=1|55=CHS|60=20051222-14:31:00|63=0|107=~TG-4576|20=0|10=100|
8=FIX.4.0|9=0264|35=8|49=NYFIXHUB|56=UNXQW|50=OR7|57=UNXQW|34=836|52=20051222-14:31:29|115=CAPREGION|116=DOT|128=UNXQW|1=242906|6=79.58000|11=0F8BFB4003000FB|14=5|17=190669020|30=N|31=79.58000|32=5|37=14769352|38=5|39=2|40=1|54=1|55=BOL|60=20051222-14:31:00|63=0|107=~TG-5057|20=0|10=036|
8=FIX.4.0|9=0296|35=8|49=NYFIXHUB|56=UNXQW|50=OR19|57=UNXQW|34=837|52=20051222-14:31:30|115=CAPREGION|116=DOT|128=UNXQW|1=240501|6=60.04000|11=0F8BDC00010001B|14=250|17=190669032|30=N|31=60.04000|32=250|37=14827094|38=250|39=2|40=1|54=2|55=BDX|58=501 OPN2/0000 093123@|60=20051222-14:31:23|63=0|107=~TG-4195|20=0|10=057|
8=FIX.4.0|9=0268|35=8|49=NYFIXHUB|56=UNXQW|50=OR13|57=UNXQW|34=838|52=20051222-14:31:30|115=CAPREGION|116=DOT|128=UNXQW|1=242906|6=85.98000|11=0F8BFC1003000FF|14=50|17=190669026|30=N|31=85.98000|32=50|37=14776961|38=50|39=2|40=1|54=2|55=HIG|60=20051222-14:31:00|63=0|107=~TG-8923|20=0|10=238|
8=FIX.4.0|9=0268|35=8|49=NYFIXHUB|56=UNXQW|50=OR13|57=UNXQW|34=839|52=20051222-14:31:30|115=CAPREGION|116=DOT|128=UNXQW|1=242906|6=85.98000|11=0F8C02500300117|14=10|17=190669027|30=N|31=85.98000|32=10|37=14776965|38=10|39=2|40=1|54=2|55=HIG|60=20051222-14:31:00|63=0|107=~TG-8925|20=0|10=165|
8=FIX.4.0|9=0268|35=8|49=NYFIXHUB|56=UNXQW|50=OR13|57=UNXQW|34=840|52=20051222-14:31:30|115=CAPREGION|116=DOT|128=UNXQW|1=242906|6=85.98000|11=0F8C0A00030013F|14=50|17=190669029|30=N|31=85.98000|32=50|37=14776972|38=50|39=2|40=1|54=1|55=HIG|60=20051222-14:31:00|63=0|107=~TG-8928|20=0|10=198|
8=FIX.4.0|9=0296|35=8|49=NYFIXHUB|56=UNXQW|50=OR9|57=UNXQW|34=841|52=20051222-14:31:30|115=CAPREGION|116=DOT|128=UNXQW|1=222501|6=43.00000|11=0F8BE630010003A|14=230|17=190669033|30=N|31=43.00000|32=230|37=14777838|38=230|39=2|40=1|54=1|55=CHS|58=1726 OPN2/0000 093122@|60=20051222-14:31:22|63=0|107=~TG-4568|20=0|10=053|
8=FIX.4.0|9=0296|35=8|49=NYFIXHUB|56=UNXQW|50=OR13|57=UNXQW|34=842|52=20051222-14:31:34|115=CAPREGION|116=DOT|128=UNXQW|1=242906|6=85.98000|11=0F8C03B0030012F|14=100|17=190669036|30=N|31=85.98000|32=100|37=14776971|38=100|39=2|40=1|54=2|55=HIG|58=210 OPN1/0000 093124@|60=20051222-14:31:24|63=0|107=~TG-8927|20=0|10=085|
8=FIX.4.0|9=0297|35=8|49=NYFIXHUB|56=UNXQW|50=OR42|57=UNXQW|34=850|52=20051222-14:31:37|115=CAPREGION|116=DOT|128=UNXQW|1=242906|6=54.75000|11=0F8BFF700300119|14=150|17=190669046|30=N|31=54.75000|32=150|37=14804433|38=150|39=2|40=1|54=1|55=TGT|58=1418 OPN1/0000 093133@|60=20051222-14:31:33|63=0|107=~TG-8412|20=0|10=158|
8=FIX.4.0|9=0297|35=8|49=NYFIXHUB|56=UNXQW|50=OR19|57=UNXQW|34=851|52=20051222-14:31:38|115=CAPREGION|116=DOT|128=UNXQW|1=240501|6=32.15000|11=0F8C406001001BF|14=296|17=190669048|30=N|31=32.15000|32=296|37=14827249|38=296|39=2|40=1|54=2|55=TXN|58=1418 TOD2/0000 093137@|60=20051222-14:31:37|63=0|107=~TG-9262|20=0|10=185|
8=FIX.4.0|9=0296|35=8|49=NYFIXHUB|56=UNXQW|50=OR20|57=UNXQW|34=852|52=20051222-14:31:39|115=CAPREGION|116=DOT|128=UNXQW|1=242906|6=57.73000|11=0F8C0540030013B|14=150|17=190669050|30=N|31=57.73000|32=150|37=14783486|38=150|39=2|40=1|54=2|55=MDT|58=210 OPN1/0000 093129@|60=20051222-14:31:29|63=0|107=~TG-9900|20=0|10=083|
8=FIX.4.0|9=0296|35=8|49=NYFIXHUB|56=UNXQW|50=OR32|57=UNXQW|34=853|52=20051222-14:31:39|115=CAPREGION|116=DOT|128=UNXQW|1=222501|6=66.26000|11=0F8C404001001BE|14=300|17=190669056|30=N|31=66.26000|32=300|37=14821863|38=300|39=2|40=1|54=2|55=AIG|58=501 TOD3/0000 093138@|60=20051222-14:31:38|63=0|107=~TH-0130|20=0|10=042|
8=FIX.4.0|9=0296|35=8|49=NYFIXHUB|56=UNXQW|50=OR20|57=UNXQW|34=854|52=20051222-14:31:39|115=CAPREGION|116=DOT|128=UNXQW|1=240001|6=57.73000|11=0F8BDE80030009F|14=130|17=190669052|30=N|31=57.73000|32=130|37=14783443|38=130|39=2|40=1|54=1|55=MDT|58=210 OPN1/0000 093129@|60=20051222-14:31:29|63=0|107=~TG-3983|20=0|10=110|
8=FIX.4.0|9=0296|35=8|49=NYFIXHUB|56=UNXQW|50=OR20|57=UNXQW|34=855|52=20051222-14:31:39|115=CAPREGION|116=DOT|128=UNXQW|1=242906|6=57.73000|11=0F8BFFB00300121|14=125|17=190669054|30=N|31=57.73000|32=125|37=14783479|38=125|39=2|40=1|54=1|55=MDT|58=210 OPN1/0000 093129@|60=20051222-14:31:29|63=0|107=~TG-3997|20=0|10=141|
8=FIX.4.0|9=0296|35=8|49=NYFIXHUB|56=UNXQW|50=OR37|57=UNXQW|34=856|52=20051222-14:31:40|115=CAPREGION|116=DOT|128=UNXQW|1=239001|6=33.33000|11=0F8C41A001001C0|14=400|17=190669057|30=N|31=33.33000|32=400|37=14794460|38=400|39=2|40=1|54=1|55=CHK|58=210 TOD4/0000 093139@|60=20051222-14:31:39|63=0|107=~TG-7931|20=0|10=048|
8=FIX.4.0|9=0296|35=8|49=NYFIXHUB|56=UNXQW|50=OR13|57=UNXQW|34=857|52=20051222-14:31:40|115=CAPREGION|116=DOT|128=UNXQW|1=222501|6=29.00000|11=0F8BE91003000ED|14=120|17=190669060|30=N|31=29.00000|32=120|37=14776948|38=120|39=2|40=1|54=2|55=AA|58=1418 OPN1/0000 093132@|60=20051222-14:31:32|63=0|107=~TG-8922|20=0|10=037|
8=FIX.4.0|9=0300|35=8|49=NYFIXHUB|56=UNXQW|50=OR13|57=UNXQW|34=858|52=20051222-14:31:40|115=CAPREGION|116=DOT|128=UNXQW|1=242906|6=29.00000|11=0F8C0FF0010008F|14=1200|17=190669062|30=N|31=29.00000|32=1200|37=14776918|38=1200|39=2|40=1|54=2|55=AA|58=1418 OPN12/0000 093132@|60=20051222-14:31:32|63=0|107=~TG-8914|20=0|10=230|
8=FIX.4.0|9=0300|35=8|49=NYFIXHUB|56=UNXQW|50=OR13|57=UNXQW|34=859|52=20051222-14:31:40|115=CAPREGION|116=DOT|128=UNXQW|1=283501|6=29.00000|11=0F8BF9300100055|14=1000|17=190669065|30=N|31=29.00000|32=1000|37=14776903|38=1000|39=2|40=1|54=2|55=AA|58=1418 OPN10/0000 093132@|60=20051222-14:31:32|63=0|107=~TG-8907|20=0|10=187|
8=FIX.4.0|9=0296|35=8|49=NYFIXHUB|56=UNXQW|50=OR43|57=UNXQW|34=860|52=20051222-14:31:42|115=CAPREGION|116=DOT|128=UNXQW|1=242906|6=94.00000|11=0F8C0580030013C|14=100|17=190669071|30=N|31=94.00000|32=100|37=14822675|38=100|39=2|40=1|54=2|55=DNA|58=501 OPN1/0000 093137@|60=20051222-14:31:37|63=0|107=~TG-4383|20=0|10=033|
8=FIX.4.0|9=0296|35=8|49=NYFIXHUB|56=UNXQW|50=OR32|57=UNXQW|34=867|52=20051222-14:31:43|115=CAPREGION|116=DOT|128=UNXQW|1=232901|6=45.53000|11=0F8BD2C0030006B|14=100|17=190669075|30=N|31=45.53000|32=100|37=14821749|38=100|39=2|40=1|54=2|55=WAG|58=501 OPN1/0000 093138@|60=20051222-14:31:38|63=0|107=~TG-5380|20=0|10=086|
8=FIX.4.0|9=0297|35=8|49=NYFIXHUB|56=UNXQW|50=OR10|57=UNXQW|34=870|52=20051222-14:31:46|115=CAPREGION|116=DOT|128=UNXQW|1=242906|6=45.93000|11=0F8C0F500100088|14=500|17=190669093|30=N|31=45.93000|32=500|37=14832142|38=500|39=2|40=1|54=2|55=LXK|58=1034 OPN5/0000 093139@|60=20051222-14:31:39|63=0|107=~TG-8568|20=0|10=155|
8=FIX.4.0|9=0268|35=8|49=NYFIXHUB|56=UNXQW|50=OR39|57=UNXQW|34=871|52=20051222-14:31:48|115=CAPREGION|116=DOT|128=UNXQW|1=240501|6=96.80000|11=0F8BEE6003000F3|14=21|17=190669097|30=N|31=96.80000|32=21|37=14802394|38=21|39=2|40=1|54=2|55=APC|60=20051222-14:31:00|63=0|107=~TG-1498|20=0|10=202|
8=FIX.4.0|9=0303|35=8|49=NYFIXHUB|56=UNXQW|50=OR31|57=UNXQW2|34=872|52=20051222-14:31:48|115=CAPREGION|116=DOT2|128=UNXQW2|1=100000|6=28.95000|11=0F8C420001001C2|14=1026|17=190669098|30=N|31=28.95000|32=1026|37=14785424|38=1026|39=2|40=1|54=1|55=TYC|58=210 TOD10/0000 093147@|60=20051222-14:31:47|63=0|107=~TH-2210|20=0|10=146|
8=FIX.4.0|9=0267|35=8|49=NYFIXHUB|56=UNXQW|50=OR6|57=UNXQW|34=873|52=20051222-14:31:50|115=CAPREGION|116=DOT|128=UNXQW|1=242906|6=30.64000|11=0F8C0BB00300144|14=50|17=190669101|30=N|31=30.64000|32=50|37=14820235|38=50|39=2|40=1|54=1|55=WMI|60=20051222-14:31:00|63=0|107=~TG-6552|20=0|10=112|
8=FIX.4.0|9=0299|35=8|49=NYFIXHUB|56=UNXQW|50=OR39|57=UNXQW2|34=875|52=20051222-14:31:52|115=CAPREGION|116=DOT2|128=UNXQW2|1=100000|6=58.40000|11=0F8C428001001C6|14=508|17=190669106|30=N|31=58.40000|32=508|37=14802481|38=508|39=2|40=1|54=1|55=PG|58=1418 TOD5/0000 093151@|60=20051222-14:31:51|63=0|107=~TG-9849|20=0|10=211|
8=FIX.4.0|9=0298|35=8|49=NYFIXHUB|56=UNXQW|50=OR3|57=UNXQW2|34=876|52=20051222-14:31:52|115=CAPREGION|116=DOT2|128=UNXQW2|1=100000|6=44.23190|11=0F8C42E001001C9|14=672|17=190669107|30=N|31=44.24000|32=400|37=14772966|38=672|39=2|40=1|54=1|55=BUD|58=501 TOD4/0000 093151@|60=20051222-14:31:51|63=0|107=~TG-9722|20=0|10=184|
8=FIX.4.0|9=0295|35=8|49=NYFIXHUB|56=UNXQW|50=OR6|57=UNXQW|34=877|52=20051222-14:31:53|115=CAPREGION|116=DOT|128=UNXQW|1=242906|6=30.64000|11=0F8BFD10010005A|14=280|17=190669108|30=N|31=30.64000|32=280|37=14820180|38=280|39=2|40=1|54=2|55=WMI|58=210 OPN2/0000 093143@|60=20051222-14:31:43|63=0|107=~TG-6537|20=0|10=057|
8=FIX.4.0|9=0295|35=8|49=NYFIXHUB|56=UNXQW|50=OR6|57=UNXQW|34=878|52=20051222-14:31:53|115=CAPREGION|116=DOT|128=UNXQW|1=242906|6=30.64000|11=0F8BFBF00100058|14=600|17=190669109|30=N|31=30.64000|32=600|37=14820177|38=600|39=2|40=1|54=1|55=WMI|58=210 OPN6/0000 093143@|60=20051222-14:31:43|63=0|107=~TG-6536|20=0|10=065|
8=FIX.4.0|9=0299|35=8|49=NYFIXHUB|56=UNXQW|50=OR26|57=UNXQW2|34=880|52=20051222-14:31:54|115=CAPREGION|116=DOT2|128=UNXQW2|1=100000|6=82.90000|11=0F8C424001001C4|14=358|17=190669113|30=N|31=82.90000|32=358|37=14833596|38=358|39=2|40=1|54=1|55=IBM|58=501 TOD3/0000 093153@|60=20051222-14:31:53|63=0|107=~TH-2800|20=0|10=213|
8=FIX.4.0|9=0268|35=8|49=NYFIXHUB|56=UNXQW|50=OR10|57=UNXQW|34=883|52=20051222-14:31:57|115=CAPREGION|116=DOT|128=UNXQW|1=242906|6=63.73000|11=0F8C09E0030013D|14=50|17=190669121|30=N|31=63.73000|32=50|37=14832184|38=50|39=2|40=1|54=1|55=WFC|60=20051222-14:31:00|63=0|107=~TG-8582|20=0|10=185|
8=FIX.4.0|9=0268|35=8|49=NYFIXHUB|56=UNXQW|50=OR10|57=UNXQW|34=884|52=20051222-14:31:57|115=CAPREGION|116=DOT|128=UNXQW|1=242906|6=63.73000|11=0F8C0BF00300148|14=25|17=190669123|30=N|31=63.73000|32=25|37=14832185|38=25|39=2|40=1|54=1|55=WFC|60=20051222-14:31:00|63=0|107=~TG-8583|20=0|10=195|
8=FIX.4.0|9=0265|35=8|49=NYFIXHUB|56=UNXQW|50=OR23|57=UNXQW|34=885|52=20051222-14:31:57|115=CAPREGION|116=DOT|128=UNXQW|1=242906|6=34.57000|11=0F8BFB600300101|14=5|17=190669124|30=N|31=34.57000|32=5|37=14829170|38=5|39=2|40=1|54=1|55=GNW|60=20051222-14:31:00|63=0|107=~TG-8640|20=0|10=048|
8=FIX.4.0|9=0268|35=8|49=NYFIXHUB|56=UNXQW|50=OR23|57=UNXQW|34=886|52=20051222-14:31:57|115=CAPREGION|116=DOT|128=UNXQW|1=242906|6=34.57000|11=0F8C03700300125|14=50|17=190669125|30=N|31=34.57000|32=50|37=14829175|38=50|39=2|40=1|54=2|55=GNW|60=20051222-14:31:00|63=0|107=~TG-8645|20=0|10=179|
8=FIX.4.0|9=0268|35=8|49=NYFIXHUB|56=UNXQW|50=OR23|57=UNXQW|34=887|52=20051222-14:31:57|115=CAPREGION|116=DOT|128=UNXQW|1=242906|6=34.57000|11=0F8BFE900300105|14=85|17=190669126|30=N|31=34.57000|32=85|37=14829171|38=85|39=2|40=1|54=1|55=GNW|60=20051222-14:31:00|63=0|107=~TG-8641|20=0|10=235|
8=FIX.4.0|9=0268|35=8|49=NYFIXHUB|56=UNXQW|50=OR23|57=UNXQW|34=888|52=20051222-14:31:57|115=CAPREGION|116=DOT|128=UNXQW|1=242906|6=34.57000|11=0F8C0C100300149|14=75|17=190669127|30=N|31=34.57000|32=75|37=14829184|38=75|39=2|40=1|54=1|55=GNW|60=20051222-14:31:00|63=0|107=~TG-8648|20=0|10=222|
8=FIX.4.0|9=0268|35=8|49=NYFIXHUB|56=UNXQW|50=OR23|57=UNXQW|34=889|52=20051222-14:31:57|115=CAPREGION|116=DOT|128=UNXQW|1=242906|6=34.57000|11=0F8C00D00300109|14=25|17=190669128|30=N|31=34.57000|32=25|37=14829173|38=25|39=2|40=1|54=1|55=GNW|60=20051222-14:31:00|63=0|107=~TG-8643|20=0|10=198|
8=FIX.4.0|9=0295|35=8|49=NYFIXHUB|56=UNXQW|50=OR23|57=UNXQW|34=890|52=20051222-14:31:58|115=CAPREGION|116=DOT|128=UNXQW|1=242906|6=34.57000|11=0F8C06200300137|14=180|17=190669131|30=N|31=34.57000|32=180|37=14829183|38=180|39=2|40=1|54=1|55=GNW|58=20 OPN1/0000 093153@|60=20051222-14:31:53|63=0|107=~TG-8647|20=0|10=032|
8=FIX.4.0|9=0300|35=8|49=NYFIXHUB|56=UNXQW|50=OR10|57=UNXQW|34=891|52=20051222-14:31:58|115=CAPREGION|116=DOT|128=UNXQW|1=242906|6=63.73000|11=0F8BFD30010005B|14=2000|17=190669134|30=N|31=63.73000|32=2000|37=14832139|38=2000|39=2|40=1|54=1|55=WFC|58=210 OPN20/0000 093151@|60=20051222-14:31:51|63=0|107=~TG-8567|20=0|10=010|
8=FIX.4.0|9=0295|35=8|49=NYFIXHUB|56=UNXQW|50=OR23|57=UNXQW|34=892|52=20051222-14:31:58|115=CAPREGION|116=DOT|128=UNXQW|1=242906|6=34.57000|11=0F8BFC700300106|14=155|17=190669133|30=N|31=34.57000|32=155|37=14829172|38=155|39=2|40=1|54=1|55=GNW|58=20 OPN1/0000 093153@|60=20051222-14:31:53|63=0|107=~TG-8642|20=0|10=070|
8=FIX.4.0|9=0299|35=8|49=NYFIXHUB|56=UNXQW|50=OR39|57=UNXQW2|34=893|52=20051222-14:31:59|115=CAPREGION|116=DOT2|128=UNXQW2|1=100000|6=54.66000|11=0F8C42A001001C7|14=544|17=190669138|30=N|31=54.66000|32=544|37=14802482|38=544|39=2|40=1|54=1|55=ALL|58=501 TOD5/0000 093158@|60=20051222-14:31:58|63=0|107=~TG-9850|20=0|10=002|
8=FIX.4.0|9=0302|35=8|49=NYFIXHUB|56=UNXQW|50=OR34|57=UNXQW2|34=894|52=20051222-14:32:00|115=CAPREGION|116=DOT2|128=UNXQW2|1=100000|6=5.93190|11=0F8C422001001C3|14=5034|17=190669139|30=N|31=5.94000|32=3500|37=14838002|38=5034|39=2|40=1|54=1|55=UIS|58=1418 TOD35/0000 093159@|60=20051222-14:31:59|63=0|107=~TH-2062|20=0|10=115|
8=FIX.4.0|9=0299|35=8|49=NYFIXHUB|56=UNXQW|50=OR39|57=UNXQW2|34=895|52=20051222-14:32:01|115=CAPREGION|116=DOT2|128=UNXQW2|1=100000|6=49.00000|11=0F8C42C001001C8|14=607|17=190669141|30=N|31=49.00000|32=607|37=14802483|38=607|39=2|40=1|54=1|55=CSC|58=210 TOD6/0000 093200@|60=20051222-14:32:00|63=0|107=~TG-9851|20=0|10=205|
8=FIX.4.0|9=0296|35=8|49=NYFIXHUB|56=UNXQW|50=OR36|57=UNXQW|34=896|52=20051222-14:32:02|115=CAPREGION|116=DOT|128=UNXQW|1=242906|6=16.62000|11=0F8C08500100074|14=200|17=190669146|30=N|31=16.62000|32=200|37=14825595|38=200|39=2|40=1|54=2|55=CD|58=1726 OPN2/0000 093156@|60=20051222-14:31:56|63=0|107=~TG-3098|20=0|10=028|
8=FIX.4.0|9=0300|35=8|49=NYFIXHUB|56=UNXQW|50=OR19|57=UNXQW2|34=897|52=20051222-14:32:06|115=CAPREGION|116=DOT2|128=UNXQW2|1=100000|6=32.22000|11=0F8C426001001C5|14=924|17=190669159|30=N|31=32.22000|32=924|37=14827254|38=924|39=2|40=1|54=1|55=TXN|58=1418 TOD9/0000 093205@|60=20051222-14:32:05|63=0|107=~TG-9265|20=0|10=035|
8=FIX.4.0|9=0296|35=8|49=NYFIXHUB|56=UNXQW|50=OR30|57=UNXQW|34=898|52=20051222-14:32:08|115=CAPREGION|116=DOT|128=UNXQW|1=222501|6=44.62000|11=0F8BE65003000C8|14=180|17=190669160|30=N|31=44.62000|32=180|37=14828167|38=180|39=2|40=1|54=1|55=SNY|58=210 OPN1/0000 093201@|60=20051222-14:32:01|63=0|107=~TG-9340|20=0|10=102|
8=FIX.4.0|9=0265|35=8|49=NYFIXHUB|56=UNXQW|50=OR18|57=UNXQW|34=899|52=20051222-14:32:09|115=CAPREGION|116=DOT|128=UNXQW|1=240505|6=31.73000|11=0F8C29A00300179|14=4|17=190669162|30=N|31=31.73000|32=4|37=14834504|38=4|39=2|40=1|54=1|55=PVH|60=20051222-14:32:00|63=0|107=~TG-7553|20=0|10=037|
